{
  "contractName": "ExampleSwapToPrice",
  "abi": [
    {
      "inputs": [
        {
          "internalType": "address",
          "name": "factory_",
          "type": "address"
        },
        {
          "internalType": "contract IIgniRouter01",
          "name": "router_",
          "type": "address"
        }
      ],
      "stateMutability": "nonpayable",
      "type": "constructor"
    },
    {
      "inputs": [],
      "name": "factory",
      "outputs": [
        {
          "internalType": "address",
          "name": "",
          "type": "address"
        }
      ],
      "stateMutability": "view",
      "type": "function"
    },
    {
      "inputs": [],
      "name": "router",
      "outputs": [
        {
          "internalType": "contract IIgniRouter01",
          "name": "",
          "type": "address"
        }
      ],
      "stateMutability": "view",
      "type": "function"
    },
    {
      "inputs": [
        {
          "internalType": "uint256",
          "name": "truePriceTokenA",
          "type": "uint256"
        },
        {
          "internalType": "uint256",
          "name": "truePriceTokenB",
          "type": "uint256"
        },
        {
          "internalType": "uint256",
          "name": "reserveA",
          "type": "uint256"
        },
        {
          "internalType": "uint256",
          "name": "reserveB",
          "type": "uint256"
        }
      ],
      "name": "computeProfitMaximizingTrade",
      "outputs": [
        {
          "internalType": "bool",
          "name": "aToB",
          "type": "bool"
        },
        {
          "internalType": "uint256",
          "name": "amountIn",
          "type": "uint256"
        }
      ],
      "stateMutability": "pure",
      "type": "function"
    },
    {
      "inputs": [
        {
          "internalType": "address",
          "name": "tokenA",
          "type": "address"
        },
        {
          "internalType": "address",
          "name": "tokenB",
          "type": "address"
        },
        {
          "internalType": "uint256",
          "name": "truePriceTokenA",
          "type": "uint256"
        },
        {
          "internalType": "uint256",
          "name": "truePriceTokenB",
          "type": "uint256"
        },
        {
          "internalType": "uint256",
          "name": "maxSpendTokenA",
          "type": "uint256"
        },
        {
          "internalType": "uint256",
          "name": "maxSpendTokenB",
          "type": "uint256"
        },
        {
          "internalType": "address",
          "name": "to",
          "type": "address"
        },
        {
          "internalType": "uint256",
          "name": "deadline",
          "type": "uint256"
        }
      ],
      "name": "swapToPrice",
      "outputs": [],
      "stateMutability": "nonpayable",
      "type": "function"
    }
  ],
  "bytecode": "0x60c060405234801561001057600080fd5b5060405161117d38038061117d8339818101604052604081101561003357600080fd5b5080516020909101516001600160601b0319606092831b811660a052911b1660805260805160601c60a05160601c6110f061008d6000398061023452806105915250806102c4528061039b52806105b552506110f06000f3fe608060405234801561001057600080fd5b506004361061004c5760003560e01c8063bef90fd314610051578063c45a0155146100b5578063f887ea40146100e6578063fa653154146100ee575b600080fd5b6100b3600480360361010081101561006857600080fd5b5073ffffffffffffffffffffffffffffffffffffffff8135811691602081013582169160408201359160608101359160808201359160a08101359160c0820135169060e00135610138565b005b6100bd61058f565b6040805173ffffffffffffffffffffffffffffffffffffffff9092168252519081900360200190f35b6100bd6105b3565b61011d6004803603608081101561010457600080fd5b50803590602081013590604081013590606001356105d7565b60408051921515835260208301919091528051918290030190f35b851580159061014657508415155b6101b157604080517f08c379a000000000000000000000000000000000000000000000000000000000815260206004820152601e60248201527f4578616d706c6553776170546f50726963653a205a45524f5f50524943450000604482015290519081900360640190fd5b831515806101be57508215155b61022957604080517f08c379a000000000000000000000000000000000000000000000000000000000815260206004820152601e60248201527f4578616d706c6553776170546f50726963653a205a45524f5f5350454e440000604482015290519081900360640190fd5b60008060008061025a7f00000000000000000000000000000000000000000000000000000000000000008d8d6106bc565b9150915061026a8a8a84846105d7565b9094509250600091508390506102805785610282565b865b905080821115610290578091505b60008361029d578a61029f565b8b5b90506000846102ae578c6102b0565b8b5b90506102be823330876107b0565b6102e9827f000000000000000000000000000000000000000000000000000000000000000086610980565b6040805160028082526060808301845292602083019080368337019050509050828160008151811061031757fe5b602002602001019073ffffffffffffffffffffffffffffffffffffffff16908173ffffffffffffffffffffffffffffffffffffffff1681525050818160018151811061035f57fe5b602002602001019073ffffffffffffffffffffffffffffffffffffffff16908173ffffffffffffffffffffffffffffffffffffffff16815250507f000000000000000000000000000000000000000000000000000000000000000073ffffffffffffffffffffffffffffffffffffffff166338ed1739866000848c8c6040518663ffffffff1660e01b815260040180868152602001858152602001806020018473ffffffffffffffffffffffffffffffffffffffff1673ffffffffffffffffffffffffffffffffffffffff168152602001838152602001828103825285818151815260200191508051906020019060200280838360005b8381101561046e578181015183820152602001610456565b505050509050019650505050505050600060405180830381600087803b15801561049757600080fd5b505af11580156104ab573d6000803e3d6000fd5b505050506040513d6000823e601f3d9081017fffffffffffffffffffffffffffffffffffffffffffffffffffffffffffffffe016820160405260208110156104f257600080fd5b810190808051604051939291908464010000000082111561051257600080fd5b90830190602082018581111561052757600080fd5b825186602082028301116401000000008211171561054457600080fd5b82525081516020918201928201910280838360005b83811015610571578181015183820152602001610559565b50505050905001604052505050505050505050505050505050505050565b7f000000000000000000000000000000000000000000000000000000000000000081565b7f000000000000000000000000000000000000000000000000000000000000000081565b60008085836105ec868863ffffffff610b5d16565b816105f357fe5b041091506000610609858563ffffffff610b5d16565b9050600061065f61062f6103e586610621578a610623565b895b9063ffffffff610b5d16565b6106526103e861062388610643578b610645565b8c5b879063ffffffff610b5d16565b8161065957fe5b04610bd9565b905060006103e5856106825761067d876103e863ffffffff610b5d16565b610694565b610694886103e863ffffffff610b5d16565b8161069b57fe5b0490506106ae828263ffffffff610d2e16565b935050505094509492505050565b60008060006106cb8585610d70565b5090506106d9868686610ed9565b506000806106e8888888610ed9565b73ffffffffffffffffffffffffffffffffffffffff16630902f1ac6040518163ffffffff1660e01b815260040160606040518083038186803b15801561072d57600080fd5b505afa158015610741573d6000803e3d6000fd5b505050506040513d606081101561075757600080fd5b5080516020909101516dffffffffffffffffffffffffffff918216935016905073ffffffffffffffffffffffffffffffffffffffff8781169084161461079e5780826107a1565b81815b90999098509650505050505050565b6040805173ffffffffffffffffffffffffffffffffffffffff85811660248301528481166044830152606480830185905283518084039091018152608490920183526020820180517bffffffffffffffffffffffffffffffffffffffffffffffffffffffff167f23b872dd0000000000000000000000000000000000000000000000000000000017815292518251600094606094938a169392918291908083835b6020831061088e57805182527fffffffffffffffffffffffffffffffffffffffffffffffffffffffffffffffe09092019160209182019101610851565b6001836020036101000a0380198251168184511680821785525050505050509050019150506000604051808303816000865af19150503d80600081146108f0576040519150601f19603f3d011682016040523d82523d6000602084013e6108f5565b606091505b5091509150818015610923575080511580610923575080806020019051602081101561092057600080fd5b50515b610978576040517f08c379a00000000000000000000000000000000000000000000000000000000081526004018080602001828103825260248152602001806110976024913960400191505060405180910390fd5b505050505050565b6040805173ffffffffffffffffffffffffffffffffffffffff8481166024830152604480830185905283518084039091018152606490920183526020820180517bffffffffffffffffffffffffffffffffffffffffffffffffffffffff167f095ea7b300000000000000000000000000000000000000000000000000000000178152925182516000946060949389169392918291908083835b60208310610a5657805182527fffffffffffffffffffffffffffffffffffffffffffffffffffffffffffffffe09092019160209182019101610a19565b6001836020036101000a0380198251168184511680821785525050505050509050019150506000604051808303816000865af19150503d8060008114610ab8576040519150601f19603f3d011682016040523d82523d6000602084013e610abd565b606091505b5091509150818015610aeb575080511580610aeb5750808060200190516020811015610ae857600080fd5b50515b610b5657604080517f08c379a000000000000000000000000000000000000000000000000000000000815260206004820152601e60248201527f5472616e7366657248656c7065723a20415050524f56455f4641494c45440000604482015290519081900360640190fd5b5050505050565b600082610b6c57506000610bd3565b82820282848281610b7957fe5b0414610bd0576040517f08c379a00000000000000000000000000000000000000000000000000000000081526004018080602001828103825260218152602001806110766021913960400191505060405180910390fd5b90505b92915050565b600081610be857506000610d29565b8160017001000000000000000000000000000000008210610c0e5760809190911c9060401b5b680100000000000000008210610c295760409190911c9060201b5b6401000000008210610c405760209190911c9060101b5b620100008210610c555760109190911c9060081b5b6101008210610c695760089190911c9060041b5b60108210610c7c5760049190911c9060021b5b60088210610c885760011b5b6001818581610c9357fe5b048201901c90506001818581610ca557fe5b048201901c90506001818581610cb757fe5b048201901c90506001818581610cc957fe5b048201901c90506001818581610cdb57fe5b048201901c90506001818581610ced57fe5b048201901c90506001818581610cff57fe5b048201901c90506000818581610d1157fe5b049050808210610d215780610d23565b815b93505050505b919050565b6000610bd083836040518060400160405280601e81526020017f536166654d6174683a207375627472616374696f6e206f766572666c6f770000815250610fc4565b6000808273ffffffffffffffffffffffffffffffffffffffff168473ffffffffffffffffffffffffffffffffffffffff161415610e0e57604080517f08c379a000000000000000000000000000000000000000000000000000000000815260206004820181905260248201527f49676e694c6962726172793a204944454e544943414c5f414444524553534553604482015290519081900360640190fd5b8273ffffffffffffffffffffffffffffffffffffffff168473ffffffffffffffffffffffffffffffffffffffff1610610e48578284610e4b565b83835b909250905073ffffffffffffffffffffffffffffffffffffffff8216610ed257604080517f08c379a000000000000000000000000000000000000000000000000000000000815260206004820152601960248201527f49676e694c6962726172793a205a45524f5f4144445245535300000000000000604482015290519081900360640190fd5b9250929050565b6000806000610ee88585610d70565b604080517fffffffffffffffffffffffffffffffffffffffff000000000000000000000000606094851b811660208084019190915293851b81166034830152825160288184030181526048830184528051908501207fff0000000000000000000000000000000000000000000000000000000000000060688401529a90941b9093166069840152607d8301989098527fd0d4c4cd0848c93cb4fd1f498d7013ee6bfb25783ea21593d5834f5d250ece66609d808401919091528851808403909101815260bd909201909752805196019590952095945050505050565b6000818484111561106d576040517f08c379a00000000000000000000000000000000000000000000000000000000081526004018080602001828103825283818151815260200191508051906020019080838360005b8381101561103257818101518382015260200161101a565b50505050905090810190601f16801561105f5780820380516001836020036101000a031916815260200191505b509250505060405180910390fd5b50505090039056fe536166654d6174683a206d756c7469706c69636174696f6e206f766572666c6f775472616e7366657248656c7065723a205452414e534645525f46524f4d5f4641494c4544a2646970667358221220b40c1f54fce5da92689666a6030f395e7e7afe89134d8ef60467cc9a0ba4179264736f6c63430006060033",
  "immutableReferences": {
    "4666": [
      {
        "length": 32,
        "start": 708
      },
      {
        "length": 32,
        "start": 923
      },
      {
        "length": 32,
        "start": 1461
      }
    ],
    "4668": [
      {
        "length": 32,
        "start": 564
      },
      {
        "length": 32,
        "start": 1425
      }
    ]
  },
  "source": "pragma solidity =0.6.6;\r\n\r\nimport '@igniswap/igni-swap-core/contracts/interfaces/IIgniPair.sol';\r\nimport '@igniswap/igni-swap-lib/contracts/utils/Babylonian.sol';\r\nimport '@igniswap/igni-swap-lib/contracts/utils/TransferHelper.sol';\r\n\r\nimport '../interfaces/IERC20.sol';\r\nimport '../interfaces/IIgniRouter01.sol';\r\nimport '@igniswap/igni-swap-lib/contracts/math/SafeMath.sol';\r\nimport '../libraries/IgniLibrary.sol';\r\n\r\ncontract ExampleSwapToPrice {\r\n    using SafeMath for uint256;\r\n\r\n    IIgniRouter01 public immutable router;\r\n    address public immutable factory;\r\n\r\n    constructor(address factory_, IIgniRouter01 router_) public {\r\n        factory = factory_;\r\n        router = router_;\r\n    }\r\n\r\n    // computes the direction and magnitude of the profit-maximizing trade\r\n    function computeProfitMaximizingTrade(\r\n        uint256 truePriceTokenA,\r\n        uint256 truePriceTokenB,\r\n        uint256 reserveA,\r\n        uint256 reserveB\r\n    ) pure public returns (bool aToB, uint256 amountIn) {\r\n        aToB = reserveA.mul(truePriceTokenB) / reserveB < truePriceTokenA;\r\n\r\n        uint256 invariant = reserveA.mul(reserveB);\r\n\r\n        uint256 leftSide = Babylonian.sqrt(\r\n            invariant.mul(aToB ? truePriceTokenA : truePriceTokenB).mul(1000) /\r\n            uint256(aToB ? truePriceTokenB : truePriceTokenA).mul(997)\r\n        );\r\n        uint256 rightSide = (aToB ? reserveA.mul(1000) : reserveB.mul(1000)) / 997;\r\n\r\n        // compute the amount that must be sent to move the price to the profit-maximizing price\r\n        amountIn = leftSide.sub(rightSide);\r\n    }\r\n\r\n    // swaps an amount of either token such that the trade is profit-maximizing, given an external true price\r\n    // true price is expressed in the ratio of token A to token B\r\n    // caller must approve this contract to spend whichever token is intended to be swapped\r\n    function swapToPrice(\r\n        address tokenA,\r\n        address tokenB,\r\n        uint256 truePriceTokenA,\r\n        uint256 truePriceTokenB,\r\n        uint256 maxSpendTokenA,\r\n        uint256 maxSpendTokenB,\r\n        address to,\r\n        uint256 deadline\r\n    ) public {\r\n        // true price is expressed as a ratio, so both values must be non-zero\r\n        require(truePriceTokenA != 0 && truePriceTokenB != 0, \"ExampleSwapToPrice: ZERO_PRICE\");\r\n        // caller can specify 0 for either if they wish to swap in only one direction, but not both\r\n        require(maxSpendTokenA != 0 || maxSpendTokenB != 0, \"ExampleSwapToPrice: ZERO_SPEND\");\r\n\r\n        bool aToB;\r\n        uint256 amountIn;\r\n        {\r\n            (uint256 reserveA, uint256 reserveB) = IgniLibrary.getReserves(factory, tokenA, tokenB);\r\n            (aToB, amountIn) = computeProfitMaximizingTrade(\r\n                truePriceTokenA, truePriceTokenB,\r\n                reserveA, reserveB\r\n            );\r\n        }\r\n\r\n        // spend up to the allowance of the token in\r\n        uint256 maxSpend = aToB ? maxSpendTokenA : maxSpendTokenB;\r\n        if (amountIn > maxSpend) {\r\n            amountIn = maxSpend;\r\n        }\r\n\r\n        address tokenIn = aToB ? tokenA : tokenB;\r\n        address tokenOut = aToB ? tokenB : tokenA;\r\n        TransferHelper.safeTransferFrom(tokenIn, msg.sender, address(this), amountIn);\r\n        TransferHelper.safeApprove(tokenIn, address(router), amountIn);\r\n\r\n        address[] memory path = new address[](2);\r\n        path[0] = tokenIn;\r\n        path[1] = tokenOut;\r\n\r\n        router.swapExactTokensForTokens(\r\n            amountIn,\r\n            0, // amountOutMin: we can skip computing this number because the math is tested\r\n            path,\r\n            to,\r\n            deadline\r\n        );\r\n    }\r\n}\r\n",
  "sourcePath": "C:\\Users\\marcr\\OneDrive\\Escritorio\\Pancake\\igni-swap-periphery\\contracts\\examples\\ExampleSwapToPrice.sol",
  "compiler": {
    "name": "solc",
    "version": "0.6.6+commit.6c089d02.Emscripten.clang"
  },
  "schemaVersion": "3.2.0",
  "updatedAt": "2021-02-28T18:14:32.040Z",
  "devdoc": {
    "methods": {}
  },
  "userdoc": {
    "methods": {}
  }
}