{
  "contractName": "ExampleFlashSwap",
  "abi": [
    {
      "inputs": [
        {
          "internalType": "address",
          "name": "_factory",
          "type": "address"
        },
        {
          "internalType": "address",
          "name": "_factoryV1",
          "type": "address"
        },
        {
          "internalType": "address",
          "name": "router",
          "type": "address"
        }
      ],
      "stateMutability": "nonpayable",
      "type": "constructor"
    },
    {
      "stateMutability": "payable",
      "type": "receive"
    },
    {
      "inputs": [
        {
          "internalType": "address",
          "name": "sender",
          "type": "address"
        },
        {
          "internalType": "uint256",
          "name": "amount0",
          "type": "uint256"
        },
        {
          "internalType": "uint256",
          "name": "amount1",
          "type": "uint256"
        },
        {
          "internalType": "bytes",
          "name": "data",
          "type": "bytes"
        }
      ],
      "name": "igniCall",
      "outputs": [],
      "stateMutability": "nonpayable",
      "type": "function"
    }
  ],
  "bytecode": "0x60e060405234801561001057600080fd5b506040516116af3803806116af8339818101604052606081101561003357600080fd5b5080516020808301516040938401516001600160601b0319606083811b821660805285901b1660a05284516315ab88c960e31b815294519394919390926001600160a01b0384169263ad5c46489260048083019392829003018186803b15801561009c57600080fd5b505afa1580156100b0573d6000803e3d6000fd5b505050506040513d60208110156100c657600080fd5b50516001600160601b031960609190911b1660c05250505060805160601c60a05160601c60c05160601c61156f610140600039806102e15280610316528061037552806103de528061044a528061078b52806108545280610a215250806101f652806107445280610b345250806104e5525061156f6000f3fe6080604052600436106100225760003560e01c8063f42a70991461002e57610029565b3661002957005b600080fd5b34801561003a57600080fd5b506100d46004803603608081101561005157600080fd5b73ffffffffffffffffffffffffffffffffffffffff823516916020810135916040820135919081019060808101606082013564010000000081111561009557600080fd5b8201836020820111156100a757600080fd5b803590602001918460018302840111640100000000831117156100c957600080fd5b5090925090506100d6565b005b604080516002808252606080830184529260208301908036833701905050905060008060003373ffffffffffffffffffffffffffffffffffffffff16630dfe16816040518163ffffffff1660e01b815260040160206040518083038186803b15801561014157600080fd5b505afa158015610155573d6000803e3d6000fd5b505050506040513d602081101561016b57600080fd5b5051604080517fd21220a70000000000000000000000000000000000000000000000000000000081529051919250600091339163d21220a7916004808301926020929190829003018186803b1580156101c357600080fd5b505afa1580156101d7573d6000803e3d6000fd5b505050506040513d60208110156101ed57600080fd5b5051905061021c7f00000000000000000000000000000000000000000000000000000000000000008383610cdc565b73ffffffffffffffffffffffffffffffffffffffff163373ffffffffffffffffffffffffffffffffffffffff161461025057fe5b88158061025b575087155b61026157fe5b881561026d578061026f565b815b8560008151811061027c57fe5b73ffffffffffffffffffffffffffffffffffffffff9092166020928302919091019091015288156102ad57816102af565b805b856001815181106102bc57fe5b73ffffffffffffffffffffffffffffffffffffffff92831660209182029290920101527f00000000000000000000000000000000000000000000000000000000000000008116908316146103105788610312565b875b93507f000000000000000000000000000000000000000000000000000000000000000073ffffffffffffffffffffffffffffffffffffffff168273ffffffffffffffffffffffffffffffffffffffff161461036d578761036f565b885b925050507f000000000000000000000000000000000000000000000000000000000000000073ffffffffffffffffffffffffffffffffffffffff16836000815181106103b757fe5b602002602001015173ffffffffffffffffffffffffffffffffffffffff16148061044057507f000000000000000000000000000000000000000000000000000000000000000073ffffffffffffffffffffffffffffffffffffffff168360018151811061042057fe5b602002602001015173ffffffffffffffffffffffffffffffffffffffff16145b61044657fe5b60007f000000000000000000000000000000000000000000000000000000000000000073ffffffffffffffffffffffffffffffffffffffff168460008151811061048c57fe5b602002602001015173ffffffffffffffffffffffffffffffffffffffff16146104c957836000815181106104bc57fe5b60200260200101516104df565b836001815181106104d657fe5b60200260200101515b905060007f000000000000000000000000000000000000000000000000000000000000000073ffffffffffffffffffffffffffffffffffffffff166306f2bf62836040518263ffffffff1660e01b8152600401808273ffffffffffffffffffffffffffffffffffffffff1673ffffffffffffffffffffffffffffffffffffffff16815260200191505060206040518083038186803b15801561058057600080fd5b505afa158015610594573d6000803e3d6000fd5b505050506040513d60208110156105aa57600080fd5b5051905083156109c3576000878760208110156105c657600080fd5b50604080517f095ea7b300000000000000000000000000000000000000000000000000000000815273ffffffffffffffffffffffffffffffffffffffff8581166004830152602482018990529151923593509085169163095ea7b3916044808201926020929091908290030181600087803b15801561064457600080fd5b505af1158015610658573d6000803e3d6000fd5b505050506040513d602081101561066e57600080fd5b5050604080517f95e3c50b00000000000000000000000000000000000000000000000000000000815260048101879052602481018390527fffffffffffffffffffffffffffffffffffffffffffffffffffffffffffffffff6044820152905160009173ffffffffffffffffffffffffffffffffffffffff8516916395e3c50b9160648082019260209290919082900301818787803b15801561070f57600080fd5b505af1158015610723573d6000803e3d6000fd5b505050506040513d602081101561073957600080fd5b50519050600061076a7f0000000000000000000000000000000000000000000000000000000000000000888a610dc7565b60008151811061077657fe5b6020026020010151905080821161078957fe5b7f000000000000000000000000000000000000000000000000000000000000000073ffffffffffffffffffffffffffffffffffffffff1663d0e30db0826040518263ffffffff1660e01b81526004016000604051808303818588803b1580156107f157600080fd5b505af1158015610805573d6000803e3d6000fd5b5050604080517fa9059cbb00000000000000000000000000000000000000000000000000000000815233600482015260248101869052905173ffffffffffffffffffffffffffffffffffffffff7f000000000000000000000000000000000000000000000000000000000000000016945063a9059cbb9350604480830193506020928290030181600087803b15801561089d57600080fd5b505af11580156108b1573d6000803e3d6000fd5b505050506040513d60208110156108c757600080fd5b50516108cf57fe5b6040805160008082526020820190925273ffffffffffffffffffffffffffffffffffffffff8f1690838503906040518082805190602001908083835b6020831061094857805182527fffffffffffffffffffffffffffffffffffffffffffffffffffffffffffffffe0909201916020918201910161090b565b6001836020036101000a03801982511681845116808217855250505050505090500191505060006040518083038185875af1925050503d80600081146109aa576040519150601f19603f3d011682016040523d82523d6000602084013e6109af565b606091505b50509050806109ba57fe5b50505050610cd0565b6000878760208110156109d557600080fd5b50604080517f2e1a7d4d0000000000000000000000000000000000000000000000000000000081526004810187905290519135925073ffffffffffffffffffffffffffffffffffffffff7f00000000000000000000000000000000000000000000000000000000000000001691632e1a7d4d9160248082019260009290919082900301818387803b158015610a6957600080fd5b505af1158015610a7d573d6000803e3d6000fd5b5050505060008273ffffffffffffffffffffffffffffffffffffffff1663f39b5b9b86847fffffffffffffffffffffffffffffffffffffffffffffffffffffffffffffffff6040518463ffffffff1660e01b815260040180838152602001828152602001925050506020604051808303818588803b158015610afe57600080fd5b505af1158015610b12573d6000803e3d6000fd5b50505050506040513d6020811015610b2957600080fd5b505190506000610b5a7f0000000000000000000000000000000000000000000000000000000000000000878a610dc7565b600081518110610b6657fe5b60200260200101519050808211610b7957fe5b604080517fa9059cbb00000000000000000000000000000000000000000000000000000000815233600482015260248101839052905173ffffffffffffffffffffffffffffffffffffffff87169163a9059cbb9160448083019260209291908290030181600087803b158015610bee57600080fd5b505af1158015610c02573d6000803e3d6000fd5b505050506040513d6020811015610c1857600080fd5b5051610c2057fe5b604080517fa9059cbb00000000000000000000000000000000000000000000000000000000815273ffffffffffffffffffffffffffffffffffffffff8f81166004830152838503602483015291519187169163a9059cbb916044808201926020929091908290030181600087803b158015610c9a57600080fd5b505af1158015610cae573d6000803e3d6000fd5b505050506040513d6020811015610cc457600080fd5b5051610ccc57fe5b5050505b50505050505050505050565b6000806000610ceb8585610f6a565b604080517fffffffffffffffffffffffffffffffffffffffff000000000000000000000000606094851b811660208084019190915293851b81166034830152825160288184030181526048830184528051908501207fff0000000000000000000000000000000000000000000000000000000000000060688401529a90941b9093166069840152607d8301989098527fd0d4c4cd0848c93cb4fd1f498d7013ee6bfb25783ea21593d5834f5d250ece66609d808401919091528851808403909101815260bd909201909752805196019590952095945050505050565b6060600282511015610e3a57604080517f08c379a000000000000000000000000000000000000000000000000000000000815260206004820152601960248201527f49676e694c6962726172793a20494e56414c49445f5041544800000000000000604482015290519081900360640190fd5b815167ffffffffffffffff81118015610e5257600080fd5b50604051908082528060200260200182016040528015610e7c578160200160208202803683370190505b5090508281600183510381518110610e9057fe5b602090810291909101015281517fffffffffffffffffffffffffffffffffffffffffffffffffffffffffffffffff015b8015610f6257600080610efd87866001860381518110610edc57fe5b6020026020010151878681518110610ef057fe5b60200260200101516110d3565b91509150610f1f848481518110610f1057fe5b602002602001015183836111c7565b846001850381518110610f2e57fe5b602090810291909101015250507fffffffffffffffffffffffffffffffffffffffffffffffffffffffffffffffff01610ec0565b509392505050565b6000808273ffffffffffffffffffffffffffffffffffffffff168473ffffffffffffffffffffffffffffffffffffffff16141561100857604080517f08c379a000000000000000000000000000000000000000000000000000000000815260206004820181905260248201527f49676e694c6962726172793a204944454e544943414c5f414444524553534553604482015290519081900360640190fd5b8273ffffffffffffffffffffffffffffffffffffffff168473ffffffffffffffffffffffffffffffffffffffff1610611042578284611045565b83835b909250905073ffffffffffffffffffffffffffffffffffffffff82166110cc57604080517f08c379a000000000000000000000000000000000000000000000000000000000815260206004820152601960248201527f49676e694c6962726172793a205a45524f5f4144445245535300000000000000604482015290519081900360640190fd5b9250929050565b60008060006110e28585610f6a565b5090506110f0868686610cdc565b506000806110ff888888610cdc565b73ffffffffffffffffffffffffffffffffffffffff16630902f1ac6040518163ffffffff1660e01b815260040160606040518083038186803b15801561114457600080fd5b505afa158015611158573d6000803e3d6000fd5b505050506040513d606081101561116e57600080fd5b5080516020909101516dffffffffffffffffffffffffffff918216935016905073ffffffffffffffffffffffffffffffffffffffff878116908416146111b55780826111b8565b81815b90999098509650505050505050565b6000808411611221576040517f08c379a00000000000000000000000000000000000000000000000000000000081526004018080602001828103825260278152602001806114cf6027913960400191505060405180910390fd5b6000831180156112315750600082115b611286576040517f08c379a00000000000000000000000000000000000000000000000000000000081526004018080602001828103825260238152602001806115176023913960400191505060405180910390fd5b60006112aa6103e861129e868863ffffffff6112eb16565b9063ffffffff6112eb16565b905060006112c46103e661129e868963ffffffff61136716565b90506112e160018284816112d457fe5b049063ffffffff6113a916565b9695505050505050565b6000826112fa57506000611361565b8282028284828161130757fe5b041461135e576040517f08c379a00000000000000000000000000000000000000000000000000000000081526004018080602001828103825260218152602001806114f66021913960400191505060405180910390fd5b90505b92915050565b600061135e83836040518060400160405280601e81526020017f536166654d6174683a207375627472616374696f6e206f766572666c6f77000081525061141d565b60008282018381101561135e57604080517f08c379a000000000000000000000000000000000000000000000000000000000815260206004820152601b60248201527f536166654d6174683a206164646974696f6e206f766572666c6f770000000000604482015290519081900360640190fd5b600081848411156114c6576040517f08c379a00000000000000000000000000000000000000000000000000000000081526004018080602001828103825283818151815260200191508051906020019080838360005b8381101561148b578181015183820152602001611473565b50505050905090810190601f1680156114b85780820380516001836020036101000a031916815260200191505b509250505060405180910390fd5b50505090039056fe49676e694c6962726172793a20494e53554646494349454e545f4f55545055545f414d4f554e54536166654d6174683a206d756c7469706c69636174696f6e206f766572666c6f7749676e694c6962726172793a20494e53554646494349454e545f4c4951554944495459a2646970667358221220d29e6d121394b77a48922dd643ce2a6990f146f25feef7356c281a842c8f2fa264736f6c63430006060033",
  "immutableReferences": {
    "3715": [
      {
        "length": 32,
        "start": 1253
      }
    ],
    "3717": [
      {
        "length": 32,
        "start": 502
      },
      {
        "length": 32,
        "start": 1860
      },
      {
        "length": 32,
        "start": 2868
      }
    ],
    "3719": [
      {
        "length": 32,
        "start": 737
      },
      {
        "length": 32,
        "start": 790
      },
      {
        "length": 32,
        "start": 885
      },
      {
        "length": 32,
        "start": 990
      },
      {
        "length": 32,
        "start": 1098
      },
      {
        "length": 32,
        "start": 1931
      },
      {
        "length": 32,
        "start": 2132
      },
      {
        "length": 32,
        "start": 2593
      }
    ]
  },
  "source": "pragma solidity =0.6.6;\r\n\r\nimport '@igniswap/igni-swap-core/contracts/interfaces/IIgniCallee.sol';\r\n\r\nimport '../libraries/IgniLibrary.sol';\r\nimport '../interfaces/V1/IUniswapV1Factory.sol';\r\nimport '../interfaces/V1/IUniswapV1Exchange.sol';\r\nimport '../interfaces/IIgniRouter01.sol';\r\nimport '../interfaces/IERC20.sol';\r\nimport '../interfaces/IWETH.sol';\r\n\r\ncontract ExampleFlashSwap is IIgniCallee {\r\n    IUniswapV1Factory immutable factoryV1;\r\n    address immutable factory;\r\n    IWETH immutable WETH;\r\n\r\n    constructor(address _factory, address _factoryV1, address router) public {\r\n        factoryV1 = IUniswapV1Factory(_factoryV1);\r\n        factory = _factory;\r\n        WETH = IWETH(IIgniRouter01(router).WETH());\r\n    }\r\n\r\n    // needs to accept ETH from any V1 exchange and WETH. ideally this could be enforced, as in the router,\r\n    // but it's not possible because it requires a call to the v1 factory, which takes too much gas\r\n    receive() external payable {}\r\n\r\n    // gets tokens/WETH via a V2 flash swap, swaps for the ETH/tokens on V1, repays V2, and keeps the rest!\r\n    function igniCall(address sender, uint amount0, uint amount1, bytes calldata data) external override {\r\n        address[] memory path = new address[](2);\r\n        uint amountToken;\r\n        uint amountETH;\r\n        { // scope for token{0,1}, avoids stack too deep errors\r\n        address token0 = IIgniPair(msg.sender).token0();\r\n        address token1 = IIgniPair(msg.sender).token1();\r\n        assert(msg.sender == IgniLibrary.pairFor(factory, token0, token1)); // ensure that msg.sender is actually a V2 pair\r\n        assert(amount0 == 0 || amount1 == 0); // this strategy is unidirectional\r\n        path[0] = amount0 == 0 ? token0 : token1;\r\n        path[1] = amount0 == 0 ? token1 : token0;\r\n        amountToken = token0 == address(WETH) ? amount1 : amount0;\r\n        amountETH = token0 == address(WETH) ? amount0 : amount1;\r\n        }\r\n\r\n        assert(path[0] == address(WETH) || path[1] == address(WETH)); // this strategy only works with a V2 WETH pair\r\n        IERC20 token = IERC20(path[0] == address(WETH) ? path[1] : path[0]);\r\n        IUniswapV1Exchange exchangeV1 = IUniswapV1Exchange(factoryV1.getExchange(address(token))); // get V1 exchange\r\n\r\n        if (amountToken > 0) {\r\n            (uint minETH) = abi.decode(data, (uint)); // slippage parameter for V1, passed in by caller\r\n            token.approve(address(exchangeV1), amountToken);\r\n            uint amountReceived = exchangeV1.tokenToEthSwapInput(amountToken, minETH, uint(-1));\r\n            uint amountRequired = IgniLibrary.getAmountsIn(factory, amountToken, path)[0];\r\n            assert(amountReceived > amountRequired); // fail if we didn't get enough ETH back to repay our flash loan\r\n            WETH.deposit{value: amountRequired}();\r\n            assert(WETH.transfer(msg.sender, amountRequired)); // return WETH to V2 pair\r\n            (bool success,) = sender.call{value: amountReceived - amountRequired}(new bytes(0)); // keep the rest! (ETH)\r\n            assert(success);\r\n        } else {\r\n            (uint minTokens) = abi.decode(data, (uint)); // slippage parameter for V1, passed in by caller\r\n            WETH.withdraw(amountETH);\r\n            uint amountReceived = exchangeV1.ethToTokenSwapInput{value: amountETH}(minTokens, uint(-1));\r\n            uint amountRequired = IgniLibrary.getAmountsIn(factory, amountETH, path)[0];\r\n            assert(amountReceived > amountRequired); // fail if we didn't get enough tokens back to repay our flash loan\r\n            assert(token.transfer(msg.sender, amountRequired)); // return tokens to V2 pair\r\n            assert(token.transfer(sender, amountReceived - amountRequired)); // keep the rest! (tokens)\r\n        }\r\n    }\r\n}\r\n",
  "sourcePath": "C:\\Users\\marcr\\OneDrive\\Escritorio\\Pancake\\igni-swap-periphery\\contracts\\examples\\ExampleFlashSwap.sol",
  "compiler": {
    "name": "solc",
    "version": "0.6.6+commit.6c089d02.Emscripten.clang"
  },
  "schemaVersion": "3.2.0",
  "updatedAt": "2021-02-28T18:14:31.999Z",
  "devdoc": {
    "methods": {}
  },
  "userdoc": {
    "methods": {}
  }
}