{
  "contractName": "ExampleSlidingWindowOracle",
  "abi": [
    {
      "inputs": [
        {
          "internalType": "address",
          "name": "factory_",
          "type": "address"
        },
        {
          "internalType": "uint256",
          "name": "windowSize_",
          "type": "uint256"
        },
        {
          "internalType": "uint8",
          "name": "granularity_",
          "type": "uint8"
        }
      ],
      "stateMutability": "nonpayable",
      "type": "constructor"
    },
    {
      "inputs": [],
      "name": "factory",
      "outputs": [
        {
          "internalType": "address",
          "name": "",
          "type": "address"
        }
      ],
      "stateMutability": "view",
      "type": "function"
    },
    {
      "inputs": [],
      "name": "granularity",
      "outputs": [
        {
          "internalType": "uint8",
          "name": "",
          "type": "uint8"
        }
      ],
      "stateMutability": "view",
      "type": "function"
    },
    {
      "inputs": [
        {
          "internalType": "address",
          "name": "",
          "type": "address"
        },
        {
          "internalType": "uint256",
          "name": "",
          "type": "uint256"
        }
      ],
      "name": "pairObservations",
      "outputs": [
        {
          "internalType": "uint256",
          "name": "timestamp",
          "type": "uint256"
        },
        {
          "internalType": "uint256",
          "name": "price0Cumulative",
          "type": "uint256"
        },
        {
          "internalType": "uint256",
          "name": "price1Cumulative",
          "type": "uint256"
        }
      ],
      "stateMutability": "view",
      "type": "function"
    },
    {
      "inputs": [],
      "name": "periodSize",
      "outputs": [
        {
          "internalType": "uint256",
          "name": "",
          "type": "uint256"
        }
      ],
      "stateMutability": "view",
      "type": "function"
    },
    {
      "inputs": [],
      "name": "windowSize",
      "outputs": [
        {
          "internalType": "uint256",
          "name": "",
          "type": "uint256"
        }
      ],
      "stateMutability": "view",
      "type": "function"
    },
    {
      "inputs": [
        {
          "internalType": "uint256",
          "name": "timestamp",
          "type": "uint256"
        }
      ],
      "name": "observationIndexOf",
      "outputs": [
        {
          "internalType": "uint8",
          "name": "index",
          "type": "uint8"
        }
      ],
      "stateMutability": "view",
      "type": "function"
    },
    {
      "inputs": [
        {
          "internalType": "address",
          "name": "tokenA",
          "type": "address"
        },
        {
          "internalType": "address",
          "name": "tokenB",
          "type": "address"
        }
      ],
      "name": "update",
      "outputs": [],
      "stateMutability": "nonpayable",
      "type": "function"
    },
    {
      "inputs": [
        {
          "internalType": "address",
          "name": "tokenIn",
          "type": "address"
        },
        {
          "internalType": "uint256",
          "name": "amountIn",
          "type": "uint256"
        },
        {
          "internalType": "address",
          "name": "tokenOut",
          "type": "address"
        }
      ],
      "name": "consult",
      "outputs": [
        {
          "internalType": "uint256",
          "name": "amountOut",
          "type": "uint256"
        }
      ],
      "stateMutability": "view",
      "type": "function"
    }
  ],
  "bytecode": "0x61010060405234801561001157600080fd5b5060405161108c38038061108c8339818101604052606081101561003457600080fd5b5080516020820151604090920151909190600160ff82161161009d576040805162461bcd60e51b815260206004820181905260248201527f536c6964696e6757696e646f774f7261636c653a204752414e554c4152495459604482015290519081900360640190fd5b8160ff82168082816100ab57fe5b0460e081905202146100ee5760405162461bcd60e51b815260040180806020018281038252603081526020018061105c6030913960400191505060405180910390fd5b606083901b6001600160601b03191660805260a082905260f881901b7fff000000000000000000000000000000000000000000000000000000000000001660c05260e0516001600160a01b039093169260ff90911690610ebd61019f600039806102f7528061059452806105e752806106475250806101f452806104d752806106135280610766525080610218528061027e528061031b525080610242528061045c52806104855250610ebd6000f3fe608060405234801561001057600080fd5b50600436106100885760003560e01c8063c45a01551161005b578063c45a01551461015f578063c640752d14610190578063dbaad32f146101cd578063e4463eb2146101ea57610088565b8063556f0dc71461008d5780638a14117a146100ab5780638c86f1e4146100c5578063bfcc8e4214610108575b600080fd5b6100956101f2565b6040805160ff9092168252519081900360200190f35b6100b3610216565b60408051918252519081900360200190f35b6100b3600480360360608110156100db57600080fd5b5073ffffffffffffffffffffffffffffffffffffffff81358116916020810135916040909101351661023a565b6101416004803603604081101561011e57600080fd5b5073ffffffffffffffffffffffffffffffffffffffff813516906020013561041b565b60408051938452602084019290925282820152519081900360600190f35b61016761045a565b6040805173ffffffffffffffffffffffffffffffffffffffff9092168252519081900360200190f35b6101cb600480360360408110156101a657600080fd5b5073ffffffffffffffffffffffffffffffffffffffff8135811691602001351661047e565b005b610095600480360360208110156101e357600080fd5b50356105e2565b6100b3610645565b7f000000000000000000000000000000000000000000000000000000000000000081565b7f000000000000000000000000000000000000000000000000000000000000000081565b6000806102687f00000000000000000000000000000000000000000000000000000000000000008685610669565b9050600061027582610754565b805490915042037f00000000000000000000000000000000000000000000000000000000000000008111156102f5576040517f08c379a0000000000000000000000000000000000000000000000000000000008152600401808060200182810382526033815260200180610e066033913960400191505060405180910390fd5b7f00000000000000000000000000000000000000000000000000000000000000006002027f000000000000000000000000000000000000000000000000000000000000000003811015610393576040517f08c379a000000000000000000000000000000000000000000000000000000000815260040180806020018281038252602c815260200180610e39602c913960400191505060405180910390fd5b60008061039f856107fc565b509150915060006103b08a89610a4e565b5090508973ffffffffffffffffffffffffffffffffffffffff168173ffffffffffffffffffffffffffffffffffffffff161415610404576103f7856001015484868c610bb7565b9650505050505050610414565b6103f7856002015483868c610bb7565b9392505050565b6000602052816000526040600020818154811061043457fe5b600091825260209091206003909102018054600182015460029092015490935090915083565b7f000000000000000000000000000000000000000000000000000000000000000081565b60006104ab7f00000000000000000000000000000000000000000000000000000000000000008484610669565b73ffffffffffffffffffffffffffffffffffffffff81166000908152602081905260409020549091505b7f000000000000000000000000000000000000000000000000000000000000000060ff168110156105365773ffffffffffffffffffffffffffffffffffffffff821660009081526020819052604081208054600190810182559152016104d5565b506000610542426105e2565b73ffffffffffffffffffffffffffffffffffffffff831660009081526020819052604081208054929350909160ff841690811061057b57fe5b60009182526020909120600390910201805490915042037f00000000000000000000000000000000000000000000000000000000000000008111156105da576000806105c6866107fc565b504286556001860191909155600285015550505b505050505050565b6000807f0000000000000000000000000000000000000000000000000000000000000000838161060e57fe5b0490507f000000000000000000000000000000000000000000000000000000000000000060ff16818161063d57fe5b069392505050565b7f000000000000000000000000000000000000000000000000000000000000000081565b60008060006106788585610a4e565b604080517fffffffffffffffffffffffffffffffffffffffff000000000000000000000000606094851b811660208084019190915293851b81166034830152825160288184030181526048830184528051908501207fff0000000000000000000000000000000000000000000000000000000000000060688401529a90941b9093166069840152607d8301989098527fd0d4c4cd0848c93cb4fd1f498d7013ee6bfb25783ea21593d5834f5d250ece66609d808401919091528851808403909101815260bd909201909752805196019590952095945050505050565b600080610760426105e2565b905060007f000000000000000000000000000000000000000000000000000000000000000060ff168260010160ff168161079657fe5b0690506000808573ffffffffffffffffffffffffffffffffffffffff1673ffffffffffffffffffffffffffffffffffffffff1681526020019081526020016000208160ff16815481106107e557fe5b906000526020600020906003020192505050919050565b6000806000610809610c2a565b90508373ffffffffffffffffffffffffffffffffffffffff16635909c0d56040518163ffffffff1660e01b815260040160206040518083038186803b15801561085157600080fd5b505afa158015610865573d6000803e3d6000fd5b505050506040513d602081101561087b57600080fd5b5051604080517f5a3d5493000000000000000000000000000000000000000000000000000000008152905191945073ffffffffffffffffffffffffffffffffffffffff861691635a3d549391600480820192602092909190829003018186803b1580156108e757600080fd5b505afa1580156108fb573d6000803e3d6000fd5b505050506040513d602081101561091157600080fd5b5051604080517f0902f1ac00000000000000000000000000000000000000000000000000000000815290519193506000918291829173ffffffffffffffffffffffffffffffffffffffff891691630902f1ac916004808301926060929190829003018186803b15801561098357600080fd5b505afa158015610997573d6000803e3d6000fd5b505050506040513d60608110156109ad57600080fd5b5080516020820151604090920151909450909250905063ffffffff80821690851614610a445780840363ffffffff81166109e78486610c34565b517bffffffffffffffffffffffffffffffffffffffffffffffffffffffff1602969096019563ffffffff8116610a1d8585610c34565b517bffffffffffffffffffffffffffffffffffffffffffffffffffffffff16029590950194505b5050509193909250565b6000808273ffffffffffffffffffffffffffffffffffffffff168473ffffffffffffffffffffffffffffffffffffffff161415610aec57604080517f08c379a000000000000000000000000000000000000000000000000000000000815260206004820181905260248201527f49676e694c6962726172793a204944454e544943414c5f414444524553534553604482015290519081900360640190fd5b8273ffffffffffffffffffffffffffffffffffffffff168473ffffffffffffffffffffffffffffffffffffffff1610610b26578284610b29565b83835b909250905073ffffffffffffffffffffffffffffffffffffffff8216610bb057604080517f08c379a000000000000000000000000000000000000000000000000000000000815260206004820152601960248201527f49676e694c6962726172793a205a45524f5f4144445245535300000000000000604482015290519081900360640190fd5b9250929050565b6000610bc1610de0565b60405180602001604052808588880381610bd757fe5b047bffffffffffffffffffffffffffffffffffffffffffffffffffffffff1690529050610c0c610c078285610d2c565b610dd9565b71ffffffffffffffffffffffffffffffffffff169695505050505050565b63ffffffff421690565b610c3c610de0565b6000826dffffffffffffffffffffffffffff1611610cbb57604080517f08c379a000000000000000000000000000000000000000000000000000000000815260206004820152601760248201527f4669786564506f696e743a204449565f42595f5a45524f000000000000000000604482015290519081900360640190fd5b6040805160208101909152806dffffffffffffffffffffffffffff84167bffffffffffffffffffffffffffff0000000000000000000000000000607087901b1681610d0257fe5b047bffffffffffffffffffffffffffffffffffffffffffffffffffffffff16815250905092915050565b610d34610df2565b6000821580610d6f57505082517bffffffffffffffffffffffffffffffffffffffffffffffffffffffff1682810290838281610d6c57fe5b04145b610dc4576040517f08c379a0000000000000000000000000000000000000000000000000000000008152600401808060200182810382526023815260200180610e656023913960400191505060405180910390fd5b60408051602081019091529081529392505050565b5160701c90565b60408051602081019091526000815290565b604051806020016040528060008152509056fe536c6964696e6757696e646f774f7261636c653a204d495353494e475f484953544f524943414c5f4f42534552564154494f4e536c6964696e6757696e646f774f7261636c653a20554e45585045435445445f54494d455f454c41505345444669786564506f696e743a204d554c5449504c49434154494f4e5f4f564552464c4f57a264697066735822122020622d58ac49edcf5ee25e56e8b58bf6d16d500bd515325426b8fdab2cb7561964736f6c63430006060033536c6964696e6757696e646f774f7261636c653a2057494e444f575f4e4f545f4556454e4c595f444956495349424c45",
  "immutableReferences": {
    "4318": [
      {
        "length": 32,
        "start": 578
      },
      {
        "length": 32,
        "start": 1116
      },
      {
        "length": 32,
        "start": 1157
      }
    ],
    "4320": [
      {
        "length": 32,
        "start": 536
      },
      {
        "length": 32,
        "start": 638
      },
      {
        "length": 32,
        "start": 795
      }
    ],
    "4322": [
      {
        "length": 32,
        "start": 500
      },
      {
        "length": 32,
        "start": 1239
      },
      {
        "length": 32,
        "start": 1555
      },
      {
        "length": 32,
        "start": 1894
      }
    ],
    "4324": [
      {
        "length": 32,
        "start": 759
      },
      {
        "length": 32,
        "start": 1428
      },
      {
        "length": 32,
        "start": 1511
      },
      {
        "length": 32,
        "start": 1607
      }
    ]
  },
  "source": "pragma solidity =0.6.6;\r\n\r\nimport '@igniswap/igni-swap-core/contracts/interfaces/IIgniFactory.sol';\r\nimport '@igniswap/igni-swap-core/contracts/interfaces/IIgniPair.sol';\r\nimport '@igniswap/igni-swap-lib/contracts/utils/FixedPoint.sol';\r\n\r\nimport '@igniswap/igni-swap-lib/contracts/math/SafeMath.sol';\r\nimport '../libraries/IgniLibrary.sol';\r\nimport '../libraries/IgniOracleLibrary.sol';\r\n\r\n// sliding window oracle that uses observations collected over a window to provide moving price averages in the past\r\n// `windowSize` with a precision of `windowSize / granularity`\r\n// note this is a singleton oracle and only needs to be deployed once per desired parameters, which\r\n// differs from the simple oracle which must be deployed once per pair.\r\ncontract ExampleSlidingWindowOracle {\r\n    using FixedPoint for *;\r\n    using SafeMath for uint;\r\n\r\n    struct Observation {\r\n        uint timestamp;\r\n        uint price0Cumulative;\r\n        uint price1Cumulative;\r\n    }\r\n\r\n    address public immutable factory;\r\n    // the desired amount of time over which the moving average should be computed, e.g. 24 hours\r\n    uint public immutable windowSize;\r\n    // the number of observations stored for each pair, i.e. how many price observations are stored for the window.\r\n    // as granularity increases from 1, more frequent updates are needed, but moving averages become more precise.\r\n    // averages are computed over intervals with sizes in the range:\r\n    //   [windowSize - (windowSize / granularity) * 2, windowSize]\r\n    // e.g. if the window size is 24 hours, and the granularity is 24, the oracle will return the average price for\r\n    //   the period:\r\n    //   [now - [22 hours, 24 hours], now]\r\n    uint8 public immutable granularity;\r\n    // this is redundant with granularity and windowSize, but stored for gas savings & informational purposes.\r\n    uint public immutable periodSize;\r\n\r\n    // mapping from pair address to a list of price observations of that pair\r\n    mapping(address => Observation[]) public pairObservations;\r\n\r\n    constructor(address factory_, uint windowSize_, uint8 granularity_) public {\r\n        require(granularity_ > 1, 'SlidingWindowOracle: GRANULARITY');\r\n        require(\r\n            (periodSize = windowSize_ / granularity_) * granularity_ == windowSize_,\r\n            'SlidingWindowOracle: WINDOW_NOT_EVENLY_DIVISIBLE'\r\n        );\r\n        factory = factory_;\r\n        windowSize = windowSize_;\r\n        granularity = granularity_;\r\n    }\r\n\r\n    // returns the index of the observation corresponding to the given timestamp\r\n    function observationIndexOf(uint timestamp) public view returns (uint8 index) {\r\n        uint epochPeriod = timestamp / periodSize;\r\n        return uint8(epochPeriod % granularity);\r\n    }\r\n\r\n    // returns the observation from the oldest epoch (at the beginning of the window) relative to the current time\r\n    function getFirstObservationInWindow(address pair) private view returns (Observation storage firstObservation) {\r\n        uint8 observationIndex = observationIndexOf(block.timestamp);\r\n        // no overflow issue. if observationIndex + 1 overflows, result is still zero.\r\n        uint8 firstObservationIndex = (observationIndex + 1) % granularity;\r\n        firstObservation = pairObservations[pair][firstObservationIndex];\r\n    }\r\n\r\n    // update the cumulative price for the observation at the current timestamp. each observation is updated at most\r\n    // once per epoch period.\r\n    function update(address tokenA, address tokenB) external {\r\n        address pair = IgniLibrary.pairFor(factory, tokenA, tokenB);\r\n\r\n        // populate the array with empty observations (first call only)\r\n        for (uint i = pairObservations[pair].length; i < granularity; i++) {\r\n            pairObservations[pair].push();\r\n        }\r\n\r\n        // get the observation for the current period\r\n        uint8 observationIndex = observationIndexOf(block.timestamp);\r\n        Observation storage observation = pairObservations[pair][observationIndex];\r\n\r\n        // we only want to commit updates once per period (i.e. windowSize / granularity)\r\n        uint timeElapsed = block.timestamp - observation.timestamp;\r\n        if (timeElapsed > periodSize) {\r\n            (uint price0Cumulative, uint price1Cumulative,) = IgniOracleLibrary.currentCumulativePrices(pair);\r\n            observation.timestamp = block.timestamp;\r\n            observation.price0Cumulative = price0Cumulative;\r\n            observation.price1Cumulative = price1Cumulative;\r\n        }\r\n    }\r\n\r\n    // given the cumulative prices of the start and end of a period, and the length of the period, compute the average\r\n    // price in terms of how much amount out is received for the amount in\r\n    function computeAmountOut(\r\n        uint priceCumulativeStart, uint priceCumulativeEnd,\r\n        uint timeElapsed, uint amountIn\r\n    ) private pure returns (uint amountOut) {\r\n        // overflow is desired.\r\n        FixedPoint.uq112x112 memory priceAverage = FixedPoint.uq112x112(\r\n            uint224((priceCumulativeEnd - priceCumulativeStart) / timeElapsed)\r\n        );\r\n        amountOut = priceAverage.mul(amountIn).decode144();\r\n    }\r\n\r\n    // returns the amount out corresponding to the amount in for a given token using the moving average over the time\r\n    // range [now - [windowSize, windowSize - periodSize * 2], now]\r\n    // update must have been called for the bucket corresponding to timestamp `now - windowSize`\r\n    function consult(address tokenIn, uint amountIn, address tokenOut) external view returns (uint amountOut) {\r\n        address pair = IgniLibrary.pairFor(factory, tokenIn, tokenOut);\r\n        Observation storage firstObservation = getFirstObservationInWindow(pair);\r\n\r\n        uint timeElapsed = block.timestamp - firstObservation.timestamp;\r\n        require(timeElapsed <= windowSize, 'SlidingWindowOracle: MISSING_HISTORICAL_OBSERVATION');\r\n        // should never happen.\r\n        require(timeElapsed >= windowSize - periodSize * 2, 'SlidingWindowOracle: UNEXPECTED_TIME_ELAPSED');\r\n\r\n        (uint price0Cumulative, uint price1Cumulative,) = IgniOracleLibrary.currentCumulativePrices(pair);\r\n        (address token0,) = IgniLibrary.sortTokens(tokenIn, tokenOut);\r\n\r\n        if (token0 == tokenIn) {\r\n            return computeAmountOut(firstObservation.price0Cumulative, price0Cumulative, timeElapsed, amountIn);\r\n        } else {\r\n            return computeAmountOut(firstObservation.price1Cumulative, price1Cumulative, timeElapsed, amountIn);\r\n        }\r\n    }\r\n}\r\n",
  "sourcePath": "C:\\Users\\marcr\\OneDrive\\Escritorio\\Pancake\\igni-swap-periphery\\contracts\\examples\\ExampleSlidingWindowOracle.sol",
  "compiler": {
    "name": "solc",
    "version": "0.6.6+commit.6c089d02.Emscripten.clang"
  },
  "schemaVersion": "3.2.0",
  "updatedAt": "2021-02-28T18:14:32.029Z",
  "devdoc": {
    "methods": {}
  },
  "userdoc": {
    "methods": {}
  }
}