{
  "contractName": "IgniRouter01",
  "abi": [
    {
      "inputs": [
        {
          "internalType": "address",
          "name": "_factory",
          "type": "address"
        },
        {
          "internalType": "address",
          "name": "_WBNB",
          "type": "address"
        }
      ],
      "stateMutability": "nonpayable",
      "type": "constructor"
    },
    {
      "inputs": [],
      "name": "WBNB",
      "outputs": [
        {
          "internalType": "address",
          "name": "",
          "type": "address"
        }
      ],
      "stateMutability": "view",
      "type": "function"
    },
    {
      "inputs": [],
      "name": "factory",
      "outputs": [
        {
          "internalType": "address",
          "name": "",
          "type": "address"
        }
      ],
      "stateMutability": "view",
      "type": "function"
    },
    {
      "stateMutability": "payable",
      "type": "receive"
    },
    {
      "inputs": [
        {
          "internalType": "address",
          "name": "tokenA",
          "type": "address"
        },
        {
          "internalType": "address",
          "name": "tokenB",
          "type": "address"
        },
        {
          "internalType": "uint256",
          "name": "amountADesired",
          "type": "uint256"
        },
        {
          "internalType": "uint256",
          "name": "amountBDesired",
          "type": "uint256"
        },
        {
          "internalType": "uint256",
          "name": "amountAMin",
          "type": "uint256"
        },
        {
          "internalType": "uint256",
          "name": "amountBMin",
          "type": "uint256"
        },
        {
          "internalType": "address",
          "name": "to",
          "type": "address"
        },
        {
          "internalType": "uint256",
          "name": "deadline",
          "type": "uint256"
        }
      ],
      "name": "addLiquidity",
      "outputs": [
        {
          "internalType": "uint256",
          "name": "amountA",
          "type": "uint256"
        },
        {
          "internalType": "uint256",
          "name": "amountB",
          "type": "uint256"
        },
        {
          "internalType": "uint256",
          "name": "liquidity",
          "type": "uint256"
        }
      ],
      "stateMutability": "nonpayable",
      "type": "function"
    },
    {
      "inputs": [
        {
          "internalType": "address",
          "name": "token",
          "type": "address"
        },
        {
          "internalType": "uint256",
          "name": "amountTokenDesired",
          "type": "uint256"
        },
        {
          "internalType": "uint256",
          "name": "amountTokenMin",
          "type": "uint256"
        },
        {
          "internalType": "uint256",
          "name": "amountBNBMin",
          "type": "uint256"
        },
        {
          "internalType": "address",
          "name": "to",
          "type": "address"
        },
        {
          "internalType": "uint256",
          "name": "deadline",
          "type": "uint256"
        }
      ],
      "name": "addLiquidityBNB",
      "outputs": [
        {
          "internalType": "uint256",
          "name": "amountToken",
          "type": "uint256"
        },
        {
          "internalType": "uint256",
          "name": "amountBNB",
          "type": "uint256"
        },
        {
          "internalType": "uint256",
          "name": "liquidity",
          "type": "uint256"
        }
      ],
      "stateMutability": "payable",
      "type": "function"
    },
    {
      "inputs": [
        {
          "internalType": "address",
          "name": "tokenA",
          "type": "address"
        },
        {
          "internalType": "address",
          "name": "tokenB",
          "type": "address"
        },
        {
          "internalType": "uint256",
          "name": "liquidity",
          "type": "uint256"
        },
        {
          "internalType": "uint256",
          "name": "amountAMin",
          "type": "uint256"
        },
        {
          "internalType": "uint256",
          "name": "amountBMin",
          "type": "uint256"
        },
        {
          "internalType": "address",
          "name": "to",
          "type": "address"
        },
        {
          "internalType": "uint256",
          "name": "deadline",
          "type": "uint256"
        }
      ],
      "name": "removeLiquidity",
      "outputs": [
        {
          "internalType": "uint256",
          "name": "amountA",
          "type": "uint256"
        },
        {
          "internalType": "uint256",
          "name": "amountB",
          "type": "uint256"
        }
      ],
      "stateMutability": "nonpayable",
      "type": "function"
    },
    {
      "inputs": [
        {
          "internalType": "address",
          "name": "token",
          "type": "address"
        },
        {
          "internalType": "uint256",
          "name": "liquidity",
          "type": "uint256"
        },
        {
          "internalType": "uint256",
          "name": "amountTokenMin",
          "type": "uint256"
        },
        {
          "internalType": "uint256",
          "name": "amountBNBMin",
          "type": "uint256"
        },
        {
          "internalType": "address",
          "name": "to",
          "type": "address"
        },
        {
          "internalType": "uint256",
          "name": "deadline",
          "type": "uint256"
        }
      ],
      "name": "removeLiquidityBNB",
      "outputs": [
        {
          "internalType": "uint256",
          "name": "amountToken",
          "type": "uint256"
        },
        {
          "internalType": "uint256",
          "name": "amountBNB",
          "type": "uint256"
        }
      ],
      "stateMutability": "nonpayable",
      "type": "function"
    },
    {
      "inputs": [
        {
          "internalType": "address",
          "name": "tokenA",
          "type": "address"
        },
        {
          "internalType": "address",
          "name": "tokenB",
          "type": "address"
        },
        {
          "internalType": "uint256",
          "name": "liquidity",
          "type": "uint256"
        },
        {
          "internalType": "uint256",
          "name": "amountAMin",
          "type": "uint256"
        },
        {
          "internalType": "uint256",
          "name": "amountBMin",
          "type": "uint256"
        },
        {
          "internalType": "address",
          "name": "to",
          "type": "address"
        },
        {
          "internalType": "uint256",
          "name": "deadline",
          "type": "uint256"
        },
        {
          "internalType": "bool",
          "name": "approveMax",
          "type": "bool"
        },
        {
          "internalType": "uint8",
          "name": "v",
          "type": "uint8"
        },
        {
          "internalType": "bytes32",
          "name": "r",
          "type": "bytes32"
        },
        {
          "internalType": "bytes32",
          "name": "s",
          "type": "bytes32"
        }
      ],
      "name": "removeLiquidityWithPermit",
      "outputs": [
        {
          "internalType": "uint256",
          "name": "amountA",
          "type": "uint256"
        },
        {
          "internalType": "uint256",
          "name": "amountB",
          "type": "uint256"
        }
      ],
      "stateMutability": "nonpayable",
      "type": "function"
    },
    {
      "inputs": [
        {
          "internalType": "address",
          "name": "token",
          "type": "address"
        },
        {
          "internalType": "uint256",
          "name": "liquidity",
          "type": "uint256"
        },
        {
          "internalType": "uint256",
          "name": "amountTokenMin",
          "type": "uint256"
        },
        {
          "internalType": "uint256",
          "name": "amountBNBMin",
          "type": "uint256"
        },
        {
          "internalType": "address",
          "name": "to",
          "type": "address"
        },
        {
          "internalType": "uint256",
          "name": "deadline",
          "type": "uint256"
        },
        {
          "internalType": "bool",
          "name": "approveMax",
          "type": "bool"
        },
        {
          "internalType": "uint8",
          "name": "v",
          "type": "uint8"
        },
        {
          "internalType": "bytes32",
          "name": "r",
          "type": "bytes32"
        },
        {
          "internalType": "bytes32",
          "name": "s",
          "type": "bytes32"
        }
      ],
      "name": "removeLiquidityBNBWithPermit",
      "outputs": [
        {
          "internalType": "uint256",
          "name": "amountToken",
          "type": "uint256"
        },
        {
          "internalType": "uint256",
          "name": "amountBNB",
          "type": "uint256"
        }
      ],
      "stateMutability": "nonpayable",
      "type": "function"
    },
    {
      "inputs": [
        {
          "internalType": "uint256",
          "name": "amountIn",
          "type": "uint256"
        },
        {
          "internalType": "uint256",
          "name": "amountOutMin",
          "type": "uint256"
        },
        {
          "internalType": "address[]",
          "name": "path",
          "type": "address[]"
        },
        {
          "internalType": "address",
          "name": "to",
          "type": "address"
        },
        {
          "internalType": "uint256",
          "name": "deadline",
          "type": "uint256"
        }
      ],
      "name": "swapExactTokensForTokens",
      "outputs": [
        {
          "internalType": "uint256[]",
          "name": "amounts",
          "type": "uint256[]"
        }
      ],
      "stateMutability": "nonpayable",
      "type": "function"
    },
    {
      "inputs": [
        {
          "internalType": "uint256",
          "name": "amountOut",
          "type": "uint256"
        },
        {
          "internalType": "uint256",
          "name": "amountInMax",
          "type": "uint256"
        },
        {
          "internalType": "address[]",
          "name": "path",
          "type": "address[]"
        },
        {
          "internalType": "address",
          "name": "to",
          "type": "address"
        },
        {
          "internalType": "uint256",
          "name": "deadline",
          "type": "uint256"
        }
      ],
      "name": "swapTokensForExactTokens",
      "outputs": [
        {
          "internalType": "uint256[]",
          "name": "amounts",
          "type": "uint256[]"
        }
      ],
      "stateMutability": "nonpayable",
      "type": "function"
    },
    {
      "inputs": [
        {
          "internalType": "uint256",
          "name": "amountOutMin",
          "type": "uint256"
        },
        {
          "internalType": "address[]",
          "name": "path",
          "type": "address[]"
        },
        {
          "internalType": "address",
          "name": "to",
          "type": "address"
        },
        {
          "internalType": "uint256",
          "name": "deadline",
          "type": "uint256"
        }
      ],
      "name": "swapExactBNBForTokens",
      "outputs": [
        {
          "internalType": "uint256[]",
          "name": "amounts",
          "type": "uint256[]"
        }
      ],
      "stateMutability": "payable",
      "type": "function"
    },
    {
      "inputs": [
        {
          "internalType": "uint256",
          "name": "amountOut",
          "type": "uint256"
        },
        {
          "internalType": "uint256",
          "name": "amountInMax",
          "type": "uint256"
        },
        {
          "internalType": "address[]",
          "name": "path",
          "type": "address[]"
        },
        {
          "internalType": "address",
          "name": "to",
          "type": "address"
        },
        {
          "internalType": "uint256",
          "name": "deadline",
          "type": "uint256"
        }
      ],
      "name": "swapTokensForExactBNB",
      "outputs": [
        {
          "internalType": "uint256[]",
          "name": "amounts",
          "type": "uint256[]"
        }
      ],
      "stateMutability": "nonpayable",
      "type": "function"
    },
    {
      "inputs": [
        {
          "internalType": "uint256",
          "name": "amountIn",
          "type": "uint256"
        },
        {
          "internalType": "uint256",
          "name": "amountOutMin",
          "type": "uint256"
        },
        {
          "internalType": "address[]",
          "name": "path",
          "type": "address[]"
        },
        {
          "internalType": "address",
          "name": "to",
          "type": "address"
        },
        {
          "internalType": "uint256",
          "name": "deadline",
          "type": "uint256"
        }
      ],
      "name": "swapExactTokensForBNB",
      "outputs": [
        {
          "internalType": "uint256[]",
          "name": "amounts",
          "type": "uint256[]"
        }
      ],
      "stateMutability": "nonpayable",
      "type": "function"
    },
    {
      "inputs": [
        {
          "internalType": "uint256",
          "name": "amountOut",
          "type": "uint256"
        },
        {
          "internalType": "address[]",
          "name": "path",
          "type": "address[]"
        },
        {
          "internalType": "address",
          "name": "to",
          "type": "address"
        },
        {
          "internalType": "uint256",
          "name": "deadline",
          "type": "uint256"
        }
      ],
      "name": "swapBNBForExactTokens",
      "outputs": [
        {
          "internalType": "uint256[]",
          "name": "amounts",
          "type": "uint256[]"
        }
      ],
      "stateMutability": "payable",
      "type": "function"
    },
    {
      "inputs": [
        {
          "internalType": "uint256",
          "name": "amountA",
          "type": "uint256"
        },
        {
          "internalType": "uint256",
          "name": "reserveA",
          "type": "uint256"
        },
        {
          "internalType": "uint256",
          "name": "reserveB",
          "type": "uint256"
        }
      ],
      "name": "quote",
      "outputs": [
        {
          "internalType": "uint256",
          "name": "amountB",
          "type": "uint256"
        }
      ],
      "stateMutability": "pure",
      "type": "function"
    },
    {
      "inputs": [
        {
          "internalType": "uint256",
          "name": "amountIn",
          "type": "uint256"
        },
        {
          "internalType": "uint256",
          "name": "reserveIn",
          "type": "uint256"
        },
        {
          "internalType": "uint256",
          "name": "reserveOut",
          "type": "uint256"
        }
      ],
      "name": "getAmountOut",
      "outputs": [
        {
          "internalType": "uint256",
          "name": "amountOut",
          "type": "uint256"
        }
      ],
      "stateMutability": "pure",
      "type": "function"
    },
    {
      "inputs": [
        {
          "internalType": "uint256",
          "name": "amountOut",
          "type": "uint256"
        },
        {
          "internalType": "uint256",
          "name": "reserveIn",
          "type": "uint256"
        },
        {
          "internalType": "uint256",
          "name": "reserveOut",
          "type": "uint256"
        }
      ],
      "name": "getAmountIn",
      "outputs": [
        {
          "internalType": "uint256",
          "name": "amountIn",
          "type": "uint256"
        }
      ],
      "stateMutability": "pure",
      "type": "function"
    },
    {
      "inputs": [
        {
          "internalType": "uint256",
          "name": "amountIn",
          "type": "uint256"
        },
        {
          "internalType": "address[]",
          "name": "path",
          "type": "address[]"
        }
      ],
      "name": "getAmountsOut",
      "outputs": [
        {
          "internalType": "uint256[]",
          "name": "amounts",
          "type": "uint256[]"
        }
      ],
      "stateMutability": "view",
      "type": "function"
    },
    {
      "inputs": [
        {
          "internalType": "uint256",
          "name": "amountOut",
          "type": "uint256"
        },
        {
          "internalType": "address[]",
          "name": "path",
          "type": "address[]"
        }
      ],
      "name": "getAmountsIn",
      "outputs": [
        {
          "internalType": "uint256[]",
          "name": "amounts",
          "type": "uint256[]"
        }
      ],
      "stateMutability": "view",
      "type": "function"
    }
  ],
  "bytecode": "0x60c060405234801561001057600080fd5b5060405162004181380380620041818339818101604052604081101561003557600080fd5b5080516020909101516001600160601b0319606092831b8116608052911b1660a05260805160601c60a05160601c6140426200013f600039806101655280610c5f5280611065528061127352806113a8528061155852806115ed52806118f8528061198e5280611b415280611bd652806121215280612354528061238f5280612638528061268e52806126c25280612743525080610ac65280610aff5280610c3d5280610e025280610f005280611157528061148e528061162c528061182e5280611a745280611c155280611db752806120495280612072528061221352806124bd528061266c528061308552806130c8528061381352806138f4528061397452506140426000f3fe6080604052600436106101485760003560e01c80638dd95002116100c0578063d06ca61f11610074578063e058848811610059578063e05884881461096a578063e8e33700146109ca578063eaaed44214610a575761018e565b8063d06ca61f1461080e578063d67b571e146108c55761018e565b8063ad615dec116100a5578063ad615dec14610759578063baa2abde1461078f578063c45a0155146107f95761018e565b80638dd95002146106885780639cf68911146106c65761018e565b806338ed1739116101175780638332a963116100fc5780638332a9631461055057806385f8c259146101935780638803dbee146105e35761018e565b806338ed1739146104065780635d616c5b146104ab5761018e565b8063054d50d4146101935780631f00ca74146101db5780632195995c146102e257806334a0772d146103865761018e565b3661018e573373ffffffffffffffffffffffffffffffffffffffff7f0000000000000000000000000000000000000000000000000000000000000000161461018c57fe5b005b600080fd5b34801561019f57600080fd5b506101c9600480360360608110156101b657600080fd5b5080359060208101359060400135610aaa565b60408051918252519081900360200190f35b3480156101e757600080fd5b50610292600480360360408110156101fe57600080fd5b8135919081019060408101602082013564010000000081111561022057600080fd5b82018360208201111561023257600080fd5b8035906020019184602083028401116401000000008311171561025457600080fd5b919080806020026020016040519081016040528093929190818152602001838360200280828437600092019190915250929550610abf945050505050565b60408051602080825283518183015283519192839290830191858101910280838360005b838110156102ce5781810151838201526020016102b6565b505050509050019250505060405180910390f35b3480156102ee57600080fd5b5061036d600480360361016081101561030657600080fd5b5073ffffffffffffffffffffffffffffffffffffffff8135811691602081013582169160408201359160608101359160808201359160a08101359091169060c08101359060e081013515159060ff6101008201351690610120810135906101400135610af5565b6040805192835260208301919091528051918290030190f35b34801561039257600080fd5b5061036d60048036036101408110156103aa57600080fd5b5073ffffffffffffffffffffffffffffffffffffffff81358116916020810135916040820135916060810135916080820135169060a08101359060c081013515159060ff60e08201351690610100810135906101200135610c33565b34801561041257600080fd5b50610292600480360360a081101561042957600080fd5b81359160208101359181019060608101604082013564010000000081111561045057600080fd5b82018360208201111561046257600080fd5b8035906020019184602083028401116401000000008311171561048457600080fd5b919350915073ffffffffffffffffffffffffffffffffffffffff8135169060200135610d8b565b3480156104b757600080fd5b50610292600480360360a08110156104ce57600080fd5b8135916020810135918101906060810160408201356401000000008111156104f557600080fd5b82018360208201111561050757600080fd5b8035906020019184602083028401116401000000008311171561052957600080fd5b919350915073ffffffffffffffffffffffffffffffffffffffff8135169060200135610fdc565b6102926004803603608081101561056657600080fd5b8135919081019060408101602082013564010000000081111561058857600080fd5b82018360208201111561059a57600080fd5b803590602001918460208302840111640100000000831117156105bc57600080fd5b919350915073ffffffffffffffffffffffffffffffffffffffff8135169060200135611334565b3480156105ef57600080fd5b50610292600480360360a081101561060657600080fd5b81359160208101359181019060608101604082013564010000000081111561062d57600080fd5b82018360208201111561063f57600080fd5b8035906020019184602083028401116401000000008311171561066157600080fd5b919350915073ffffffffffffffffffffffffffffffffffffffff81351690602001356117b7565b34801561069457600080fd5b5061069d6118f6565b6040805173ffffffffffffffffffffffffffffffffffffffff9092168252519081900360200190f35b610292600480360360808110156106dc57600080fd5b813591908101906040810160208201356401000000008111156106fe57600080fd5b82018360208201111561071057600080fd5b8035906020019184602083028401116401000000008311171561073257600080fd5b919350915073ffffffffffffffffffffffffffffffffffffffff813516906020013561191a565b34801561076557600080fd5b506101c96004803603606081101561077c57600080fd5b5080359060208101359060400135611d30565b34801561079b57600080fd5b5061036d600480360360e08110156107b257600080fd5b5073ffffffffffffffffffffffffffffffffffffffff8135811691602081013582169160408201359160608101359160808201359160a08101359091169060c00135611d3d565b34801561080557600080fd5b5061069d612047565b34801561081a57600080fd5b506102926004803603604081101561083157600080fd5b8135919081019060408101602082013564010000000081111561085357600080fd5b82018360208201111561086557600080fd5b8035906020019184602083028401116401000000008311171561088757600080fd5b91908080602002602001604051908101604052809392919081815260200183836020028082843760009201919091525092955061206b945050505050565b3480156108d157600080fd5b50610292600480360360a08110156108e857600080fd5b81359160208101359181019060608101604082013564010000000081111561090f57600080fd5b82018360208201111561092157600080fd5b8035906020019184602083028401116401000000008311171561094357600080fd5b919350915073ffffffffffffffffffffffffffffffffffffffff8135169060200135612098565b34801561097657600080fd5b5061036d600480360360c081101561098d57600080fd5b5073ffffffffffffffffffffffffffffffffffffffff81358116916020810135916040820135916060810135916080820135169060a001356122db565b3480156109d657600080fd5b50610a3960048036036101008110156109ee57600080fd5b5073ffffffffffffffffffffffffffffffffffffffff8135811691602081013582169160408201359160608101359160808201359160a08101359160c0820135169060e0013561242e565b60408051938452602084019290925282820152519081900360600190f35b610a39600480360360c0811015610a6d57600080fd5b5073ffffffffffffffffffffffffffffffffffffffff81358116916020810135916040820135916060810135916080820135169060a001356125bd565b6000610ab78484846128e9565b949350505050565b6060610aec7f00000000000000000000000000000000000000000000000000000000000000008484612a0d565b90505b92915050565b6000806000610b257f00000000000000000000000000000000000000000000000000000000000000008f8f612bb0565b9050600087610b34578c610b56565b7fffffffffffffffffffffffffffffffffffffffffffffffffffffffffffffffff5b604080517fd505accf00000000000000000000000000000000000000000000000000000000815233600482015230602482015260448101839052606481018c905260ff8a16608482015260a4810189905260c48101889052905191925073ffffffffffffffffffffffffffffffffffffffff84169163d505accf9160e48082019260009290919082900301818387803b158015610bf257600080fd5b505af1158015610c06573d6000803e3d6000fd5b50505050610c198f8f8f8f8f8f8f611d3d565b809450819550505050509b509b9950505050505050505050565b6000806000610c837f00000000000000000000000000000000000000000000000000000000000000008e7f0000000000000000000000000000000000000000000000000000000000000000612bb0565b9050600087610c92578c610cb4565b7fffffffffffffffffffffffffffffffffffffffffffffffffffffffffffffffff5b604080517fd505accf00000000000000000000000000000000000000000000000000000000815233600482015230602482015260448101839052606481018c905260ff8a16608482015260a4810189905260c48101889052905191925073ffffffffffffffffffffffffffffffffffffffff84169163d505accf9160e48082019260009290919082900301818387803b158015610d5057600080fd5b505af1158015610d64573d6000803e3d6000fd5b50505050610d768e8e8e8e8e8e6122db565b909f909e509c50505050505050505050505050565b60608142811015610dfd57604080517f08c379a000000000000000000000000000000000000000000000000000000000815260206004820152601360248201527f49676e69526f757465723a204558504952454400000000000000000000000000604482015290519081900360640190fd5b610e5b7f000000000000000000000000000000000000000000000000000000000000000089888880806020026020016040519081016040528093929190818152602001838360200280828437600092019190915250612c9b92505050565b91508682600184510381518110610e6e57fe5b60200260200101511015610ecd576040517f08c379a0000000000000000000000000000000000000000000000000000000008152600401808060200182810382526026815260200180613ed16026913960400191505060405180910390fd5b610f9286866000818110610edd57fe5b9050602002013573ffffffffffffffffffffffffffffffffffffffff1633610f787f00000000000000000000000000000000000000000000000000000000000000008a8a6000818110610f2c57fe5b9050602002013573ffffffffffffffffffffffffffffffffffffffff168b8b6001818110610f5657fe5b9050602002013573ffffffffffffffffffffffffffffffffffffffff16612bb0565b85600081518110610f8557fe5b6020026020010151612dec565b610fd182878780806020026020016040519081016040528093929190818152602001838360200280828437600092019190915250899250612fbc915050565b509695505050505050565b6060814281101561104e57604080517f08c379a000000000000000000000000000000000000000000000000000000000815260206004820152601360248201527f49676e69526f757465723a204558504952454400000000000000000000000000604482015290519081900360640190fd5b73ffffffffffffffffffffffffffffffffffffffff7f00000000000000000000000000000000000000000000000000000000000000001686867fffffffffffffffffffffffffffffffffffffffffffffffffffffffffffffffff81018181106110b357fe5b9050602002013573ffffffffffffffffffffffffffffffffffffffff1673ffffffffffffffffffffffffffffffffffffffff161461115257604080517f08c379a000000000000000000000000000000000000000000000000000000000815260206004820152601860248201527f49676e69526f757465723a20494e56414c49445f504154480000000000000000604482015290519081900360640190fd5b6111b07f000000000000000000000000000000000000000000000000000000000000000089888880806020026020016040519081016040528093929190818152602001838360200280828437600092019190915250612c9b92505050565b915086826001845103815181106111c357fe5b60200260200101511015611222576040517f08c379a0000000000000000000000000000000000000000000000000000000008152600401808060200182810382526026815260200180613ed16026913960400191505060405180910390fd5b61123286866000818110610edd57fe5b61127182878780806020026020016040519081016040528093929190818152602001838360200280828437600092019190915250309250612fbc915050565b7f000000000000000000000000000000000000000000000000000000000000000073ffffffffffffffffffffffffffffffffffffffff16632e1a7d4d836001855103815181106112bd57fe5b60200260200101516040518263ffffffff1660e01b815260040180828152602001915050600060405180830381600087803b1580156112fb57600080fd5b505af115801561130f573d6000803e3d6000fd5b50505050610fd1848360018551038151811061132757fe5b6020026020010151613243565b606081428110156113a657604080517f08c379a000000000000000000000000000000000000000000000000000000000815260206004820152601360248201527f49676e69526f757465723a204558504952454400000000000000000000000000604482015290519081900360640190fd5b7f000000000000000000000000000000000000000000000000000000000000000073ffffffffffffffffffffffffffffffffffffffff16868660008181106113ea57fe5b9050602002013573ffffffffffffffffffffffffffffffffffffffff1673ffffffffffffffffffffffffffffffffffffffff161461148957604080517f08c379a000000000000000000000000000000000000000000000000000000000815260206004820152601860248201527f49676e69526f757465723a20494e56414c49445f504154480000000000000000604482015290519081900360640190fd5b6114e77f000000000000000000000000000000000000000000000000000000000000000088888880806020026020016040519081016040528093929190818152602001838360200280828437600092019190915250612a0d92505050565b915034826000815181106114f757fe5b60200260200101511115611556576040517f08c379a0000000000000000000000000000000000000000000000000000000008152600401808060200182810382526022815260200180613fc76022913960400191505060405180910390fd5b7f000000000000000000000000000000000000000000000000000000000000000073ffffffffffffffffffffffffffffffffffffffff1663d0e30db08360008151811061159f57fe5b60200260200101516040518263ffffffff1660e01b81526004016000604051808303818588803b1580156115d257600080fd5b505af11580156115e6573d6000803e3d6000fd5b50505050507f000000000000000000000000000000000000000000000000000000000000000073ffffffffffffffffffffffffffffffffffffffff1663a9059cbb6116827f00000000000000000000000000000000000000000000000000000000000000008989600081811061165857fe5b9050602002013573ffffffffffffffffffffffffffffffffffffffff168a8a6001818110610f5657fe5b8460008151811061168f57fe5b60200260200101516040518363ffffffff1660e01b8152600401808373ffffffffffffffffffffffffffffffffffffffff1673ffffffffffffffffffffffffffffffffffffffff16815260200182815260200192505050602060405180830381600087803b15801561170057600080fd5b505af1158015611714573d6000803e3d6000fd5b505050506040513d602081101561172a57600080fd5b505161173257fe5b61177182878780806020026020016040519081016040528093929190818152602001838360200280828437600092019190915250899250612fbc915050565b8160008151811061177e57fe5b60200260200101513411156117ad576117ad338360008151811061179e57fe5b60200260200101513403613243565b5095945050505050565b6060814281101561182957604080517f08c379a000000000000000000000000000000000000000000000000000000000815260206004820152601360248201527f49676e69526f757465723a204558504952454400000000000000000000000000604482015290519081900360640190fd5b6118877f000000000000000000000000000000000000000000000000000000000000000089888880806020026020016040519081016040528093929190818152602001838360200280828437600092019190915250612a0d92505050565b9150868260008151811061189757fe5b60200260200101511115610ecd576040517f08c379a0000000000000000000000000000000000000000000000000000000008152600401808060200182810382526022815260200180613fc76022913960400191505060405180910390fd5b7f000000000000000000000000000000000000000000000000000000000000000081565b6060814281101561198c57604080517f08c379a000000000000000000000000000000000000000000000000000000000815260206004820152601360248201527f49676e69526f757465723a204558504952454400000000000000000000000000604482015290519081900360640190fd5b7f000000000000000000000000000000000000000000000000000000000000000073ffffffffffffffffffffffffffffffffffffffff16868660008181106119d057fe5b9050602002013573ffffffffffffffffffffffffffffffffffffffff1673ffffffffffffffffffffffffffffffffffffffff1614611a6f57604080517f08c379a000000000000000000000000000000000000000000000000000000000815260206004820152601860248201527f49676e69526f757465723a20494e56414c49445f504154480000000000000000604482015290519081900360640190fd5b611acd7f000000000000000000000000000000000000000000000000000000000000000034888880806020026020016040519081016040528093929190818152602001838360200280828437600092019190915250612c9b92505050565b91508682600184510381518110611ae057fe5b60200260200101511015611b3f576040517f08c379a0000000000000000000000000000000000000000000000000000000008152600401808060200182810382526026815260200180613ed16026913960400191505060405180910390fd5b7f000000000000000000000000000000000000000000000000000000000000000073ffffffffffffffffffffffffffffffffffffffff1663d0e30db083600081518110611b8857fe5b60200260200101516040518263ffffffff1660e01b81526004016000604051808303818588803b158015611bbb57600080fd5b505af1158015611bcf573d6000803e3d6000fd5b50505050507f000000000000000000000000000000000000000000000000000000000000000073ffffffffffffffffffffffffffffffffffffffff1663a9059cbb611c417f00000000000000000000000000000000000000000000000000000000000000008989600081811061165857fe5b84600081518110611c4e57fe5b60200260200101516040518363ffffffff1660e01b8152600401808373ffffffffffffffffffffffffffffffffffffffff1673ffffffffffffffffffffffffffffffffffffffff16815260200182815260200192505050602060405180830381600087803b158015611cbf57600080fd5b505af1158015611cd3573d6000803e3d6000fd5b505050506040513d6020811015611ce957600080fd5b5051611cf157fe5b6117ad82878780806020026020016040519081016040528093929190818152602001838360200280828437600092019190915250899250612fbc915050565b6000610ab7848484613380565b6000808242811015611db057604080517f08c379a000000000000000000000000000000000000000000000000000000000815260206004820152601360248201527f49676e69526f757465723a204558504952454400000000000000000000000000604482015290519081900360640190fd5b6000611ddd7f00000000000000000000000000000000000000000000000000000000000000008c8c612bb0565b604080517f23b872dd00000000000000000000000000000000000000000000000000000000815233600482015273ffffffffffffffffffffffffffffffffffffffff831660248201819052604482018d9052915192935090916323b872dd916064808201926020929091908290030181600087803b158015611e5e57600080fd5b505af1158015611e72573d6000803e3d6000fd5b505050506040513d6020811015611e8857600080fd5b5050604080517f89afcb4400000000000000000000000000000000000000000000000000000000815273ffffffffffffffffffffffffffffffffffffffff888116600483015282516000938493928616926389afcb44926024808301939282900301818787803b158015611efb57600080fd5b505af1158015611f0f573d6000803e3d6000fd5b505050506040513d6040811015611f2557600080fd5b50805160209091015190925090506000611f3f8e8e613476565b5090508073ffffffffffffffffffffffffffffffffffffffff168e73ffffffffffffffffffffffffffffffffffffffff1614611f7c578183611f7f565b82825b90975095508a871015611fdd576040517f08c379a0000000000000000000000000000000000000000000000000000000008152600401808060200182810382526021815260200180613f606021913960400191505060405180910390fd5b89861015612036576040517f08c379a0000000000000000000000000000000000000000000000000000000008152600401808060200182810382526021815260200180613ef76021913960400191505060405180910390fd5b505050505097509795505050505050565b7f000000000000000000000000000000000000000000000000000000000000000081565b6060610aec7f00000000000000000000000000000000000000000000000000000000000000008484612c9b565b6060814281101561210a57604080517f08c379a000000000000000000000000000000000000000000000000000000000815260206004820152601360248201527f49676e69526f757465723a204558504952454400000000000000000000000000604482015290519081900360640190fd5b73ffffffffffffffffffffffffffffffffffffffff7f00000000000000000000000000000000000000000000000000000000000000001686867fffffffffffffffffffffffffffffffffffffffffffffffffffffffffffffffff810181811061216f57fe5b9050602002013573ffffffffffffffffffffffffffffffffffffffff1673ffffffffffffffffffffffffffffffffffffffff161461220e57604080517f08c379a000000000000000000000000000000000000000000000000000000000815260206004820152601860248201527f49676e69526f757465723a20494e56414c49445f504154480000000000000000604482015290519081900360640190fd5b61226c7f000000000000000000000000000000000000000000000000000000000000000089888880806020026020016040519081016040528093929190818152602001838360200280828437600092019190915250612a0d92505050565b9150868260008151811061227c57fe5b60200260200101511115611222576040517f08c379a0000000000000000000000000000000000000000000000000000000008152600401808060200182810382526022815260200180613fc76022913960400191505060405180910390fd5b600080824281101561234e57604080517f08c379a000000000000000000000000000000000000000000000000000000000815260206004820152601360248201527f49676e69526f757465723a204558504952454400000000000000000000000000604482015290519081900360640190fd5b61237d897f00000000000000000000000000000000000000000000000000000000000000008a8a8a308a611d3d565b909350915061238d8986856135df565b7f000000000000000000000000000000000000000000000000000000000000000073ffffffffffffffffffffffffffffffffffffffff16632e1a7d4d836040518263ffffffff1660e01b815260040180828152602001915050600060405180830381600087803b15801561240057600080fd5b505af1158015612414573d6000803e3d6000fd5b505050506124228583613243565b50965096945050505050565b600080600083428110156124a357604080517f08c379a000000000000000000000000000000000000000000000000000000000815260206004820152601360248201527f49676e69526f757465723a204558504952454400000000000000000000000000604482015290519081900360640190fd5b6124b18c8c8c8c8c8c6137bc565b909450925060006124e37f00000000000000000000000000000000000000000000000000000000000000008e8e612bb0565b90506124f18d338388612dec565b6124fd8c338387612dec565b8073ffffffffffffffffffffffffffffffffffffffff16636a627842886040518263ffffffff1660e01b8152600401808273ffffffffffffffffffffffffffffffffffffffff1673ffffffffffffffffffffffffffffffffffffffff168152602001915050602060405180830381600087803b15801561257c57600080fd5b505af1158015612590573d6000803e3d6000fd5b505050506040513d60208110156125a657600080fd5b5051949d939c50939a509198505050505050505050565b6000806000834281101561263257604080517f08c379a000000000000000000000000000000000000000000000000000000000815260206004820152601360248201527f49676e69526f757465723a204558504952454400000000000000000000000000604482015290519081900360640190fd5b6126608a7f00000000000000000000000000000000000000000000000000000000000000008b348c8c6137bc565b909450925060006126b27f00000000000000000000000000000000000000000000000000000000000000008c7f0000000000000000000000000000000000000000000000000000000000000000612bb0565b90506126c08b338388612dec565b7f000000000000000000000000000000000000000000000000000000000000000073ffffffffffffffffffffffffffffffffffffffff1663d0e30db0856040518263ffffffff1660e01b81526004016000604051808303818588803b15801561272857600080fd5b505af115801561273c573d6000803e3d6000fd5b50505050507f000000000000000000000000000000000000000000000000000000000000000073ffffffffffffffffffffffffffffffffffffffff1663a9059cbb82866040518363ffffffff1660e01b8152600401808373ffffffffffffffffffffffffffffffffffffffff1673ffffffffffffffffffffffffffffffffffffffff16815260200182815260200192505050602060405180830381600087803b1580156127e857600080fd5b505af11580156127fc573d6000803e3d6000fd5b505050506040513d602081101561281257600080fd5b505161281a57fe5b8073ffffffffffffffffffffffffffffffffffffffff16636a627842886040518263ffffffff1660e01b8152600401808273ffffffffffffffffffffffffffffffffffffffff1673ffffffffffffffffffffffffffffffffffffffff168152602001915050602060405180830381600087803b15801561289957600080fd5b505af11580156128ad573d6000803e3d6000fd5b505050506040513d60208110156128c357600080fd5b50519250348410156128db576128db33853403613243565b505096509650969350505050565b6000808411612943576040517f08c379a0000000000000000000000000000000000000000000000000000000008152600401808060200182810382526026815260200180613eab6026913960400191505060405180910390fd5b6000831180156129535750600082115b6129a8576040517f08c379a0000000000000000000000000000000000000000000000000000000008152600401808060200182810382526023815260200180613f816023913960400191505060405180910390fd5b60006129bc856103e463ffffffff613abd16565b905060006129d0828563ffffffff613abd16565b905060006129f6836129ea886103e863ffffffff613abd16565b9063ffffffff613b3016565b9050808281612a0157fe5b04979650505050505050565b6060600282511015612a8057604080517f08c379a000000000000000000000000000000000000000000000000000000000815260206004820152601960248201527f49676e694c6962726172793a20494e56414c49445f5041544800000000000000604482015290519081900360640190fd5b815167ffffffffffffffff81118015612a9857600080fd5b50604051908082528060200260200182016040528015612ac2578160200160208202803683370190505b5090508281600183510381518110612ad657fe5b602090810291909101015281517fffffffffffffffffffffffffffffffffffffffffffffffffffffffffffffffff015b8015612ba857600080612b4387866001860381518110612b2257fe5b6020026020010151878681518110612b3657fe5b6020026020010151613ba4565b91509150612b65848481518110612b5657fe5b60200260200101518383613c98565b846001850381518110612b7457fe5b602090810291909101015250507fffffffffffffffffffffffffffffffffffffffffffffffffffffffffffffffff01612b06565b509392505050565b6000806000612bbf8585613476565b604080517fffffffffffffffffffffffffffffffffffffffff000000000000000000000000606094851b811660208084019190915293851b81166034830152825160288184030181526048830184528051908501207fff0000000000000000000000000000000000000000000000000000000000000060688401529a90941b9093166069840152607d8301989098527f10e34a561ae3dcbd7ec208b62f6ee05dd61c653d225a8bcb3c231eda14dcdf9f609d808401919091528851808403909101815260bd909201909752805196019590952095945050505050565b6060600282511015612d0e57604080517f08c379a000000000000000000000000000000000000000000000000000000000815260206004820152601960248201527f49676e694c6962726172793a20494e56414c49445f5041544800000000000000604482015290519081900360640190fd5b815167ffffffffffffffff81118015612d2657600080fd5b50604051908082528060200260200182016040528015612d50578160200160208202803683370190505b5090508281600081518110612d6157fe5b60200260200101818152505060005b6001835103811015612ba857600080612da687868581518110612d8f57fe5b6020026020010151878660010181518110612b3657fe5b91509150612dc8848481518110612db957fe5b602002602001015183836128e9565b848460010181518110612dd757fe5b60209081029190910101525050600101612d70565b6040805173ffffffffffffffffffffffffffffffffffffffff85811660248301528481166044830152606480830185905283518084039091018152608490920183526020820180517bffffffffffffffffffffffffffffffffffffffffffffffffffffffff167f23b872dd0000000000000000000000000000000000000000000000000000000017815292518251600094606094938a169392918291908083835b60208310612eca57805182527fffffffffffffffffffffffffffffffffffffffffffffffffffffffffffffffe09092019160209182019101612e8d565b6001836020036101000a0380198251168184511680821785525050505050509050019150506000604051808303816000865af19150503d8060008114612f2c576040519150601f19603f3d011682016040523d82523d6000602084013e612f31565b606091505b5091509150818015612f5f575080511580612f5f5750808060200190516020811015612f5c57600080fd5b50515b612fb4576040517f08c379a0000000000000000000000000000000000000000000000000000000008152600401808060200182810382526024815260200180613fe96024913960400191505060405180910390fd5b505050505050565b60005b600183510381101561323d57600080848381518110612fda57fe5b6020026020010151858460010181518110612ff157fe5b60200260200101519150915060006130098383613476565b509050600087856001018151811061301d57fe5b602002602001015190506000808373ffffffffffffffffffffffffffffffffffffffff168673ffffffffffffffffffffffffffffffffffffffff161461306557826000613069565b6000835b91509150600060028a5103881061308057886130c1565b6130c17f0000000000000000000000000000000000000000000000000000000000000000878c8b600201815181106130b457fe5b6020026020010151612bb0565b90506130ee7f00000000000000000000000000000000000000000000000000000000000000008888612bb0565b73ffffffffffffffffffffffffffffffffffffffff1663022c0d9f84848460006040519080825280601f01601f191660200182016040528015613138576020820181803683370190505b506040518563ffffffff1660e01b8152600401808581526020018481526020018373ffffffffffffffffffffffffffffffffffffffff1673ffffffffffffffffffffffffffffffffffffffff16815260200180602001828103825283818151815260200191508051906020019080838360005b838110156131c35781810151838201526020016131ab565b50505050905090810190601f1680156131f05780820380516001836020036101000a031916815260200191505b5095505050505050600060405180830381600087803b15801561321257600080fd5b505af1158015613226573d6000803e3d6000fd5b505060019099019850612fbf975050505050505050565b50505050565b6040805160008082526020820190925273ffffffffffffffffffffffffffffffffffffffff84169083906040518082805190602001908083835b602083106132ba57805182527fffffffffffffffffffffffffffffffffffffffffffffffffffffffffffffffe0909201916020918201910161327d565b6001836020036101000a03801982511681845116808217855250505050505090500191505060006040518083038185875af1925050503d806000811461331c576040519150601f19603f3d011682016040523d82523d6000602084013e613321565b606091505b505090508061337b576040517f08c379a0000000000000000000000000000000000000000000000000000000008152600401808060200182810382526023815260200180613fa46023913960400191505060405180910390fd5b505050565b60008084116133f057604080517f08c379a000000000000000000000000000000000000000000000000000000000815260206004820181905260248201527f49676e694c6962726172793a20494e53554646494349454e545f414d4f554e54604482015290519081900360640190fd5b6000831180156134005750600082115b613455576040517f08c379a0000000000000000000000000000000000000000000000000000000008152600401808060200182810382526023815260200180613f816023913960400191505060405180910390fd5b82613466858463ffffffff613abd16565b8161346d57fe5b04949350505050565b6000808273ffffffffffffffffffffffffffffffffffffffff168473ffffffffffffffffffffffffffffffffffffffff16141561351457604080517f08c379a000000000000000000000000000000000000000000000000000000000815260206004820181905260248201527f49676e694c6962726172793a204944454e544943414c5f414444524553534553604482015290519081900360640190fd5b8273ffffffffffffffffffffffffffffffffffffffff168473ffffffffffffffffffffffffffffffffffffffff161061354e578284613551565b83835b909250905073ffffffffffffffffffffffffffffffffffffffff82166135d857604080517f08c379a000000000000000000000000000000000000000000000000000000000815260206004820152601960248201527f49676e694c6962726172793a205a45524f5f4144445245535300000000000000604482015290519081900360640190fd5b9250929050565b6040805173ffffffffffffffffffffffffffffffffffffffff8481166024830152604480830185905283518084039091018152606490920183526020820180517bffffffffffffffffffffffffffffffffffffffffffffffffffffffff167fa9059cbb00000000000000000000000000000000000000000000000000000000178152925182516000946060949389169392918291908083835b602083106136b557805182527fffffffffffffffffffffffffffffffffffffffffffffffffffffffffffffffe09092019160209182019101613678565b6001836020036101000a0380198251168184511680821785525050505050509050019150506000604051808303816000865af19150503d8060008114613717576040519150601f19603f3d011682016040523d82523d6000602084013e61371c565b606091505b509150915081801561374a57508051158061374a575080806020019051602081101561374757600080fd5b50515b6137b557604080517f08c379a000000000000000000000000000000000000000000000000000000000815260206004820152601f60248201527f5472616e7366657248656c7065723a205452414e534645525f4641494c454400604482015290519081900360640190fd5b5050505050565b604080517fe6a4390500000000000000000000000000000000000000000000000000000000815273ffffffffffffffffffffffffffffffffffffffff888116600483015287811660248301529151600092839283927f00000000000000000000000000000000000000000000000000000000000000009092169163e6a4390591604480820192602092909190829003018186803b15801561385c57600080fd5b505afa158015613870573d6000803e3d6000fd5b505050506040513d602081101561388657600080fd5b505173ffffffffffffffffffffffffffffffffffffffff16141561396c57604080517fc9c6539600000000000000000000000000000000000000000000000000000000815273ffffffffffffffffffffffffffffffffffffffff8a81166004830152898116602483015291517f00000000000000000000000000000000000000000000000000000000000000009092169163c9c65396916044808201926020929091908290030181600087803b15801561393f57600080fd5b505af1158015613953573d6000803e3d6000fd5b505050506040513d602081101561396957600080fd5b50505b60008061399a7f00000000000000000000000000000000000000000000000000000000000000008b8b613ba4565b915091508160001480156139ac575080155b156139bc57879350869250613ab0565b60006139c9898484613380565b9050878111613a365785811015613a2b576040517f08c379a0000000000000000000000000000000000000000000000000000000008152600401808060200182810382526021815260200180613ef76021913960400191505060405180910390fd5b889450925082613aae565b6000613a43898486613380565b905089811115613a4f57fe5b87811015613aa8576040517f08c379a0000000000000000000000000000000000000000000000000000000008152600401808060200182810382526021815260200180613f606021913960400191505060405180910390fd5b94508793505b505b5050965096945050505050565b600082613acc57506000610aef565b82820282848281613ad957fe5b0414610aec576040517f08c379a0000000000000000000000000000000000000000000000000000000008152600401808060200182810382526021815260200180613f3f6021913960400191505060405180910390fd5b600082820183811015610aec57604080517f08c379a000000000000000000000000000000000000000000000000000000000815260206004820152601b60248201527f536166654d6174683a206164646974696f6e206f766572666c6f770000000000604482015290519081900360640190fd5b6000806000613bb38585613476565b509050613bc1868686612bb0565b50600080613bd0888888612bb0565b73ffffffffffffffffffffffffffffffffffffffff16630902f1ac6040518163ffffffff1660e01b815260040160606040518083038186803b158015613c1557600080fd5b505afa158015613c29573d6000803e3d6000fd5b505050506040513d6060811015613c3f57600080fd5b5080516020909101516dffffffffffffffffffffffffffff918216935016905073ffffffffffffffffffffffffffffffffffffffff87811690841614613c86578082613c89565b81815b90999098509650505050505050565b6000808411613cf2576040517f08c379a0000000000000000000000000000000000000000000000000000000008152600401808060200182810382526027815260200180613f186027913960400191505060405180910390fd5b600083118015613d025750600082115b613d57576040517f08c379a0000000000000000000000000000000000000000000000000000000008152600401808060200182810382526023815260200180613f816023913960400191505060405180910390fd5b6000613d7b6103e8613d6f868863ffffffff613abd16565b9063ffffffff613abd16565b90506000613d956103e4613d6f868963ffffffff613dbc16565b9050613db26001828481613da557fe5b049063ffffffff613b3016565b9695505050505050565b6000610aec83836040518060400160405280601e81526020017f536166654d6174683a207375627472616374696f6e206f766572666c6f77000081525060008184841115613ea2576040517f08c379a00000000000000000000000000000000000000000000000000000000081526004018080602001828103825283818151815260200191508051906020019080838360005b83811015613e67578181015183820152602001613e4f565b50505050905090810190601f168015613e945780820380516001836020036101000a031916815260200191505b509250505060405180910390fd5b50505090039056fe49676e694c6962726172793a20494e53554646494349454e545f494e5055545f414d4f554e5449676e69526f757465723a20494e53554646494349454e545f4f55545055545f414d4f554e5449676e69526f757465723a20494e53554646494349454e545f425f414d4f554e5449676e694c6962726172793a20494e53554646494349454e545f4f55545055545f414d4f554e54536166654d6174683a206d756c7469706c69636174696f6e206f766572666c6f7749676e69526f757465723a20494e53554646494349454e545f415f414d4f554e5449676e694c6962726172793a20494e53554646494349454e545f4c49515549444954595472616e7366657248656c7065723a20424e425f5452414e534645525f4641494c454449676e69526f757465723a204558434553534956455f494e5055545f414d4f554e545472616e7366657248656c7065723a205452414e534645525f46524f4d5f4641494c4544a264697066735822122062eaf86b5b24096d8754d7d8e052b8a15295c2f6f7f0eb1bdef64fa7cedee08c64736f6c63430006060033",
  "immutableReferences": {
    "2220": [
      {
        "length": 32,
        "start": 2758
      },
      {
        "length": 32,
        "start": 2815
      },
      {
        "length": 32,
        "start": 3133
      },
      {
        "length": 32,
        "start": 3586
      },
      {
        "length": 32,
        "start": 3840
      },
      {
        "length": 32,
        "start": 4439
      },
      {
        "length": 32,
        "start": 5262
      },
      {
        "length": 32,
        "start": 5676
      },
      {
        "length": 32,
        "start": 6190
      },
      {
        "length": 32,
        "start": 6772
      },
      {
        "length": 32,
        "start": 7189
      },
      {
        "length": 32,
        "start": 7607
      },
      {
        "length": 32,
        "start": 8265
      },
      {
        "length": 32,
        "start": 8306
      },
      {
        "length": 32,
        "start": 8723
      },
      {
        "length": 32,
        "start": 9405
      },
      {
        "length": 32,
        "start": 9836
      },
      {
        "length": 32,
        "start": 12421
      },
      {
        "length": 32,
        "start": 12488
      },
      {
        "length": 32,
        "start": 14355
      },
      {
        "length": 32,
        "start": 14580
      },
      {
        "length": 32,
        "start": 14708
      }
    ],
    "2223": [
      {
        "length": 32,
        "start": 357
      },
      {
        "length": 32,
        "start": 3167
      },
      {
        "length": 32,
        "start": 4197
      },
      {
        "length": 32,
        "start": 4723
      },
      {
        "length": 32,
        "start": 5032
      },
      {
        "length": 32,
        "start": 5464
      },
      {
        "length": 32,
        "start": 5613
      },
      {
        "length": 32,
        "start": 6392
      },
      {
        "length": 32,
        "start": 6542
      },
      {
        "length": 32,
        "start": 6977
      },
      {
        "length": 32,
        "start": 7126
      },
      {
        "length": 32,
        "start": 8481
      },
      {
        "length": 32,
        "start": 9044
      },
      {
        "length": 32,
        "start": 9103
      },
      {
        "length": 32,
        "start": 9784
      },
      {
        "length": 32,
        "start": 9870
      },
      {
        "length": 32,
        "start": 9922
      },
      {
        "length": 32,
        "start": 10051
      }
    ]
  },
  "source": "pragma solidity =0.6.6;\r\n\r\nimport '@igniswap/igni-swap-core/contracts/interfaces/IIgniFactory.sol';\r\nimport './libraries/TransferHelper.sol';\r\n\r\nimport './libraries/IgniLibrary.sol';\r\nimport './interfaces/IIgniRouter01.sol';\r\nimport './interfaces/IERC20.sol';\r\nimport './interfaces/IWBNB.sol';\r\n\r\ncontract IgniRouter01 is IIgniRouter01 {\r\n    address public immutable override factory;\r\n    address public immutable override WBNB;\r\n\r\n    modifier ensure(uint deadline) {\r\n        require(deadline >= block.timestamp, 'IgniRouter: EXPIRED');\r\n        _;\r\n    }\r\n\r\n    constructor(address _factory, address _WBNB) public {\r\n        factory = _factory;\r\n        WBNB = _WBNB;\r\n    }\r\n\r\n    receive() external payable {\r\n        assert(msg.sender == WBNB); // only accept BNB via fallback from the WBNB contract\r\n    }\r\n\r\n    // **** ADD LIQUIDITY ****\r\n    function _addLiquidity(\r\n        address tokenA,\r\n        address tokenB,\r\n        uint amountADesired,\r\n        uint amountBDesired,\r\n        uint amountAMin,\r\n        uint amountBMin\r\n    ) private returns (uint amountA, uint amountB) {\r\n        // create the pair if it doesn't exist yet\r\n        if (IIgniFactory(factory).getPair(tokenA, tokenB) == address(0)) {\r\n            IIgniFactory(factory).createPair(tokenA, tokenB);\r\n        }\r\n        (uint reserveA, uint reserveB) = IgniLibrary.getReserves(factory, tokenA, tokenB);\r\n        if (reserveA == 0 && reserveB == 0) {\r\n            (amountA, amountB) = (amountADesired, amountBDesired);\r\n        } else {\r\n            uint amountBOptimal = IgniLibrary.quote(amountADesired, reserveA, reserveB);\r\n            if (amountBOptimal <= amountBDesired) {\r\n                require(amountBOptimal >= amountBMin, 'IgniRouter: INSUFFICIENT_B_AMOUNT');\r\n                (amountA, amountB) = (amountADesired, amountBOptimal);\r\n            } else {\r\n                uint amountAOptimal = IgniLibrary.quote(amountBDesired, reserveB, reserveA);\r\n                assert(amountAOptimal <= amountADesired);\r\n                require(amountAOptimal >= amountAMin, 'IgniRouter: INSUFFICIENT_A_AMOUNT');\r\n                (amountA, amountB) = (amountAOptimal, amountBDesired);\r\n            }\r\n        }\r\n    }\r\n    function addLiquidity(\r\n        address tokenA,\r\n        address tokenB,\r\n        uint amountADesired,\r\n        uint amountBDesired,\r\n        uint amountAMin,\r\n        uint amountBMin,\r\n        address to,\r\n        uint deadline\r\n    ) external override ensure(deadline) returns (uint amountA, uint amountB, uint liquidity) {\r\n        (amountA, amountB) = _addLiquidity(tokenA, tokenB, amountADesired, amountBDesired, amountAMin, amountBMin);\r\n        address pair = IgniLibrary.pairFor(factory, tokenA, tokenB);\r\n        TransferHelper.safeTransferFrom(tokenA, msg.sender, pair, amountA);\r\n        TransferHelper.safeTransferFrom(tokenB, msg.sender, pair, amountB);\r\n        liquidity = IIgniPair(pair).mint(to);\r\n    }\r\n    function addLiquidityBNB(\r\n        address token,\r\n        uint amountTokenDesired,\r\n        uint amountTokenMin,\r\n        uint amountBNBMin,\r\n        address to,\r\n        uint deadline\r\n    ) external override payable ensure(deadline) returns (uint amountToken, uint amountBNB, uint liquidity) {\r\n        (amountToken, amountBNB) = _addLiquidity(\r\n            token,\r\n            WBNB,\r\n            amountTokenDesired,\r\n            msg.value,\r\n            amountTokenMin,\r\n            amountBNBMin\r\n        );\r\n        address pair = IgniLibrary.pairFor(factory, token, WBNB);\r\n        TransferHelper.safeTransferFrom(token, msg.sender, pair, amountToken);\r\n        IWBNB(WBNB).deposit{value: amountBNB}();\r\n        assert(IWBNB(WBNB).transfer(pair, amountBNB));\r\n        liquidity = IIgniPair(pair).mint(to);\r\n        if (msg.value > amountBNB) TransferHelper.safeTransferBNB(msg.sender, msg.value - amountBNB); // refund dust eth, if any\r\n    }\r\n\r\n    // **** REMOVE LIQUIDITY ****\r\n    function removeLiquidity(\r\n        address tokenA,\r\n        address tokenB,\r\n        uint liquidity,\r\n        uint amountAMin,\r\n        uint amountBMin,\r\n        address to,\r\n        uint deadline\r\n    ) public override ensure(deadline) returns (uint amountA, uint amountB) {\r\n        address pair = IgniLibrary.pairFor(factory, tokenA, tokenB);\r\n        IIgniPair(pair).transferFrom(msg.sender, pair, liquidity); // send liquidity to pair\r\n        (uint amount0, uint amount1) = IIgniPair(pair).burn(to);\r\n        (address token0,) = IgniLibrary.sortTokens(tokenA, tokenB);\r\n        (amountA, amountB) = tokenA == token0 ? (amount0, amount1) : (amount1, amount0);\r\n        require(amountA >= amountAMin, 'IgniRouter: INSUFFICIENT_A_AMOUNT');\r\n        require(amountB >= amountBMin, 'IgniRouter: INSUFFICIENT_B_AMOUNT');\r\n    }\r\n    function removeLiquidityBNB(\r\n        address token,\r\n        uint liquidity,\r\n        uint amountTokenMin,\r\n        uint amountBNBMin,\r\n        address to,\r\n        uint deadline\r\n    ) public override ensure(deadline) returns (uint amountToken, uint amountBNB) {\r\n        (amountToken, amountBNB) = removeLiquidity(\r\n            token,\r\n            WBNB,\r\n            liquidity,\r\n            amountTokenMin,\r\n            amountBNBMin,\r\n            address(this),\r\n            deadline\r\n        );\r\n        TransferHelper.safeTransfer(token, to, amountToken);\r\n        IWBNB(WBNB).withdraw(amountBNB);\r\n        TransferHelper.safeTransferBNB(to, amountBNB);\r\n    }\r\n    function removeLiquidityWithPermit(\r\n        address tokenA,\r\n        address tokenB,\r\n        uint liquidity,\r\n        uint amountAMin,\r\n        uint amountBMin,\r\n        address to,\r\n        uint deadline,\r\n        bool approveMax, uint8 v, bytes32 r, bytes32 s\r\n    ) external override returns (uint amountA, uint amountB) {\r\n        address pair = IgniLibrary.pairFor(factory, tokenA, tokenB);\r\n        uint value = approveMax ? uint(-1) : liquidity;\r\n        IIgniPair(pair).permit(msg.sender, address(this), value, deadline, v, r, s);\r\n        (amountA, amountB) = removeLiquidity(tokenA, tokenB, liquidity, amountAMin, amountBMin, to, deadline);\r\n    }\r\n    function removeLiquidityBNBWithPermit(\r\n        address token,\r\n        uint liquidity,\r\n        uint amountTokenMin,\r\n        uint amountBNBMin,\r\n        address to,\r\n        uint deadline,\r\n        bool approveMax, uint8 v, bytes32 r, bytes32 s\r\n    ) external override returns (uint amountToken, uint amountBNB) {\r\n        address pair = IgniLibrary.pairFor(factory, token, WBNB);\r\n        uint value = approveMax ? uint(-1) : liquidity;\r\n        IIgniPair(pair).permit(msg.sender, address(this), value, deadline, v, r, s);\r\n        (amountToken, amountBNB) = removeLiquidityBNB(token, liquidity, amountTokenMin, amountBNBMin, to, deadline);\r\n    }\r\n\r\n    // **** SWAP ****\r\n    // requires the initial amount to have already been sent to the first pair\r\n    function _swap(uint[] memory amounts, address[] memory path, address _to) private {\r\n        for (uint i; i < path.length - 1; i++) {\r\n            (address input, address output) = (path[i], path[i + 1]);\r\n            (address token0,) = IgniLibrary.sortTokens(input, output);\r\n            uint amountOut = amounts[i + 1];\r\n            (uint amount0Out, uint amount1Out) = input == token0 ? (uint(0), amountOut) : (amountOut, uint(0));\r\n            address to = i < path.length - 2 ? IgniLibrary.pairFor(factory, output, path[i + 2]) : _to;\r\n            IIgniPair(IgniLibrary.pairFor(factory, input, output)).swap(amount0Out, amount1Out, to, new bytes(0));\r\n        }\r\n    }\r\n    function swapExactTokensForTokens(\r\n        uint amountIn,\r\n        uint amountOutMin,\r\n        address[] calldata path,\r\n        address to,\r\n        uint deadline\r\n    ) external override ensure(deadline) returns (uint[] memory amounts) {\r\n        amounts = IgniLibrary.getAmountsOut(factory, amountIn, path);\r\n        require(amounts[amounts.length - 1] >= amountOutMin, 'IgniRouter: INSUFFICIENT_OUTPUT_AMOUNT');\r\n        TransferHelper.safeTransferFrom(path[0], msg.sender, IgniLibrary.pairFor(factory, path[0], path[1]), amounts[0]);\r\n        _swap(amounts, path, to);\r\n    }\r\n    function swapTokensForExactTokens(\r\n        uint amountOut,\r\n        uint amountInMax,\r\n        address[] calldata path,\r\n        address to,\r\n        uint deadline\r\n    ) external override ensure(deadline) returns (uint[] memory amounts) {\r\n        amounts = IgniLibrary.getAmountsIn(factory, amountOut, path);\r\n        require(amounts[0] <= amountInMax, 'IgniRouter: EXCESSIVE_INPUT_AMOUNT');\r\n        TransferHelper.safeTransferFrom(path[0], msg.sender, IgniLibrary.pairFor(factory, path[0], path[1]), amounts[0]);\r\n        _swap(amounts, path, to);\r\n    }\r\n    function swapExactBNBForTokens(uint amountOutMin, address[] calldata path, address to, uint deadline)\r\n        external\r\n        override\r\n        payable\r\n        ensure(deadline)\r\n        returns (uint[] memory amounts)\r\n    {\r\n        require(path[0] == WBNB, 'IgniRouter: INVALID_PATH');\r\n        amounts = IgniLibrary.getAmountsOut(factory, msg.value, path);\r\n        require(amounts[amounts.length - 1] >= amountOutMin, 'IgniRouter: INSUFFICIENT_OUTPUT_AMOUNT');\r\n        IWBNB(WBNB).deposit{value: amounts[0]}();\r\n        assert(IWBNB(WBNB).transfer(IgniLibrary.pairFor(factory, path[0], path[1]), amounts[0]));\r\n        _swap(amounts, path, to);\r\n    }\r\n    function swapTokensForExactBNB(uint amountOut, uint amountInMax, address[] calldata path, address to, uint deadline)\r\n        external\r\n        override\r\n        ensure(deadline)\r\n        returns (uint[] memory amounts)\r\n    {\r\n        require(path[path.length - 1] == WBNB, 'IgniRouter: INVALID_PATH');\r\n        amounts = IgniLibrary.getAmountsIn(factory, amountOut, path);\r\n        require(amounts[0] <= amountInMax, 'IgniRouter: EXCESSIVE_INPUT_AMOUNT');\r\n        TransferHelper.safeTransferFrom(path[0], msg.sender, IgniLibrary.pairFor(factory, path[0], path[1]), amounts[0]);\r\n        _swap(amounts, path, address(this));\r\n        IWBNB(WBNB).withdraw(amounts[amounts.length - 1]);\r\n        TransferHelper.safeTransferBNB(to, amounts[amounts.length - 1]);\r\n    }\r\n    function swapExactTokensForBNB(uint amountIn, uint amountOutMin, address[] calldata path, address to, uint deadline)\r\n        external\r\n        override\r\n        ensure(deadline)\r\n        returns (uint[] memory amounts)\r\n    {\r\n        require(path[path.length - 1] == WBNB, 'IgniRouter: INVALID_PATH');\r\n        amounts = IgniLibrary.getAmountsOut(factory, amountIn, path);\r\n        require(amounts[amounts.length - 1] >= amountOutMin, 'IgniRouter: INSUFFICIENT_OUTPUT_AMOUNT');\r\n        TransferHelper.safeTransferFrom(path[0], msg.sender, IgniLibrary.pairFor(factory, path[0], path[1]), amounts[0]);\r\n        _swap(amounts, path, address(this));\r\n        IWBNB(WBNB).withdraw(amounts[amounts.length - 1]);\r\n        TransferHelper.safeTransferBNB(to, amounts[amounts.length - 1]);\r\n    }\r\n    function swapBNBForExactTokens(uint amountOut, address[] calldata path, address to, uint deadline)\r\n        external\r\n        override\r\n        payable\r\n        ensure(deadline)\r\n        returns (uint[] memory amounts)\r\n    {\r\n        require(path[0] == WBNB, 'IgniRouter: INVALID_PATH');\r\n        amounts = IgniLibrary.getAmountsIn(factory, amountOut, path);\r\n        require(amounts[0] <= msg.value, 'IgniRouter: EXCESSIVE_INPUT_AMOUNT');\r\n        IWBNB(WBNB).deposit{value: amounts[0]}();\r\n        assert(IWBNB(WBNB).transfer(IgniLibrary.pairFor(factory, path[0], path[1]), amounts[0]));\r\n        _swap(amounts, path, to);\r\n        if (msg.value > amounts[0]) TransferHelper.safeTransferBNB(msg.sender, msg.value - amounts[0]); // refund dust eth, if any\r\n    }\r\n\r\n    function quote(uint amountA, uint reserveA, uint reserveB) public pure override returns (uint amountB) {\r\n        return IgniLibrary.quote(amountA, reserveA, reserveB);\r\n    }\r\n\r\n    function getAmountOut(uint amountIn, uint reserveIn, uint reserveOut) public pure override returns (uint amountOut) {\r\n        return IgniLibrary.getAmountOut(amountIn, reserveIn, reserveOut);\r\n    }\r\n\r\n    function getAmountIn(uint amountOut, uint reserveIn, uint reserveOut) public pure override returns (uint amountIn) {\r\n        return IgniLibrary.getAmountOut(amountOut, reserveIn, reserveOut);\r\n    }\r\n\r\n    function getAmountsOut(uint amountIn, address[] memory path) public view override returns (uint[] memory amounts) {\r\n        return IgniLibrary.getAmountsOut(factory, amountIn, path);\r\n    }\r\n\r\n    function getAmountsIn(uint amountOut, address[] memory path) public view override returns (uint[] memory amounts) {\r\n        return IgniLibrary.getAmountsIn(factory, amountOut, path);\r\n    }\r\n}\r\n",
  "sourcePath": "C:\\Users\\marcr\\OneDrive\\Escritorio\\Pancake\\igni-swap-periphery\\contracts\\IgniRouter01.sol",
  "compiler": {
    "name": "solc",
    "version": "0.6.6+commit.6c089d02.Emscripten.clang"
  },
  "schemaVersion": "3.2.0",
  "updatedAt": "2021-03-11T20:52:08.695Z",
  "devdoc": {
    "methods": {}
  },
  "userdoc": {
    "methods": {}
  }
}