{
  "contractName": "IgniRouter",
  "abi": [
    {
      "inputs": [
        {
          "internalType": "address",
          "name": "_factory",
          "type": "address"
        },
        {
          "internalType": "address",
          "name": "_WBNB",
          "type": "address"
        }
      ],
      "stateMutability": "nonpayable",
      "type": "constructor"
    },
    {
      "inputs": [],
      "name": "WBNB",
      "outputs": [
        {
          "internalType": "address",
          "name": "",
          "type": "address"
        }
      ],
      "stateMutability": "view",
      "type": "function"
    },
    {
      "inputs": [],
      "name": "factory",
      "outputs": [
        {
          "internalType": "address",
          "name": "",
          "type": "address"
        }
      ],
      "stateMutability": "view",
      "type": "function"
    },
    {
      "stateMutability": "payable",
      "type": "receive"
    },
    {
      "inputs": [
        {
          "internalType": "address",
          "name": "tokenA",
          "type": "address"
        },
        {
          "internalType": "address",
          "name": "tokenB",
          "type": "address"
        },
        {
          "internalType": "uint256",
          "name": "amountADesired",
          "type": "uint256"
        },
        {
          "internalType": "uint256",
          "name": "amountBDesired",
          "type": "uint256"
        },
        {
          "internalType": "uint256",
          "name": "amountAMin",
          "type": "uint256"
        },
        {
          "internalType": "uint256",
          "name": "amountBMin",
          "type": "uint256"
        },
        {
          "internalType": "address",
          "name": "to",
          "type": "address"
        },
        {
          "internalType": "uint256",
          "name": "deadline",
          "type": "uint256"
        }
      ],
      "name": "addLiquidity",
      "outputs": [
        {
          "internalType": "uint256",
          "name": "amountA",
          "type": "uint256"
        },
        {
          "internalType": "uint256",
          "name": "amountB",
          "type": "uint256"
        },
        {
          "internalType": "uint256",
          "name": "liquidity",
          "type": "uint256"
        }
      ],
      "stateMutability": "nonpayable",
      "type": "function"
    },
    {
      "inputs": [
        {
          "internalType": "address",
          "name": "token",
          "type": "address"
        },
        {
          "internalType": "uint256",
          "name": "amountTokenDesired",
          "type": "uint256"
        },
        {
          "internalType": "uint256",
          "name": "amountTokenMin",
          "type": "uint256"
        },
        {
          "internalType": "uint256",
          "name": "amountBNBMin",
          "type": "uint256"
        },
        {
          "internalType": "address",
          "name": "to",
          "type": "address"
        },
        {
          "internalType": "uint256",
          "name": "deadline",
          "type": "uint256"
        }
      ],
      "name": "addLiquidityBNB",
      "outputs": [
        {
          "internalType": "uint256",
          "name": "amountToken",
          "type": "uint256"
        },
        {
          "internalType": "uint256",
          "name": "amountBNB",
          "type": "uint256"
        },
        {
          "internalType": "uint256",
          "name": "liquidity",
          "type": "uint256"
        }
      ],
      "stateMutability": "payable",
      "type": "function"
    },
    {
      "inputs": [
        {
          "internalType": "address",
          "name": "tokenA",
          "type": "address"
        },
        {
          "internalType": "address",
          "name": "tokenB",
          "type": "address"
        },
        {
          "internalType": "uint256",
          "name": "liquidity",
          "type": "uint256"
        },
        {
          "internalType": "uint256",
          "name": "amountAMin",
          "type": "uint256"
        },
        {
          "internalType": "uint256",
          "name": "amountBMin",
          "type": "uint256"
        },
        {
          "internalType": "address",
          "name": "to",
          "type": "address"
        },
        {
          "internalType": "uint256",
          "name": "deadline",
          "type": "uint256"
        }
      ],
      "name": "removeLiquidity",
      "outputs": [
        {
          "internalType": "uint256",
          "name": "amountA",
          "type": "uint256"
        },
        {
          "internalType": "uint256",
          "name": "amountB",
          "type": "uint256"
        }
      ],
      "stateMutability": "nonpayable",
      "type": "function"
    },
    {
      "inputs": [
        {
          "internalType": "address",
          "name": "token",
          "type": "address"
        },
        {
          "internalType": "uint256",
          "name": "liquidity",
          "type": "uint256"
        },
        {
          "internalType": "uint256",
          "name": "amountTokenMin",
          "type": "uint256"
        },
        {
          "internalType": "uint256",
          "name": "amountBNBMin",
          "type": "uint256"
        },
        {
          "internalType": "address",
          "name": "to",
          "type": "address"
        },
        {
          "internalType": "uint256",
          "name": "deadline",
          "type": "uint256"
        }
      ],
      "name": "removeLiquidityBNB",
      "outputs": [
        {
          "internalType": "uint256",
          "name": "amountToken",
          "type": "uint256"
        },
        {
          "internalType": "uint256",
          "name": "amountBNB",
          "type": "uint256"
        }
      ],
      "stateMutability": "nonpayable",
      "type": "function"
    },
    {
      "inputs": [
        {
          "internalType": "address",
          "name": "tokenA",
          "type": "address"
        },
        {
          "internalType": "address",
          "name": "tokenB",
          "type": "address"
        },
        {
          "internalType": "uint256",
          "name": "liquidity",
          "type": "uint256"
        },
        {
          "internalType": "uint256",
          "name": "amountAMin",
          "type": "uint256"
        },
        {
          "internalType": "uint256",
          "name": "amountBMin",
          "type": "uint256"
        },
        {
          "internalType": "address",
          "name": "to",
          "type": "address"
        },
        {
          "internalType": "uint256",
          "name": "deadline",
          "type": "uint256"
        },
        {
          "internalType": "bool",
          "name": "approveMax",
          "type": "bool"
        },
        {
          "internalType": "uint8",
          "name": "v",
          "type": "uint8"
        },
        {
          "internalType": "bytes32",
          "name": "r",
          "type": "bytes32"
        },
        {
          "internalType": "bytes32",
          "name": "s",
          "type": "bytes32"
        }
      ],
      "name": "removeLiquidityWithPermit",
      "outputs": [
        {
          "internalType": "uint256",
          "name": "amountA",
          "type": "uint256"
        },
        {
          "internalType": "uint256",
          "name": "amountB",
          "type": "uint256"
        }
      ],
      "stateMutability": "nonpayable",
      "type": "function"
    },
    {
      "inputs": [
        {
          "internalType": "address",
          "name": "token",
          "type": "address"
        },
        {
          "internalType": "uint256",
          "name": "liquidity",
          "type": "uint256"
        },
        {
          "internalType": "uint256",
          "name": "amountTokenMin",
          "type": "uint256"
        },
        {
          "internalType": "uint256",
          "name": "amountBNBMin",
          "type": "uint256"
        },
        {
          "internalType": "address",
          "name": "to",
          "type": "address"
        },
        {
          "internalType": "uint256",
          "name": "deadline",
          "type": "uint256"
        },
        {
          "internalType": "bool",
          "name": "approveMax",
          "type": "bool"
        },
        {
          "internalType": "uint8",
          "name": "v",
          "type": "uint8"
        },
        {
          "internalType": "bytes32",
          "name": "r",
          "type": "bytes32"
        },
        {
          "internalType": "bytes32",
          "name": "s",
          "type": "bytes32"
        }
      ],
      "name": "removeLiquidityBNBWithPermit",
      "outputs": [
        {
          "internalType": "uint256",
          "name": "amountToken",
          "type": "uint256"
        },
        {
          "internalType": "uint256",
          "name": "amountBNB",
          "type": "uint256"
        }
      ],
      "stateMutability": "nonpayable",
      "type": "function"
    },
    {
      "inputs": [
        {
          "internalType": "address",
          "name": "token",
          "type": "address"
        },
        {
          "internalType": "uint256",
          "name": "liquidity",
          "type": "uint256"
        },
        {
          "internalType": "uint256",
          "name": "amountTokenMin",
          "type": "uint256"
        },
        {
          "internalType": "uint256",
          "name": "amountBNBMin",
          "type": "uint256"
        },
        {
          "internalType": "address",
          "name": "to",
          "type": "address"
        },
        {
          "internalType": "uint256",
          "name": "deadline",
          "type": "uint256"
        }
      ],
      "name": "removeLiquidityBNBSupportingFeeOnTransferTokens",
      "outputs": [
        {
          "internalType": "uint256",
          "name": "amountBNB",
          "type": "uint256"
        }
      ],
      "stateMutability": "nonpayable",
      "type": "function"
    },
    {
      "inputs": [
        {
          "internalType": "address",
          "name": "token",
          "type": "address"
        },
        {
          "internalType": "uint256",
          "name": "liquidity",
          "type": "uint256"
        },
        {
          "internalType": "uint256",
          "name": "amountTokenMin",
          "type": "uint256"
        },
        {
          "internalType": "uint256",
          "name": "amountBNBMin",
          "type": "uint256"
        },
        {
          "internalType": "address",
          "name": "to",
          "type": "address"
        },
        {
          "internalType": "uint256",
          "name": "deadline",
          "type": "uint256"
        },
        {
          "internalType": "bool",
          "name": "approveMax",
          "type": "bool"
        },
        {
          "internalType": "uint8",
          "name": "v",
          "type": "uint8"
        },
        {
          "internalType": "bytes32",
          "name": "r",
          "type": "bytes32"
        },
        {
          "internalType": "bytes32",
          "name": "s",
          "type": "bytes32"
        }
      ],
      "name": "removeLiquidityBNBWithPermitSupportingFeeOnTransferTokens",
      "outputs": [
        {
          "internalType": "uint256",
          "name": "amountBNB",
          "type": "uint256"
        }
      ],
      "stateMutability": "nonpayable",
      "type": "function"
    },
    {
      "inputs": [
        {
          "internalType": "uint256",
          "name": "amountIn",
          "type": "uint256"
        },
        {
          "internalType": "uint256",
          "name": "amountOutMin",
          "type": "uint256"
        },
        {
          "internalType": "address[]",
          "name": "path",
          "type": "address[]"
        },
        {
          "internalType": "address",
          "name": "to",
          "type": "address"
        },
        {
          "internalType": "uint256",
          "name": "deadline",
          "type": "uint256"
        }
      ],
      "name": "swapExactTokensForTokens",
      "outputs": [
        {
          "internalType": "uint256[]",
          "name": "amounts",
          "type": "uint256[]"
        }
      ],
      "stateMutability": "nonpayable",
      "type": "function"
    },
    {
      "inputs": [
        {
          "internalType": "uint256",
          "name": "amountOut",
          "type": "uint256"
        },
        {
          "internalType": "uint256",
          "name": "amountInMax",
          "type": "uint256"
        },
        {
          "internalType": "address[]",
          "name": "path",
          "type": "address[]"
        },
        {
          "internalType": "address",
          "name": "to",
          "type": "address"
        },
        {
          "internalType": "uint256",
          "name": "deadline",
          "type": "uint256"
        }
      ],
      "name": "swapTokensForExactTokens",
      "outputs": [
        {
          "internalType": "uint256[]",
          "name": "amounts",
          "type": "uint256[]"
        }
      ],
      "stateMutability": "nonpayable",
      "type": "function"
    },
    {
      "inputs": [
        {
          "internalType": "uint256",
          "name": "amountOutMin",
          "type": "uint256"
        },
        {
          "internalType": "address[]",
          "name": "path",
          "type": "address[]"
        },
        {
          "internalType": "address",
          "name": "to",
          "type": "address"
        },
        {
          "internalType": "uint256",
          "name": "deadline",
          "type": "uint256"
        }
      ],
      "name": "swapExactBNBForTokens",
      "outputs": [
        {
          "internalType": "uint256[]",
          "name": "amounts",
          "type": "uint256[]"
        }
      ],
      "stateMutability": "payable",
      "type": "function"
    },
    {
      "inputs": [
        {
          "internalType": "uint256",
          "name": "amountOut",
          "type": "uint256"
        },
        {
          "internalType": "uint256",
          "name": "amountInMax",
          "type": "uint256"
        },
        {
          "internalType": "address[]",
          "name": "path",
          "type": "address[]"
        },
        {
          "internalType": "address",
          "name": "to",
          "type": "address"
        },
        {
          "internalType": "uint256",
          "name": "deadline",
          "type": "uint256"
        }
      ],
      "name": "swapTokensForExactBNB",
      "outputs": [
        {
          "internalType": "uint256[]",
          "name": "amounts",
          "type": "uint256[]"
        }
      ],
      "stateMutability": "nonpayable",
      "type": "function"
    },
    {
      "inputs": [
        {
          "internalType": "uint256",
          "name": "amountIn",
          "type": "uint256"
        },
        {
          "internalType": "uint256",
          "name": "amountOutMin",
          "type": "uint256"
        },
        {
          "internalType": "address[]",
          "name": "path",
          "type": "address[]"
        },
        {
          "internalType": "address",
          "name": "to",
          "type": "address"
        },
        {
          "internalType": "uint256",
          "name": "deadline",
          "type": "uint256"
        }
      ],
      "name": "swapExactTokensForBNB",
      "outputs": [
        {
          "internalType": "uint256[]",
          "name": "amounts",
          "type": "uint256[]"
        }
      ],
      "stateMutability": "nonpayable",
      "type": "function"
    },
    {
      "inputs": [
        {
          "internalType": "uint256",
          "name": "amountOut",
          "type": "uint256"
        },
        {
          "internalType": "address[]",
          "name": "path",
          "type": "address[]"
        },
        {
          "internalType": "address",
          "name": "to",
          "type": "address"
        },
        {
          "internalType": "uint256",
          "name": "deadline",
          "type": "uint256"
        }
      ],
      "name": "swapBNBForExactTokens",
      "outputs": [
        {
          "internalType": "uint256[]",
          "name": "amounts",
          "type": "uint256[]"
        }
      ],
      "stateMutability": "payable",
      "type": "function"
    },
    {
      "inputs": [
        {
          "internalType": "uint256",
          "name": "amountIn",
          "type": "uint256"
        },
        {
          "internalType": "uint256",
          "name": "amountOutMin",
          "type": "uint256"
        },
        {
          "internalType": "address[]",
          "name": "path",
          "type": "address[]"
        },
        {
          "internalType": "address",
          "name": "to",
          "type": "address"
        },
        {
          "internalType": "uint256",
          "name": "deadline",
          "type": "uint256"
        }
      ],
      "name": "swapExactTokensForTokensSupportingFeeOnTransferTokens",
      "outputs": [],
      "stateMutability": "nonpayable",
      "type": "function"
    },
    {
      "inputs": [
        {
          "internalType": "uint256",
          "name": "amountOutMin",
          "type": "uint256"
        },
        {
          "internalType": "address[]",
          "name": "path",
          "type": "address[]"
        },
        {
          "internalType": "address",
          "name": "to",
          "type": "address"
        },
        {
          "internalType": "uint256",
          "name": "deadline",
          "type": "uint256"
        }
      ],
      "name": "swapExactBNBForTokensSupportingFeeOnTransferTokens",
      "outputs": [],
      "stateMutability": "payable",
      "type": "function"
    },
    {
      "inputs": [
        {
          "internalType": "uint256",
          "name": "amountIn",
          "type": "uint256"
        },
        {
          "internalType": "uint256",
          "name": "amountOutMin",
          "type": "uint256"
        },
        {
          "internalType": "address[]",
          "name": "path",
          "type": "address[]"
        },
        {
          "internalType": "address",
          "name": "to",
          "type": "address"
        },
        {
          "internalType": "uint256",
          "name": "deadline",
          "type": "uint256"
        }
      ],
      "name": "swapExactTokensForBNBSupportingFeeOnTransferTokens",
      "outputs": [],
      "stateMutability": "nonpayable",
      "type": "function"
    },
    {
      "inputs": [
        {
          "internalType": "uint256",
          "name": "amountA",
          "type": "uint256"
        },
        {
          "internalType": "uint256",
          "name": "reserveA",
          "type": "uint256"
        },
        {
          "internalType": "uint256",
          "name": "reserveB",
          "type": "uint256"
        }
      ],
      "name": "quote",
      "outputs": [
        {
          "internalType": "uint256",
          "name": "amountB",
          "type": "uint256"
        }
      ],
      "stateMutability": "pure",
      "type": "function"
    },
    {
      "inputs": [
        {
          "internalType": "uint256",
          "name": "amountIn",
          "type": "uint256"
        },
        {
          "internalType": "uint256",
          "name": "reserveIn",
          "type": "uint256"
        },
        {
          "internalType": "uint256",
          "name": "reserveOut",
          "type": "uint256"
        }
      ],
      "name": "getAmountOut",
      "outputs": [
        {
          "internalType": "uint256",
          "name": "amountOut",
          "type": "uint256"
        }
      ],
      "stateMutability": "pure",
      "type": "function"
    },
    {
      "inputs": [
        {
          "internalType": "uint256",
          "name": "amountOut",
          "type": "uint256"
        },
        {
          "internalType": "uint256",
          "name": "reserveIn",
          "type": "uint256"
        },
        {
          "internalType": "uint256",
          "name": "reserveOut",
          "type": "uint256"
        }
      ],
      "name": "getAmountIn",
      "outputs": [
        {
          "internalType": "uint256",
          "name": "amountIn",
          "type": "uint256"
        }
      ],
      "stateMutability": "pure",
      "type": "function"
    },
    {
      "inputs": [
        {
          "internalType": "uint256",
          "name": "amountIn",
          "type": "uint256"
        },
        {
          "internalType": "address[]",
          "name": "path",
          "type": "address[]"
        }
      ],
      "name": "getAmountsOut",
      "outputs": [
        {
          "internalType": "uint256[]",
          "name": "amounts",
          "type": "uint256[]"
        }
      ],
      "stateMutability": "view",
      "type": "function"
    },
    {
      "inputs": [
        {
          "internalType": "uint256",
          "name": "amountOut",
          "type": "uint256"
        },
        {
          "internalType": "address[]",
          "name": "path",
          "type": "address[]"
        }
      ],
      "name": "getAmountsIn",
      "outputs": [
        {
          "internalType": "uint256[]",
          "name": "amounts",
          "type": "uint256[]"
        }
      ],
      "stateMutability": "view",
      "type": "function"
    }
  ],
  "bytecode": "0x60c06040523480156200001157600080fd5b506040516200579a3803806200579a833981810160405260408110156200003757600080fd5b5080516020909101516001600160601b0319606092831b8116608052911b1660a05260805160601c60a05160601c61561362000187600039806101ac5280610f995280611388528061147052806114f15280611c1b5280611e295280611f1452806120b0528061226052806122f552806125e35280612679528061282c52806128c15280612aa05280612b755280612fea528061316e528061323e528061335a528061358d52806135c8528061387152806138c752806138fb528061397c525080610e005280610e395280610f77528061113c528061123a5280611530528061195f5280611d0d5280611ef2528061219652806123345280612519528061275f52806129005280612c825280612f145280612f3d528061344c52806136f652806138a552806142be528061430152806144d352806146b45280614f45528061502652806150a652506156136000f3fe60806040526004361061018f5760003560e01c80638dd95002116100d6578063d06ca61f1161007f578063e058848811610059578063e058848814610ca4578063e8e3370014610d04578063eaaed44214610d91576101d5565b8063d06ca61f14610aa3578063d46d2f8314610b5a578063d67b571e14610bff576101d5565b8063b7e65949116100b0578063b7e65949146109c4578063baa2abde14610a24578063c45a015514610a8e576101d5565b80638dd95002146108bd5780639cf68911146108fb578063ad615dec1461098e576101d5565b80635c11d795116101385780638332a963116101125780638332a9631461074f57806385f8c259146107e25780638803dbee14610818576101d5565b80635c11d795146105855780635d616c5b1461062a578063685a0a34146106cf576101d5565b806334a0772d1161016957806334a0772d146103cd57806338ed17391461044d57806350e27df3146104f2576101d5565b8063054d50d4146101da5780631f00ca74146102225780632195995c14610329576101d5565b366101d5573373ffffffffffffffffffffffffffffffffffffffff7f000000000000000000000000000000000000000000000000000000000000000016146101d357fe5b005b600080fd5b3480156101e657600080fd5b50610210600480360360608110156101fd57600080fd5b5080359060208101359060400135610de4565b60408051918252519081900360200190f35b34801561022e57600080fd5b506102d96004803603604081101561024557600080fd5b8135919081019060408101602082013564010000000081111561026757600080fd5b82018360208201111561027957600080fd5b8035906020019184602083028401116401000000008311171561029b57600080fd5b919080806020026020016040519081016040528093929190818152602001838360200280828437600092019190915250929550610df9945050505050565b60408051602080825283518183015283519192839290830191858101910280838360005b838110156103155781810151838201526020016102fd565b505050509050019250505060405180910390f35b34801561033557600080fd5b506103b4600480360361016081101561034d57600080fd5b5073ffffffffffffffffffffffffffffffffffffffff8135811691602081013582169160408201359160608101359160808201359160a08101359091169060c08101359060e081013515159060ff6101008201351690610120810135906101400135610e2f565b6040805192835260208301919091528051918290030190f35b3480156103d957600080fd5b506103b460048036036101408110156103f157600080fd5b5073ffffffffffffffffffffffffffffffffffffffff81358116916020810135916040820135916060810135916080820135169060a08101359060c081013515159060ff60e08201351690610100810135906101200135610f6d565b34801561045957600080fd5b506102d9600480360360a081101561047057600080fd5b81359160208101359181019060608101604082013564010000000081111561049757600080fd5b8201836020820111156104a957600080fd5b803590602001918460208302840111640100000000831117156104cb57600080fd5b919350915073ffffffffffffffffffffffffffffffffffffffff81351690602001356110c5565b6101d36004803603608081101561050857600080fd5b8135919081019060408101602082013564010000000081111561052a57600080fd5b82018360208201111561053c57600080fd5b8035906020019184602083028401116401000000008311171561055e57600080fd5b919350915073ffffffffffffffffffffffffffffffffffffffff8135169060200135611316565b34801561059157600080fd5b506101d3600480360360a08110156105a857600080fd5b8135916020810135918101906060810160408201356401000000008111156105cf57600080fd5b8201836020820111156105e157600080fd5b8035906020019184602083028401116401000000008311171561060357600080fd5b919350915073ffffffffffffffffffffffffffffffffffffffff81351690602001356118bc565b34801561063657600080fd5b506102d9600480360360a081101561064d57600080fd5b81359160208101359181019060608101604082013564010000000081111561067457600080fd5b82018360208201111561068657600080fd5b803590602001918460208302840111640100000000831117156106a857600080fd5b919350915073ffffffffffffffffffffffffffffffffffffffff8135169060200135611b92565b3480156106db57600080fd5b5061021060048036036101408110156106f357600080fd5b5073ffffffffffffffffffffffffffffffffffffffff81358116916020810135916040820135916060810135916080820135169060a08101359060c081013515159060ff60e08201351690610100810135906101200135611eea565b6102d96004803603608081101561076557600080fd5b8135919081019060408101602082013564010000000081111561078757600080fd5b82018360208201111561079957600080fd5b803590602001918460208302840111640100000000831117156107bb57600080fd5b919350915073ffffffffffffffffffffffffffffffffffffffff813516906020013561203c565b3480156107ee57600080fd5b506102106004803603606081101561080557600080fd5b5080359060208101359060400135612495565b34801561082457600080fd5b506102d9600480360360a081101561083b57600080fd5b81359160208101359181019060608101604082013564010000000081111561086257600080fd5b82018360208201111561087457600080fd5b8035906020019184602083028401116401000000008311171561089657600080fd5b919350915073ffffffffffffffffffffffffffffffffffffffff81351690602001356124a2565b3480156108c957600080fd5b506108d26125e1565b6040805173ffffffffffffffffffffffffffffffffffffffff9092168252519081900360200190f35b6102d96004803603608081101561091157600080fd5b8135919081019060408101602082013564010000000081111561093357600080fd5b82018360208201111561094557600080fd5b8035906020019184602083028401116401000000008311171561096757600080fd5b919350915073ffffffffffffffffffffffffffffffffffffffff8135169060200135612605565b34801561099a57600080fd5b50610210600480360360608110156109b157600080fd5b5080359060208101359060400135612a1b565b3480156109d057600080fd5b50610210600480360360c08110156109e757600080fd5b5073ffffffffffffffffffffffffffffffffffffffff81358116916020810135916040820135916060810135916080820135169060a00135612a28565b348015610a3057600080fd5b506103b4600480360360e0811015610a4757600080fd5b5073ffffffffffffffffffffffffffffffffffffffff8135811691602081013582169160408201359160608101359160808201359160a08101359091169060c00135612c08565b348015610a9a57600080fd5b506108d2612f12565b348015610aaf57600080fd5b506102d960048036036040811015610ac657600080fd5b81359190810190604081016020820135640100000000811115610ae857600080fd5b820183602082011115610afa57600080fd5b80359060200191846020830284011164010000000083111715610b1c57600080fd5b919080806020026020016040519081016040528093929190818152602001838360200280828437600092019190915250929550612f36945050505050565b348015610b6657600080fd5b506101d3600480360360a0811015610b7d57600080fd5b813591602081013591810190606081016040820135640100000000811115610ba457600080fd5b820183602082011115610bb657600080fd5b80359060200191846020830284011164010000000083111715610bd857600080fd5b919350915073ffffffffffffffffffffffffffffffffffffffff8135169060200135612f63565b348015610c0b57600080fd5b506102d9600480360360a0811015610c2257600080fd5b813591602081013591810190606081016040820135640100000000811115610c4957600080fd5b820183602082011115610c5b57600080fd5b80359060200191846020830284011164010000000083111715610c7d57600080fd5b919350915073ffffffffffffffffffffffffffffffffffffffff81351690602001356132d1565b348015610cb057600080fd5b506103b4600480360360c0811015610cc757600080fd5b5073ffffffffffffffffffffffffffffffffffffffff81358116916020810135916040820135916060810135916080820135169060a00135613514565b348015610d1057600080fd5b50610d736004803603610100811015610d2857600080fd5b5073ffffffffffffffffffffffffffffffffffffffff8135811691602081013582169160408201359160608101359160808201359160a08101359160c0820135169060e00135613667565b60408051938452602084019290925282820152519081900360600190f35b610d73600480360360c0811015610da757600080fd5b5073ffffffffffffffffffffffffffffffffffffffff81358116916020810135916040820135916060810135916080820135169060a001356137f6565b6000610df1848484613b22565b949350505050565b6060610e267f00000000000000000000000000000000000000000000000000000000000000008484613c46565b90505b92915050565b6000806000610e5f7f00000000000000000000000000000000000000000000000000000000000000008f8f613de9565b9050600087610e6e578c610e90565b7fffffffffffffffffffffffffffffffffffffffffffffffffffffffffffffffff5b604080517fd505accf00000000000000000000000000000000000000000000000000000000815233600482015230602482015260448101839052606481018c905260ff8a16608482015260a4810189905260c48101889052905191925073ffffffffffffffffffffffffffffffffffffffff84169163d505accf9160e48082019260009290919082900301818387803b158015610f2c57600080fd5b505af1158015610f40573d6000803e3d6000fd5b50505050610f538f8f8f8f8f8f8f612c08565b809450819550505050509b509b9950505050505050505050565b6000806000610fbd7f00000000000000000000000000000000000000000000000000000000000000008e7f0000000000000000000000000000000000000000000000000000000000000000613de9565b9050600087610fcc578c610fee565b7fffffffffffffffffffffffffffffffffffffffffffffffffffffffffffffffff5b604080517fd505accf00000000000000000000000000000000000000000000000000000000815233600482015230602482015260448101839052606481018c905260ff8a16608482015260a4810189905260c48101889052905191925073ffffffffffffffffffffffffffffffffffffffff84169163d505accf9160e48082019260009290919082900301818387803b15801561108a57600080fd5b505af115801561109e573d6000803e3d6000fd5b505050506110b08e8e8e8e8e8e613514565b909f909e509c50505050505050505050505050565b6060814281101561113757604080517f08c379a000000000000000000000000000000000000000000000000000000000815260206004820152601360248201527f49676e69526f757465723a204558504952454400000000000000000000000000604482015290519081900360640190fd5b6111957f000000000000000000000000000000000000000000000000000000000000000089888880806020026020016040519081016040528093929190818152602001838360200280828437600092019190915250613ed492505050565b915086826001845103815181106111a857fe5b60200260200101511015611207576040517f08c379a00000000000000000000000000000000000000000000000000000000081526004018080602001828103825260268152602001806154a26026913960400191505060405180910390fd5b6112cc8686600081811061121757fe5b9050602002013573ffffffffffffffffffffffffffffffffffffffff16336112b27f00000000000000000000000000000000000000000000000000000000000000008a8a600081811061126657fe5b9050602002013573ffffffffffffffffffffffffffffffffffffffff168b8b600181811061129057fe5b9050602002013573ffffffffffffffffffffffffffffffffffffffff16613de9565b856000815181106112bf57fe5b6020026020010151614025565b61130b828787808060200260200160405190810160405280939291908181526020018383602002808284376000920191909152508992506141f5915050565b509695505050505050565b804281101561138657604080517f08c379a000000000000000000000000000000000000000000000000000000000815260206004820152601360248201527f49676e69526f757465723a204558504952454400000000000000000000000000604482015290519081900360640190fd5b7f000000000000000000000000000000000000000000000000000000000000000073ffffffffffffffffffffffffffffffffffffffff16858560008181106113ca57fe5b9050602002013573ffffffffffffffffffffffffffffffffffffffff1673ffffffffffffffffffffffffffffffffffffffff161461146957604080517f08c379a000000000000000000000000000000000000000000000000000000000815260206004820152601860248201527f49676e69526f757465723a20494e56414c49445f504154480000000000000000604482015290519081900360640190fd5b60003490507f000000000000000000000000000000000000000000000000000000000000000073ffffffffffffffffffffffffffffffffffffffff1663d0e30db0826040518263ffffffff1660e01b81526004016000604051808303818588803b1580156114d657600080fd5b505af11580156114ea573d6000803e3d6000fd5b50505050507f000000000000000000000000000000000000000000000000000000000000000073ffffffffffffffffffffffffffffffffffffffff1663a9059cbb6115867f00000000000000000000000000000000000000000000000000000000000000008989600081811061155c57fe5b9050602002013573ffffffffffffffffffffffffffffffffffffffff168a8a600181811061129057fe5b836040518363ffffffff1660e01b8152600401808373ffffffffffffffffffffffffffffffffffffffff1673ffffffffffffffffffffffffffffffffffffffff16815260200182815260200192505050602060405180830381600087803b1580156115f057600080fd5b505af1158015611604573d6000803e3d6000fd5b505050506040513d602081101561161a57600080fd5b505161162257fe5b600086867fffffffffffffffffffffffffffffffffffffffffffffffffffffffffffffffff810181811061165257fe5b9050602002013573ffffffffffffffffffffffffffffffffffffffff1673ffffffffffffffffffffffffffffffffffffffff166370a08231866040518263ffffffff1660e01b8152600401808273ffffffffffffffffffffffffffffffffffffffff1673ffffffffffffffffffffffffffffffffffffffff16815260200191505060206040518083038186803b1580156116eb57600080fd5b505afa1580156116ff573d6000803e3d6000fd5b505050506040513d602081101561171557600080fd5b505160408051602089810282810182019093528982529293506117579290918a918a91829185019084908082843760009201919091525089925061447c915050565b8761185b8289897fffffffffffffffffffffffffffffffffffffffffffffffffffffffffffffffff810181811061178a57fe5b9050602002013573ffffffffffffffffffffffffffffffffffffffff1673ffffffffffffffffffffffffffffffffffffffff166370a08231896040518263ffffffff1660e01b8152600401808273ffffffffffffffffffffffffffffffffffffffff1673ffffffffffffffffffffffffffffffffffffffff16815260200191505060206040518083038186803b15801561182357600080fd5b505afa158015611837573d6000803e3d6000fd5b505050506040513d602081101561184d57600080fd5b50519063ffffffff61481416565b10156118b2576040517f08c379a00000000000000000000000000000000000000000000000000000000081526004018080602001828103825260268152602001806154a26026913960400191505060405180910390fd5b5050505050505050565b804281101561192c57604080517f08c379a000000000000000000000000000000000000000000000000000000000815260206004820152601360248201527f49676e69526f757465723a204558504952454400000000000000000000000000604482015290519081900360640190fd5b6119918585600081811061193c57fe5b9050602002013573ffffffffffffffffffffffffffffffffffffffff163361198b7f00000000000000000000000000000000000000000000000000000000000000008989600081811061155c57fe5b8a614025565b600085857fffffffffffffffffffffffffffffffffffffffffffffffffffffffffffffffff81018181106119c157fe5b9050602002013573ffffffffffffffffffffffffffffffffffffffff1673ffffffffffffffffffffffffffffffffffffffff166370a08231856040518263ffffffff1660e01b8152600401808273ffffffffffffffffffffffffffffffffffffffff1673ffffffffffffffffffffffffffffffffffffffff16815260200191505060206040518083038186803b158015611a5a57600080fd5b505afa158015611a6e573d6000803e3d6000fd5b505050506040513d6020811015611a8457600080fd5b50516040805160208881028281018201909352888252929350611ac692909189918991829185019084908082843760009201919091525088925061447c915050565b8661185b8288887fffffffffffffffffffffffffffffffffffffffffffffffffffffffffffffffff8101818110611af957fe5b9050602002013573ffffffffffffffffffffffffffffffffffffffff1673ffffffffffffffffffffffffffffffffffffffff166370a08231886040518263ffffffff1660e01b8152600401808273ffffffffffffffffffffffffffffffffffffffff1673ffffffffffffffffffffffffffffffffffffffff16815260200191505060206040518083038186803b15801561182357600080fd5b60608142811015611c0457604080517f08c379a000000000000000000000000000000000000000000000000000000000815260206004820152601360248201527f49676e69526f757465723a204558504952454400000000000000000000000000604482015290519081900360640190fd5b73ffffffffffffffffffffffffffffffffffffffff7f00000000000000000000000000000000000000000000000000000000000000001686867fffffffffffffffffffffffffffffffffffffffffffffffffffffffffffffffff8101818110611c6957fe5b9050602002013573ffffffffffffffffffffffffffffffffffffffff1673ffffffffffffffffffffffffffffffffffffffff1614611d0857604080517f08c379a000000000000000000000000000000000000000000000000000000000815260206004820152601860248201527f49676e69526f757465723a20494e56414c49445f504154480000000000000000604482015290519081900360640190fd5b611d667f000000000000000000000000000000000000000000000000000000000000000089888880806020026020016040519081016040528093929190818152602001838360200280828437600092019190915250613ed492505050565b91508682600184510381518110611d7957fe5b60200260200101511015611dd8576040517f08c379a00000000000000000000000000000000000000000000000000000000081526004018080602001828103825260268152602001806154a26026913960400191505060405180910390fd5b611de88686600081811061121757fe5b611e27828787808060200260200160405190810160405280939291908181526020018383602002808284376000920191909152503092506141f5915050565b7f000000000000000000000000000000000000000000000000000000000000000073ffffffffffffffffffffffffffffffffffffffff16632e1a7d4d83600185510381518110611e7357fe5b60200260200101516040518263ffffffff1660e01b815260040180828152602001915050600060405180830381600087803b158015611eb157600080fd5b505af1158015611ec5573d6000803e3d6000fd5b5050505061130b8483600185510381518110611edd57fe5b6020026020010151614856565b600080611f387f00000000000000000000000000000000000000000000000000000000000000008d7f0000000000000000000000000000000000000000000000000000000000000000613de9565b9050600086611f47578b611f69565b7fffffffffffffffffffffffffffffffffffffffffffffffffffffffffffffffff5b604080517fd505accf00000000000000000000000000000000000000000000000000000000815233600482015230602482015260448101839052606481018b905260ff8916608482015260a4810188905260c48101879052905191925073ffffffffffffffffffffffffffffffffffffffff84169163d505accf9160e48082019260009290919082900301818387803b15801561200557600080fd5b505af1158015612019573d6000803e3d6000fd5b5050505061202b8d8d8d8d8d8d612a28565b9d9c50505050505050505050505050565b606081428110156120ae57604080517f08c379a000000000000000000000000000000000000000000000000000000000815260206004820152601360248201527f49676e69526f757465723a204558504952454400000000000000000000000000604482015290519081900360640190fd5b7f000000000000000000000000000000000000000000000000000000000000000073ffffffffffffffffffffffffffffffffffffffff16868660008181106120f257fe5b9050602002013573ffffffffffffffffffffffffffffffffffffffff1673ffffffffffffffffffffffffffffffffffffffff161461219157604080517f08c379a000000000000000000000000000000000000000000000000000000000815260206004820152601860248201527f49676e69526f757465723a20494e56414c49445f504154480000000000000000604482015290519081900360640190fd5b6121ef7f000000000000000000000000000000000000000000000000000000000000000088888880806020026020016040519081016040528093929190818152602001838360200280828437600092019190915250613c4692505050565b915034826000815181106121ff57fe5b6020026020010151111561225e576040517f08c379a00000000000000000000000000000000000000000000000000000000081526004018080602001828103825260228152602001806155986022913960400191505060405180910390fd5b7f000000000000000000000000000000000000000000000000000000000000000073ffffffffffffffffffffffffffffffffffffffff1663d0e30db0836000815181106122a757fe5b60200260200101516040518263ffffffff1660e01b81526004016000604051808303818588803b1580156122da57600080fd5b505af11580156122ee573d6000803e3d6000fd5b50505050507f000000000000000000000000000000000000000000000000000000000000000073ffffffffffffffffffffffffffffffffffffffff1663a9059cbb6123607f00000000000000000000000000000000000000000000000000000000000000008989600081811061155c57fe5b8460008151811061236d57fe5b60200260200101516040518363ffffffff1660e01b8152600401808373ffffffffffffffffffffffffffffffffffffffff1673ffffffffffffffffffffffffffffffffffffffff16815260200182815260200192505050602060405180830381600087803b1580156123de57600080fd5b505af11580156123f2573d6000803e3d6000fd5b505050506040513d602081101561240857600080fd5b505161241057fe5b61244f828787808060200260200160405190810160405280939291908181526020018383602002808284376000920191909152508992506141f5915050565b8160008151811061245c57fe5b602002602001015134111561248b5761248b338360008151811061247c57fe5b60200260200101513403614856565b5095945050505050565b6000610df184848461498e565b6060814281101561251457604080517f08c379a000000000000000000000000000000000000000000000000000000000815260206004820152601360248201527f49676e69526f757465723a204558504952454400000000000000000000000000604482015290519081900360640190fd5b6125727f000000000000000000000000000000000000000000000000000000000000000089888880806020026020016040519081016040528093929190818152602001838360200280828437600092019190915250613c4692505050565b9150868260008151811061258257fe5b60200260200101511115611207576040517f08c379a00000000000000000000000000000000000000000000000000000000081526004018080602001828103825260228152602001806155986022913960400191505060405180910390fd5b7f000000000000000000000000000000000000000000000000000000000000000081565b6060814281101561267757604080517f08c379a000000000000000000000000000000000000000000000000000000000815260206004820152601360248201527f49676e69526f757465723a204558504952454400000000000000000000000000604482015290519081900360640190fd5b7f000000000000000000000000000000000000000000000000000000000000000073ffffffffffffffffffffffffffffffffffffffff16868660008181106126bb57fe5b9050602002013573ffffffffffffffffffffffffffffffffffffffff1673ffffffffffffffffffffffffffffffffffffffff161461275a57604080517f08c379a000000000000000000000000000000000000000000000000000000000815260206004820152601860248201527f49676e69526f757465723a20494e56414c49445f504154480000000000000000604482015290519081900360640190fd5b6127b87f000000000000000000000000000000000000000000000000000000000000000034888880806020026020016040519081016040528093929190818152602001838360200280828437600092019190915250613ed492505050565b915086826001845103815181106127cb57fe5b6020026020010151101561282a576040517f08c379a00000000000000000000000000000000000000000000000000000000081526004018080602001828103825260268152602001806154a26026913960400191505060405180910390fd5b7f000000000000000000000000000000000000000000000000000000000000000073ffffffffffffffffffffffffffffffffffffffff1663d0e30db08360008151811061287357fe5b60200260200101516040518263ffffffff1660e01b81526004016000604051808303818588803b1580156128a657600080fd5b505af11580156128ba573d6000803e3d6000fd5b50505050507f000000000000000000000000000000000000000000000000000000000000000073ffffffffffffffffffffffffffffffffffffffff1663a9059cbb61292c7f00000000000000000000000000000000000000000000000000000000000000008989600081811061155c57fe5b8460008151811061293957fe5b60200260200101516040518363ffffffff1660e01b8152600401808373ffffffffffffffffffffffffffffffffffffffff1673ffffffffffffffffffffffffffffffffffffffff16815260200182815260200192505050602060405180830381600087803b1580156129aa57600080fd5b505af11580156129be573d6000803e3d6000fd5b505050506040513d60208110156129d457600080fd5b50516129dc57fe5b61248b828787808060200260200160405190810160405280939291908181526020018383602002808284376000920191909152508992506141f5915050565b6000610df1848484614ab2565b60008142811015612a9a57604080517f08c379a000000000000000000000000000000000000000000000000000000000815260206004820152601360248201527f49676e69526f757465723a204558504952454400000000000000000000000000604482015290519081900360640190fd5b612ac9887f00000000000000000000000000000000000000000000000000000000000000008989893089612c08565b604080517f70a082310000000000000000000000000000000000000000000000000000000081523060048201529051919450612b7392508a91879173ffffffffffffffffffffffffffffffffffffffff8416916370a0823191602480820192602092909190829003018186803b158015612b4257600080fd5b505afa158015612b56573d6000803e3d6000fd5b505050506040513d6020811015612b6c57600080fd5b5051614ba8565b7f000000000000000000000000000000000000000000000000000000000000000073ffffffffffffffffffffffffffffffffffffffff16632e1a7d4d836040518263ffffffff1660e01b815260040180828152602001915050600060405180830381600087803b158015612be657600080fd5b505af1158015612bfa573d6000803e3d6000fd5b5050505061130b8483614856565b6000808242811015612c7b57604080517f08c379a000000000000000000000000000000000000000000000000000000000815260206004820152601360248201527f49676e69526f757465723a204558504952454400000000000000000000000000604482015290519081900360640190fd5b6000612ca87f00000000000000000000000000000000000000000000000000000000000000008c8c613de9565b604080517f23b872dd00000000000000000000000000000000000000000000000000000000815233600482015273ffffffffffffffffffffffffffffffffffffffff831660248201819052604482018d9052915192935090916323b872dd916064808201926020929091908290030181600087803b158015612d2957600080fd5b505af1158015612d3d573d6000803e3d6000fd5b505050506040513d6020811015612d5357600080fd5b5050604080517f89afcb4400000000000000000000000000000000000000000000000000000000815273ffffffffffffffffffffffffffffffffffffffff888116600483015282516000938493928616926389afcb44926024808301939282900301818787803b158015612dc657600080fd5b505af1158015612dda573d6000803e3d6000fd5b505050506040513d6040811015612df057600080fd5b50805160209091015190925090506000612e0a8e8e614d85565b5090508073ffffffffffffffffffffffffffffffffffffffff168e73ffffffffffffffffffffffffffffffffffffffff1614612e47578183612e4a565b82825b90975095508a871015612ea8576040517f08c379a00000000000000000000000000000000000000000000000000000000081526004018080602001828103825260218152602001806155316021913960400191505060405180910390fd5b89861015612f01576040517f08c379a00000000000000000000000000000000000000000000000000000000081526004018080602001828103825260218152602001806154c86021913960400191505060405180910390fd5b505050505097509795505050505050565b7f000000000000000000000000000000000000000000000000000000000000000081565b6060610e267f00000000000000000000000000000000000000000000000000000000000000008484613ed4565b8042811015612fd357604080517f08c379a000000000000000000000000000000000000000000000000000000000815260206004820152601360248201527f49676e69526f757465723a204558504952454400000000000000000000000000604482015290519081900360640190fd5b73ffffffffffffffffffffffffffffffffffffffff7f00000000000000000000000000000000000000000000000000000000000000001685857fffffffffffffffffffffffffffffffffffffffffffffffffffffffffffffffff810181811061303857fe5b9050602002013573ffffffffffffffffffffffffffffffffffffffff1673ffffffffffffffffffffffffffffffffffffffff16146130d757604080517f08c379a000000000000000000000000000000000000000000000000000000000815260206004820152601860248201527f49676e69526f757465723a20494e56414c49445f504154480000000000000000604482015290519081900360640190fd5b6130e78585600081811061193c57fe5b61312585858080602002602001604051908101604052809392919081815260200183836020028082843760009201919091525030925061447c915050565b604080517f70a08231000000000000000000000000000000000000000000000000000000008152306004820152905160009173ffffffffffffffffffffffffffffffffffffffff7f000000000000000000000000000000000000000000000000000000000000000016916370a0823191602480820192602092909190829003018186803b1580156131b557600080fd5b505afa1580156131c9573d6000803e3d6000fd5b505050506040513d60208110156131df57600080fd5b505190508681101561323c576040517f08c379a00000000000000000000000000000000000000000000000000000000081526004018080602001828103825260268152602001806154a26026913960400191505060405180910390fd5b7f000000000000000000000000000000000000000000000000000000000000000073ffffffffffffffffffffffffffffffffffffffff16632e1a7d4d826040518263ffffffff1660e01b815260040180828152602001915050600060405180830381600087803b1580156132af57600080fd5b505af11580156132c3573d6000803e3d6000fd5b505050506118b28482614856565b6060814281101561334357604080517f08c379a000000000000000000000000000000000000000000000000000000000815260206004820152601360248201527f49676e69526f757465723a204558504952454400000000000000000000000000604482015290519081900360640190fd5b73ffffffffffffffffffffffffffffffffffffffff7f00000000000000000000000000000000000000000000000000000000000000001686867fffffffffffffffffffffffffffffffffffffffffffffffffffffffffffffffff81018181106133a857fe5b9050602002013573ffffffffffffffffffffffffffffffffffffffff1673ffffffffffffffffffffffffffffffffffffffff161461344757604080517f08c379a000000000000000000000000000000000000000000000000000000000815260206004820152601860248201527f49676e69526f757465723a20494e56414c49445f504154480000000000000000604482015290519081900360640190fd5b6134a57f000000000000000000000000000000000000000000000000000000000000000089888880806020026020016040519081016040528093929190818152602001838360200280828437600092019190915250613c4692505050565b915086826000815181106134b557fe5b60200260200101511115611dd8576040517f08c379a00000000000000000000000000000000000000000000000000000000081526004018080602001828103825260228152602001806155986022913960400191505060405180910390fd5b600080824281101561358757604080517f08c379a000000000000000000000000000000000000000000000000000000000815260206004820152601360248201527f49676e69526f757465723a204558504952454400000000000000000000000000604482015290519081900360640190fd5b6135b6897f00000000000000000000000000000000000000000000000000000000000000008a8a8a308a612c08565b90935091506135c6898685614ba8565b7f000000000000000000000000000000000000000000000000000000000000000073ffffffffffffffffffffffffffffffffffffffff16632e1a7d4d836040518263ffffffff1660e01b815260040180828152602001915050600060405180830381600087803b15801561363957600080fd5b505af115801561364d573d6000803e3d6000fd5b5050505061365b8583614856565b50965096945050505050565b600080600083428110156136dc57604080517f08c379a000000000000000000000000000000000000000000000000000000000815260206004820152601360248201527f49676e69526f757465723a204558504952454400000000000000000000000000604482015290519081900360640190fd5b6136ea8c8c8c8c8c8c614eee565b9094509250600061371c7f00000000000000000000000000000000000000000000000000000000000000008e8e613de9565b905061372a8d338388614025565b6137368c338387614025565b8073ffffffffffffffffffffffffffffffffffffffff16636a627842886040518263ffffffff1660e01b8152600401808273ffffffffffffffffffffffffffffffffffffffff1673ffffffffffffffffffffffffffffffffffffffff168152602001915050602060405180830381600087803b1580156137b557600080fd5b505af11580156137c9573d6000803e3d6000fd5b505050506040513d60208110156137df57600080fd5b5051949d939c50939a509198505050505050505050565b6000806000834281101561386b57604080517f08c379a000000000000000000000000000000000000000000000000000000000815260206004820152601360248201527f49676e69526f757465723a204558504952454400000000000000000000000000604482015290519081900360640190fd5b6138998a7f00000000000000000000000000000000000000000000000000000000000000008b348c8c614eee565b909450925060006138eb7f00000000000000000000000000000000000000000000000000000000000000008c7f0000000000000000000000000000000000000000000000000000000000000000613de9565b90506138f98b338388614025565b7f000000000000000000000000000000000000000000000000000000000000000073ffffffffffffffffffffffffffffffffffffffff1663d0e30db0856040518263ffffffff1660e01b81526004016000604051808303818588803b15801561396157600080fd5b505af1158015613975573d6000803e3d6000fd5b50505050507f000000000000000000000000000000000000000000000000000000000000000073ffffffffffffffffffffffffffffffffffffffff1663a9059cbb82866040518363ffffffff1660e01b8152600401808373ffffffffffffffffffffffffffffffffffffffff1673ffffffffffffffffffffffffffffffffffffffff16815260200182815260200192505050602060405180830381600087803b158015613a2157600080fd5b505af1158015613a35573d6000803e3d6000fd5b505050506040513d6020811015613a4b57600080fd5b5051613a5357fe5b8073ffffffffffffffffffffffffffffffffffffffff16636a627842886040518263ffffffff1660e01b8152600401808273ffffffffffffffffffffffffffffffffffffffff1673ffffffffffffffffffffffffffffffffffffffff168152602001915050602060405180830381600087803b158015613ad257600080fd5b505af1158015613ae6573d6000803e3d6000fd5b505050506040513d6020811015613afc57600080fd5b5051925034841015613b1457613b1433853403614856565b505096509650969350505050565b6000808411613b7c576040517f08c379a000000000000000000000000000000000000000000000000000000000815260040180806020018281038252602681526020018061547c6026913960400191505060405180910390fd5b600083118015613b8c5750600082115b613be1576040517f08c379a00000000000000000000000000000000000000000000000000000000081526004018080602001828103825260238152602001806155526023913960400191505060405180910390fd5b6000613bf5856103e663ffffffff6151ef16565b90506000613c09828563ffffffff6151ef16565b90506000613c2f83613c23886103e863ffffffff6151ef16565b9063ffffffff61526216565b9050808281613c3a57fe5b04979650505050505050565b6060600282511015613cb957604080517f08c379a000000000000000000000000000000000000000000000000000000000815260206004820152601960248201527f49676e694c6962726172793a20494e56414c49445f5041544800000000000000604482015290519081900360640190fd5b815167ffffffffffffffff81118015613cd157600080fd5b50604051908082528060200260200182016040528015613cfb578160200160208202803683370190505b5090508281600183510381518110613d0f57fe5b602090810291909101015281517fffffffffffffffffffffffffffffffffffffffffffffffffffffffffffffffff015b8015613de157600080613d7c87866001860381518110613d5b57fe5b6020026020010151878681518110613d6f57fe5b60200260200101516152d6565b91509150613d9e848481518110613d8f57fe5b6020026020010151838361498e565b846001850381518110613dad57fe5b602090810291909101015250507fffffffffffffffffffffffffffffffffffffffffffffffffffffffffffffffff01613d3f565b509392505050565b6000806000613df88585614d85565b604080517fffffffffffffffffffffffffffffffffffffffff000000000000000000000000606094851b811660208084019190915293851b81166034830152825160288184030181526048830184528051908501207fff0000000000000000000000000000000000000000000000000000000000000060688401529a90941b9093166069840152607d8301989098527f8d87e521467a42069b9c3c3f7cb031c3837c96daa8b76ef5973c0c14559a78ea609d808401919091528851808403909101815260bd909201909752805196019590952095945050505050565b6060600282511015613f4757604080517f08c379a000000000000000000000000000000000000000000000000000000000815260206004820152601960248201527f49676e694c6962726172793a20494e56414c49445f5041544800000000000000604482015290519081900360640190fd5b815167ffffffffffffffff81118015613f5f57600080fd5b50604051908082528060200260200182016040528015613f89578160200160208202803683370190505b5090508281600081518110613f9a57fe5b60200260200101818152505060005b6001835103811015613de157600080613fdf87868581518110613fc857fe5b6020026020010151878660010181518110613d6f57fe5b91509150614001848481518110613ff257fe5b60200260200101518383613b22565b84846001018151811061401057fe5b60209081029190910101525050600101613fa9565b6040805173ffffffffffffffffffffffffffffffffffffffff85811660248301528481166044830152606480830185905283518084039091018152608490920183526020820180517bffffffffffffffffffffffffffffffffffffffffffffffffffffffff167f23b872dd0000000000000000000000000000000000000000000000000000000017815292518251600094606094938a169392918291908083835b6020831061410357805182527fffffffffffffffffffffffffffffffffffffffffffffffffffffffffffffffe090920191602091820191016140c6565b6001836020036101000a0380198251168184511680821785525050505050509050019150506000604051808303816000865af19150503d8060008114614165576040519150601f19603f3d011682016040523d82523d6000602084013e61416a565b606091505b5091509150818015614198575080511580614198575080806020019051602081101561419557600080fd5b50515b6141ed576040517f08c379a00000000000000000000000000000000000000000000000000000000081526004018080602001828103825260248152602001806155ba6024913960400191505060405180910390fd5b505050505050565b60005b60018351038110156144765760008084838151811061421357fe5b602002602001015185846001018151811061422a57fe5b60200260200101519150915060006142428383614d85565b509050600087856001018151811061425657fe5b602002602001015190506000808373ffffffffffffffffffffffffffffffffffffffff168673ffffffffffffffffffffffffffffffffffffffff161461429e578260006142a2565b6000835b91509150600060028a510388106142b957886142fa565b6142fa7f0000000000000000000000000000000000000000000000000000000000000000878c8b600201815181106142ed57fe5b6020026020010151613de9565b90506143277f00000000000000000000000000000000000000000000000000000000000000008888613de9565b73ffffffffffffffffffffffffffffffffffffffff1663022c0d9f84848460006040519080825280601f01601f191660200182016040528015614371576020820181803683370190505b506040518563ffffffff1660e01b8152600401808581526020018481526020018373ffffffffffffffffffffffffffffffffffffffff1673ffffffffffffffffffffffffffffffffffffffff16815260200180602001828103825283818151815260200191508051906020019080838360005b838110156143fc5781810151838201526020016143e4565b50505050905090810190601f1680156144295780820380516001836020036101000a031916815260200191505b5095505050505050600060405180830381600087803b15801561444b57600080fd5b505af115801561445f573d6000803e3d6000fd5b5050600190990198506141f8975050505050505050565b50505050565b60005b600183510381101561480f5760008084838151811061449a57fe5b60200260200101518584600101815181106144b157fe5b60200260200101519150915060006144c98383614d85565b50905060006144f97f00000000000000000000000000000000000000000000000000000000000000008585613de9565b90506000806000808473ffffffffffffffffffffffffffffffffffffffff16630902f1ac6040518163ffffffff1660e01b815260040160606040518083038186803b15801561454757600080fd5b505afa15801561455b573d6000803e3d6000fd5b505050506040513d606081101561457157600080fd5b5080516020909101516dffffffffffffffffffffffffffff918216935016905060008073ffffffffffffffffffffffffffffffffffffffff8a8116908916146145bb5782846145be565b83835b91509150614643828b73ffffffffffffffffffffffffffffffffffffffff166370a082318a6040518263ffffffff1660e01b8152600401808273ffffffffffffffffffffffffffffffffffffffff1673ffffffffffffffffffffffffffffffffffffffff16815260200191505060206040518083038186803b15801561182357600080fd5b9550614650868383613b22565b9450505050506000808573ffffffffffffffffffffffffffffffffffffffff168873ffffffffffffffffffffffffffffffffffffffff161461469457826000614698565b6000835b91509150600060028c51038a106146af578a6146e3565b6146e37f0000000000000000000000000000000000000000000000000000000000000000898e8d600201815181106142ed57fe5b60408051600080825260208201928390527f022c0d9f000000000000000000000000000000000000000000000000000000008352602482018781526044830187905273ffffffffffffffffffffffffffffffffffffffff8086166064850152608060848501908152845160a48601819052969750908c169563022c0d9f958a958a958a9591949193919260c486019290918190849084905b8381101561479357818101518382015260200161477b565b50505050905090810190601f1680156147c05780820380516001836020036101000a031916815260200191505b5095505050505050600060405180830381600087803b1580156147e257600080fd5b505af11580156147f6573d6000803e3d6000fd5b50506001909b019a5061447f9950505050505050505050565b505050565b6000610e2683836040518060400160405280601e81526020017f536166654d6174683a207375627472616374696f6e206f766572666c6f7700008152506153ca565b6040805160008082526020820190925273ffffffffffffffffffffffffffffffffffffffff84169083906040518082805190602001908083835b602083106148cd57805182527fffffffffffffffffffffffffffffffffffffffffffffffffffffffffffffffe09092019160209182019101614890565b6001836020036101000a03801982511681845116808217855250505050505090500191505060006040518083038185875af1925050503d806000811461492f576040519150601f19603f3d011682016040523d82523d6000602084013e614934565b606091505b505090508061480f576040517f08c379a00000000000000000000000000000000000000000000000000000000081526004018080602001828103825260238152602001806155756023913960400191505060405180910390fd5b60008084116149e8576040517f08c379a00000000000000000000000000000000000000000000000000000000081526004018080602001828103825260278152602001806154e96027913960400191505060405180910390fd5b6000831180156149f85750600082115b614a4d576040517f08c379a00000000000000000000000000000000000000000000000000000000081526004018080602001828103825260238152602001806155526023913960400191505060405180910390fd5b6000614a716103e8614a65868863ffffffff6151ef16565b9063ffffffff6151ef16565b90506000614a8b6103e6614a65868963ffffffff61481416565b9050614aa86001828481614a9b57fe5b049063ffffffff61526216565b9695505050505050565b6000808411614b2257604080517f08c379a000000000000000000000000000000000000000000000000000000000815260206004820181905260248201527f49676e694c6962726172793a20494e53554646494349454e545f414d4f554e54604482015290519081900360640190fd5b600083118015614b325750600082115b614b87576040517f08c379a00000000000000000000000000000000000000000000000000000000081526004018080602001828103825260238152602001806155526023913960400191505060405180910390fd5b82614b98858463ffffffff6151ef16565b81614b9f57fe5b04949350505050565b6040805173ffffffffffffffffffffffffffffffffffffffff8481166024830152604480830185905283518084039091018152606490920183526020820180517bffffffffffffffffffffffffffffffffffffffffffffffffffffffff167fa9059cbb00000000000000000000000000000000000000000000000000000000178152925182516000946060949389169392918291908083835b60208310614c7e57805182527fffffffffffffffffffffffffffffffffffffffffffffffffffffffffffffffe09092019160209182019101614c41565b6001836020036101000a0380198251168184511680821785525050505050509050019150506000604051808303816000865af19150503d8060008114614ce0576040519150601f19603f3d011682016040523d82523d6000602084013e614ce5565b606091505b5091509150818015614d13575080511580614d135750808060200190516020811015614d1057600080fd5b50515b614d7e57604080517f08c379a000000000000000000000000000000000000000000000000000000000815260206004820152601f60248201527f5472616e7366657248656c7065723a205452414e534645525f4641494c454400604482015290519081900360640190fd5b5050505050565b6000808273ffffffffffffffffffffffffffffffffffffffff168473ffffffffffffffffffffffffffffffffffffffff161415614e2357604080517f08c379a000000000000000000000000000000000000000000000000000000000815260206004820181905260248201527f49676e694c6962726172793a204944454e544943414c5f414444524553534553604482015290519081900360640190fd5b8273ffffffffffffffffffffffffffffffffffffffff168473ffffffffffffffffffffffffffffffffffffffff1610614e5d578284614e60565b83835b909250905073ffffffffffffffffffffffffffffffffffffffff8216614ee757604080517f08c379a000000000000000000000000000000000000000000000000000000000815260206004820152601960248201527f49676e694c6962726172793a205a45524f5f4144445245535300000000000000604482015290519081900360640190fd5b9250929050565b604080517fe6a4390500000000000000000000000000000000000000000000000000000000815273ffffffffffffffffffffffffffffffffffffffff888116600483015287811660248301529151600092839283927f00000000000000000000000000000000000000000000000000000000000000009092169163e6a4390591604480820192602092909190829003018186803b158015614f8e57600080fd5b505afa158015614fa2573d6000803e3d6000fd5b505050506040513d6020811015614fb857600080fd5b505173ffffffffffffffffffffffffffffffffffffffff16141561509e57604080517fc9c6539600000000000000000000000000000000000000000000000000000000815273ffffffffffffffffffffffffffffffffffffffff8a81166004830152898116602483015291517f00000000000000000000000000000000000000000000000000000000000000009092169163c9c65396916044808201926020929091908290030181600087803b15801561507157600080fd5b505af1158015615085573d6000803e3d6000fd5b505050506040513d602081101561509b57600080fd5b50505b6000806150cc7f00000000000000000000000000000000000000000000000000000000000000008b8b6152d6565b915091508160001480156150de575080155b156150ee578793508692506151e2565b60006150fb898484614ab2565b9050878111615168578581101561515d576040517f08c379a00000000000000000000000000000000000000000000000000000000081526004018080602001828103825260218152602001806154c86021913960400191505060405180910390fd5b8894509250826151e0565b6000615175898486614ab2565b90508981111561518157fe5b878110156151da576040517f08c379a00000000000000000000000000000000000000000000000000000000081526004018080602001828103825260218152602001806155316021913960400191505060405180910390fd5b94508793505b505b5050965096945050505050565b6000826151fe57506000610e29565b8282028284828161520b57fe5b0414610e26576040517f08c379a00000000000000000000000000000000000000000000000000000000081526004018080602001828103825260218152602001806155106021913960400191505060405180910390fd5b600082820183811015610e2657604080517f08c379a000000000000000000000000000000000000000000000000000000000815260206004820152601b60248201527f536166654d6174683a206164646974696f6e206f766572666c6f770000000000604482015290519081900360640190fd5b60008060006152e58585614d85565b5090506152f3868686613de9565b50600080615302888888613de9565b73ffffffffffffffffffffffffffffffffffffffff16630902f1ac6040518163ffffffff1660e01b815260040160606040518083038186803b15801561534757600080fd5b505afa15801561535b573d6000803e3d6000fd5b505050506040513d606081101561537157600080fd5b5080516020909101516dffffffffffffffffffffffffffff918216935016905073ffffffffffffffffffffffffffffffffffffffff878116908416146153b85780826153bb565b81815b90999098509650505050505050565b60008184841115615473576040517f08c379a00000000000000000000000000000000000000000000000000000000081526004018080602001828103825283818151815260200191508051906020019080838360005b83811015615438578181015183820152602001615420565b50505050905090810190601f1680156154655780820380516001836020036101000a031916815260200191505b509250505060405180910390fd5b50505090039056fe49676e694c6962726172793a20494e53554646494349454e545f494e5055545f414d4f554e5449676e69526f757465723a20494e53554646494349454e545f4f55545055545f414d4f554e5449676e69526f757465723a20494e53554646494349454e545f425f414d4f554e5449676e694c6962726172793a20494e53554646494349454e545f4f55545055545f414d4f554e54536166654d6174683a206d756c7469706c69636174696f6e206f766572666c6f7749676e69526f757465723a20494e53554646494349454e545f415f414d4f554e5449676e694c6962726172793a20494e53554646494349454e545f4c49515549444954595472616e7366657248656c7065723a20424e425f5452414e534645525f4641494c454449676e69526f757465723a204558434553534956455f494e5055545f414d4f554e545472616e7366657248656c7065723a205452414e534645525f46524f4d5f4641494c4544a264697066735822122069cb414c4b8fe3a70ca2cf68ac4b375cf757a32238a65d37b67a25d9e66ca20e64736f6c63430006060033",
  "immutableReferences": {
    "186": [
      {
        "length": 32,
        "start": 3584
      },
      {
        "length": 32,
        "start": 3641
      },
      {
        "length": 32,
        "start": 3959
      },
      {
        "length": 32,
        "start": 4412
      },
      {
        "length": 32,
        "start": 4666
      },
      {
        "length": 32,
        "start": 5424
      },
      {
        "length": 32,
        "start": 6495
      },
      {
        "length": 32,
        "start": 7437
      },
      {
        "length": 32,
        "start": 7922
      },
      {
        "length": 32,
        "start": 8598
      },
      {
        "length": 32,
        "start": 9012
      },
      {
        "length": 32,
        "start": 9497
      },
      {
        "length": 32,
        "start": 10079
      },
      {
        "length": 32,
        "start": 10496
      },
      {
        "length": 32,
        "start": 11394
      },
      {
        "length": 32,
        "start": 12052
      },
      {
        "length": 32,
        "start": 12093
      },
      {
        "length": 32,
        "start": 13388
      },
      {
        "length": 32,
        "start": 14070
      },
      {
        "length": 32,
        "start": 14501
      },
      {
        "length": 32,
        "start": 17086
      },
      {
        "length": 32,
        "start": 17153
      },
      {
        "length": 32,
        "start": 17619
      },
      {
        "length": 32,
        "start": 18100
      },
      {
        "length": 32,
        "start": 20293
      },
      {
        "length": 32,
        "start": 20518
      },
      {
        "length": 32,
        "start": 20646
      }
    ],
    "189": [
      {
        "length": 32,
        "start": 428
      },
      {
        "length": 32,
        "start": 3993
      },
      {
        "length": 32,
        "start": 5000
      },
      {
        "length": 32,
        "start": 5232
      },
      {
        "length": 32,
        "start": 5361
      },
      {
        "length": 32,
        "start": 7195
      },
      {
        "length": 32,
        "start": 7721
      },
      {
        "length": 32,
        "start": 7956
      },
      {
        "length": 32,
        "start": 8368
      },
      {
        "length": 32,
        "start": 8800
      },
      {
        "length": 32,
        "start": 8949
      },
      {
        "length": 32,
        "start": 9699
      },
      {
        "length": 32,
        "start": 9849
      },
      {
        "length": 32,
        "start": 10284
      },
      {
        "length": 32,
        "start": 10433
      },
      {
        "length": 32,
        "start": 10912
      },
      {
        "length": 32,
        "start": 11125
      },
      {
        "length": 32,
        "start": 12266
      },
      {
        "length": 32,
        "start": 12654
      },
      {
        "length": 32,
        "start": 12862
      },
      {
        "length": 32,
        "start": 13146
      },
      {
        "length": 32,
        "start": 13709
      },
      {
        "length": 32,
        "start": 13768
      },
      {
        "length": 32,
        "start": 14449
      },
      {
        "length": 32,
        "start": 14535
      },
      {
        "length": 32,
        "start": 14587
      },
      {
        "length": 32,
        "start": 14716
      }
    ]
  },
  "source": "pragma solidity =0.6.6;\r\n\r\nimport '@igniswap/igni-swap-core/contracts/interfaces/IIgniFactory.sol';\r\nimport './libraries/TransferHelper.sol';\r\n\r\nimport './interfaces/IIgniRouter02.sol';\r\nimport './libraries/IgniLibrary.sol';\r\nimport './libraries/SafeMath.sol';\r\nimport './interfaces/IERC20.sol';\r\nimport './interfaces/IWBNB.sol';\r\n\r\ncontract IgniRouter is IIgniRouter02 {\r\n    using SafeMath for uint;\r\n\r\n    address public immutable override factory;\r\n    address public immutable override WBNB;\r\n\r\n    modifier ensure(uint deadline) {\r\n        require(deadline >= block.timestamp, 'IgniRouter: EXPIRED');\r\n        _;\r\n    }\r\n\r\n    constructor(address _factory, address _WBNB) public {\r\n        factory = _factory;\r\n        WBNB = _WBNB;\r\n    }\r\n\r\n    receive() external payable {\r\n        assert(msg.sender == WBNB); // only accept BNB via fallback from the WBNB contract\r\n    }\r\n\r\n    // **** ADD LIQUIDITY ****\r\n    function _addLiquidity(\r\n        address tokenA,\r\n        address tokenB,\r\n        uint amountADesired,\r\n        uint amountBDesired,\r\n        uint amountAMin,\r\n        uint amountBMin\r\n    ) internal virtual returns (uint amountA, uint amountB) {\r\n        // create the pair if it doesn't exist yet\r\n        if (IIgniFactory(factory).getPair(tokenA, tokenB) == address(0)) {\r\n            IIgniFactory(factory).createPair(tokenA, tokenB);\r\n        }\r\n        (uint reserveA, uint reserveB) = IgniLibrary.getReserves(factory, tokenA, tokenB);\r\n        if (reserveA == 0 && reserveB == 0) {\r\n            (amountA, amountB) = (amountADesired, amountBDesired);\r\n        } else {\r\n            uint amountBOptimal = IgniLibrary.quote(amountADesired, reserveA, reserveB);\r\n            if (amountBOptimal <= amountBDesired) {\r\n                require(amountBOptimal >= amountBMin, 'IgniRouter: INSUFFICIENT_B_AMOUNT');\r\n                (amountA, amountB) = (amountADesired, amountBOptimal);\r\n            } else {\r\n                uint amountAOptimal = IgniLibrary.quote(amountBDesired, reserveB, reserveA);\r\n                assert(amountAOptimal <= amountADesired);\r\n                require(amountAOptimal >= amountAMin, 'IgniRouter: INSUFFICIENT_A_AMOUNT');\r\n                (amountA, amountB) = (amountAOptimal, amountBDesired);\r\n            }\r\n        }\r\n    }\r\n    function addLiquidity(\r\n        address tokenA,\r\n        address tokenB,\r\n        uint amountADesired,\r\n        uint amountBDesired,\r\n        uint amountAMin,\r\n        uint amountBMin,\r\n        address to,\r\n        uint deadline\r\n    ) external virtual override ensure(deadline) returns (uint amountA, uint amountB, uint liquidity) {\r\n        (amountA, amountB) = _addLiquidity(tokenA, tokenB, amountADesired, amountBDesired, amountAMin, amountBMin);\r\n        address pair = IgniLibrary.pairFor(factory, tokenA, tokenB);\r\n        TransferHelper.safeTransferFrom(tokenA, msg.sender, pair, amountA);\r\n        TransferHelper.safeTransferFrom(tokenB, msg.sender, pair, amountB);\r\n        liquidity = IIgniPair(pair).mint(to);\r\n    }\r\n    function addLiquidityBNB(\r\n        address token,\r\n        uint amountTokenDesired,\r\n        uint amountTokenMin,\r\n        uint amountBNBMin,\r\n        address to,\r\n        uint deadline\r\n    ) external virtual override payable ensure(deadline) returns (uint amountToken, uint amountBNB, uint liquidity) {\r\n        (amountToken, amountBNB) = _addLiquidity(\r\n            token,\r\n            WBNB,\r\n            amountTokenDesired,\r\n            msg.value,\r\n            amountTokenMin,\r\n            amountBNBMin\r\n        );\r\n        address pair = IgniLibrary.pairFor(factory, token, WBNB);\r\n        TransferHelper.safeTransferFrom(token, msg.sender, pair, amountToken);\r\n        IWBNB(WBNB).deposit{value: amountBNB}();\r\n        assert(IWBNB(WBNB).transfer(pair, amountBNB));\r\n        liquidity = IIgniPair(pair).mint(to);\r\n        // refund dust BNB, if any\r\n        if (msg.value > amountBNB) TransferHelper.safeTransferBNB(msg.sender, msg.value - amountBNB);\r\n    }\r\n\r\n    // **** REMOVE LIQUIDITY ****\r\n    function removeLiquidity(\r\n        address tokenA,\r\n        address tokenB,\r\n        uint liquidity,\r\n        uint amountAMin,\r\n        uint amountBMin,\r\n        address to,\r\n        uint deadline\r\n    ) public virtual override ensure(deadline) returns (uint amountA, uint amountB) {\r\n        address pair = IgniLibrary.pairFor(factory, tokenA, tokenB);\r\n        IIgniPair(pair).transferFrom(msg.sender, pair, liquidity); // send liquidity to pair\r\n        (uint amount0, uint amount1) = IIgniPair(pair).burn(to);\r\n        (address token0,) = IgniLibrary.sortTokens(tokenA, tokenB);\r\n        (amountA, amountB) = tokenA == token0 ? (amount0, amount1) : (amount1, amount0);\r\n        require(amountA >= amountAMin, 'IgniRouter: INSUFFICIENT_A_AMOUNT');\r\n        require(amountB >= amountBMin, 'IgniRouter: INSUFFICIENT_B_AMOUNT');\r\n    }\r\n    function removeLiquidityBNB(\r\n        address token,\r\n        uint liquidity,\r\n        uint amountTokenMin,\r\n        uint amountBNBMin,\r\n        address to,\r\n        uint deadline\r\n    ) public virtual override ensure(deadline) returns (uint amountToken, uint amountBNB) {\r\n        (amountToken, amountBNB) = removeLiquidity(\r\n            token,\r\n            WBNB,\r\n            liquidity,\r\n            amountTokenMin,\r\n            amountBNBMin,\r\n            address(this),\r\n            deadline\r\n        );\r\n        TransferHelper.safeTransfer(token, to, amountToken);\r\n        IWBNB(WBNB).withdraw(amountBNB);\r\n        TransferHelper.safeTransferBNB(to, amountBNB);\r\n    }\r\n    function removeLiquidityWithPermit(\r\n        address tokenA,\r\n        address tokenB,\r\n        uint liquidity,\r\n        uint amountAMin,\r\n        uint amountBMin,\r\n        address to,\r\n        uint deadline,\r\n        bool approveMax, uint8 v, bytes32 r, bytes32 s\r\n    ) external virtual override returns (uint amountA, uint amountB) {\r\n        address pair = IgniLibrary.pairFor(factory, tokenA, tokenB);\r\n        uint value = approveMax ? uint(-1) : liquidity;\r\n        IIgniPair(pair).permit(msg.sender, address(this), value, deadline, v, r, s);\r\n        (amountA, amountB) = removeLiquidity(tokenA, tokenB, liquidity, amountAMin, amountBMin, to, deadline);\r\n    }\r\n    function removeLiquidityBNBWithPermit(\r\n        address token,\r\n        uint liquidity,\r\n        uint amountTokenMin,\r\n        uint amountBNBMin,\r\n        address to,\r\n        uint deadline,\r\n        bool approveMax, uint8 v, bytes32 r, bytes32 s\r\n    ) external virtual override returns (uint amountToken, uint amountBNB) {\r\n        address pair = IgniLibrary.pairFor(factory, token, WBNB);\r\n        uint value = approveMax ? uint(-1) : liquidity;\r\n        IIgniPair(pair).permit(msg.sender, address(this), value, deadline, v, r, s);\r\n        (amountToken, amountBNB) = removeLiquidityBNB(token, liquidity, amountTokenMin, amountBNBMin, to, deadline);\r\n    }\r\n\r\n    // **** REMOVE LIQUIDITY (supporting fee-on-transfer tokens) ****\r\n    function removeLiquidityBNBSupportingFeeOnTransferTokens(\r\n        address token,\r\n        uint liquidity,\r\n        uint amountTokenMin,\r\n        uint amountBNBMin,\r\n        address to,\r\n        uint deadline\r\n    ) public virtual override ensure(deadline) returns (uint amountBNB) {\r\n        (, amountBNB) = removeLiquidity(\r\n            token,\r\n            WBNB,\r\n            liquidity,\r\n            amountTokenMin,\r\n            amountBNBMin,\r\n            address(this),\r\n            deadline\r\n        );\r\n        TransferHelper.safeTransfer(token, to, IERC20(token).balanceOf(address(this)));\r\n        IWBNB(WBNB).withdraw(amountBNB);\r\n        TransferHelper.safeTransferBNB(to, amountBNB);\r\n    }\r\n    function removeLiquidityBNBWithPermitSupportingFeeOnTransferTokens(\r\n        address token,\r\n        uint liquidity,\r\n        uint amountTokenMin,\r\n        uint amountBNBMin,\r\n        address to,\r\n        uint deadline,\r\n        bool approveMax, uint8 v, bytes32 r, bytes32 s\r\n    ) external virtual override returns (uint amountBNB) {\r\n        address pair = IgniLibrary.pairFor(factory, token, WBNB);\r\n        uint value = approveMax ? uint(-1) : liquidity;\r\n        IIgniPair(pair).permit(msg.sender, address(this), value, deadline, v, r, s);\r\n        amountBNB = removeLiquidityBNBSupportingFeeOnTransferTokens(\r\n            token, liquidity, amountTokenMin, amountBNBMin, to, deadline\r\n        );\r\n    }\r\n\r\n    // **** SWAP ****\r\n    // requires the initial amount to have already been sent to the first pair\r\n    function _swap(uint[] memory amounts, address[] memory path, address _to) internal virtual {\r\n        for (uint i; i < path.length - 1; i++) {\r\n            (address input, address output) = (path[i], path[i + 1]);\r\n            (address token0,) = IgniLibrary.sortTokens(input, output);\r\n            uint amountOut = amounts[i + 1];\r\n            (uint amount0Out, uint amount1Out) = input == token0 ? (uint(0), amountOut) : (amountOut, uint(0));\r\n            address to = i < path.length - 2 ? IgniLibrary.pairFor(factory, output, path[i + 2]) : _to;\r\n            IIgniPair(IgniLibrary.pairFor(factory, input, output)).swap(\r\n                amount0Out, amount1Out, to, new bytes(0)\r\n            );\r\n        }\r\n    }\r\n    function swapExactTokensForTokens(\r\n        uint amountIn,\r\n        uint amountOutMin,\r\n        address[] calldata path,\r\n        address to,\r\n        uint deadline\r\n    ) external virtual override ensure(deadline) returns (uint[] memory amounts) {\r\n        amounts = IgniLibrary.getAmountsOut(factory, amountIn, path);\r\n        require(amounts[amounts.length - 1] >= amountOutMin, 'IgniRouter: INSUFFICIENT_OUTPUT_AMOUNT');\r\n        TransferHelper.safeTransferFrom(\r\n            path[0], msg.sender, IgniLibrary.pairFor(factory, path[0], path[1]), amounts[0]\r\n        );\r\n        _swap(amounts, path, to);\r\n    }\r\n    function swapTokensForExactTokens(\r\n        uint amountOut,\r\n        uint amountInMax,\r\n        address[] calldata path,\r\n        address to,\r\n        uint deadline\r\n    ) external virtual override ensure(deadline) returns (uint[] memory amounts) {\r\n        amounts = IgniLibrary.getAmountsIn(factory, amountOut, path);\r\n        require(amounts[0] <= amountInMax, 'IgniRouter: EXCESSIVE_INPUT_AMOUNT');\r\n        TransferHelper.safeTransferFrom(\r\n            path[0], msg.sender, IgniLibrary.pairFor(factory, path[0], path[1]), amounts[0]\r\n        );\r\n        _swap(amounts, path, to);\r\n    }\r\n    function swapExactBNBForTokens(uint amountOutMin, address[] calldata path, address to, uint deadline)\r\n        external\r\n        virtual\r\n        override\r\n        payable\r\n        ensure(deadline)\r\n        returns (uint[] memory amounts)\r\n    {\r\n        require(path[0] == WBNB, 'IgniRouter: INVALID_PATH');\r\n        amounts = IgniLibrary.getAmountsOut(factory, msg.value, path);\r\n        require(amounts[amounts.length - 1] >= amountOutMin, 'IgniRouter: INSUFFICIENT_OUTPUT_AMOUNT');\r\n        IWBNB(WBNB).deposit{value: amounts[0]}();\r\n        assert(IWBNB(WBNB).transfer(IgniLibrary.pairFor(factory, path[0], path[1]), amounts[0]));\r\n        _swap(amounts, path, to);\r\n    }\r\n    function swapTokensForExactBNB(uint amountOut, uint amountInMax, address[] calldata path, address to, uint deadline)\r\n        external\r\n        virtual\r\n        override\r\n        ensure(deadline)\r\n        returns (uint[] memory amounts)\r\n    {\r\n        require(path[path.length - 1] == WBNB, 'IgniRouter: INVALID_PATH');\r\n        amounts = IgniLibrary.getAmountsIn(factory, amountOut, path);\r\n        require(amounts[0] <= amountInMax, 'IgniRouter: EXCESSIVE_INPUT_AMOUNT');\r\n        TransferHelper.safeTransferFrom(\r\n            path[0], msg.sender, IgniLibrary.pairFor(factory, path[0], path[1]), amounts[0]\r\n        );\r\n        _swap(amounts, path, address(this));\r\n        IWBNB(WBNB).withdraw(amounts[amounts.length - 1]);\r\n        TransferHelper.safeTransferBNB(to, amounts[amounts.length - 1]);\r\n    }\r\n    function swapExactTokensForBNB(uint amountIn, uint amountOutMin, address[] calldata path, address to, uint deadline)\r\n        external\r\n        virtual\r\n        override\r\n        ensure(deadline)\r\n        returns (uint[] memory amounts)\r\n    {\r\n        require(path[path.length - 1] == WBNB, 'IgniRouter: INVALID_PATH');\r\n        amounts = IgniLibrary.getAmountsOut(factory, amountIn, path);\r\n        require(amounts[amounts.length - 1] >= amountOutMin, 'IgniRouter: INSUFFICIENT_OUTPUT_AMOUNT');\r\n        TransferHelper.safeTransferFrom(\r\n            path[0], msg.sender, IgniLibrary.pairFor(factory, path[0], path[1]), amounts[0]\r\n        );\r\n        _swap(amounts, path, address(this));\r\n        IWBNB(WBNB).withdraw(amounts[amounts.length - 1]);\r\n        TransferHelper.safeTransferBNB(to, amounts[amounts.length - 1]);\r\n    }\r\n    function swapBNBForExactTokens(uint amountOut, address[] calldata path, address to, uint deadline)\r\n        external\r\n        virtual\r\n        override\r\n        payable\r\n        ensure(deadline)\r\n        returns (uint[] memory amounts)\r\n    {\r\n        require(path[0] == WBNB, 'IgniRouter: INVALID_PATH');\r\n        amounts = IgniLibrary.getAmountsIn(factory, amountOut, path);\r\n        require(amounts[0] <= msg.value, 'IgniRouter: EXCESSIVE_INPUT_AMOUNT');\r\n        IWBNB(WBNB).deposit{value: amounts[0]}();\r\n        assert(IWBNB(WBNB).transfer(IgniLibrary.pairFor(factory, path[0], path[1]), amounts[0]));\r\n        _swap(amounts, path, to);\r\n        // refund dust BNB, if any\r\n        if (msg.value > amounts[0]) TransferHelper.safeTransferBNB(msg.sender, msg.value - amounts[0]);\r\n    }\r\n\r\n    // **** SWAP (supporting fee-on-transfer tokens) ****\r\n    // requires the initial amount to have already been sent to the first pair\r\n    function _swapSupportingFeeOnTransferTokens(address[] memory path, address _to) internal virtual {\r\n        for (uint i; i < path.length - 1; i++) {\r\n            (address input, address output) = (path[i], path[i + 1]);\r\n            (address token0,) = IgniLibrary.sortTokens(input, output);\r\n            IIgniPair pair = IIgniPair(IgniLibrary.pairFor(factory, input, output));\r\n            uint amountInput;\r\n            uint amountOutput;\r\n            { // scope to avoid stack too deep errors\r\n            (uint reserve0, uint reserve1,) = pair.getReserves();\r\n            (uint reserveInput, uint reserveOutput) = input == token0 ? (reserve0, reserve1) : (reserve1, reserve0);\r\n            amountInput = IERC20(input).balanceOf(address(pair)).sub(reserveInput);\r\n            amountOutput = IgniLibrary.getAmountOut(amountInput, reserveInput, reserveOutput);\r\n            }\r\n            (uint amount0Out, uint amount1Out) = input == token0 ? (uint(0), amountOutput) : (amountOutput, uint(0));\r\n            address to = i < path.length - 2 ? IgniLibrary.pairFor(factory, output, path[i + 2]) : _to;\r\n            pair.swap(amount0Out, amount1Out, to, new bytes(0));\r\n        }\r\n    }\r\n    function swapExactTokensForTokensSupportingFeeOnTransferTokens(\r\n        uint amountIn,\r\n        uint amountOutMin,\r\n        address[] calldata path,\r\n        address to,\r\n        uint deadline\r\n    ) external virtual override ensure(deadline) {\r\n        TransferHelper.safeTransferFrom(\r\n            path[0], msg.sender, IgniLibrary.pairFor(factory, path[0], path[1]), amountIn\r\n        );\r\n        uint balanceBefore = IERC20(path[path.length - 1]).balanceOf(to);\r\n        _swapSupportingFeeOnTransferTokens(path, to);\r\n        require(\r\n            IERC20(path[path.length - 1]).balanceOf(to).sub(balanceBefore) >= amountOutMin,\r\n            'IgniRouter: INSUFFICIENT_OUTPUT_AMOUNT'\r\n        );\r\n    }\r\n    function swapExactBNBForTokensSupportingFeeOnTransferTokens(\r\n        uint amountOutMin,\r\n        address[] calldata path,\r\n        address to,\r\n        uint deadline\r\n    )\r\n        external\r\n        virtual\r\n        override\r\n        payable\r\n        ensure(deadline)\r\n    {\r\n        require(path[0] == WBNB, 'IgniRouter: INVALID_PATH');\r\n        uint amountIn = msg.value;\r\n        IWBNB(WBNB).deposit{value: amountIn}();\r\n        assert(IWBNB(WBNB).transfer(IgniLibrary.pairFor(factory, path[0], path[1]), amountIn));\r\n        uint balanceBefore = IERC20(path[path.length - 1]).balanceOf(to);\r\n        _swapSupportingFeeOnTransferTokens(path, to);\r\n        require(\r\n            IERC20(path[path.length - 1]).balanceOf(to).sub(balanceBefore) >= amountOutMin,\r\n            'IgniRouter: INSUFFICIENT_OUTPUT_AMOUNT'\r\n        );\r\n    }\r\n    function swapExactTokensForBNBSupportingFeeOnTransferTokens(\r\n        uint amountIn,\r\n        uint amountOutMin,\r\n        address[] calldata path,\r\n        address to,\r\n        uint deadline\r\n    )\r\n        external\r\n        virtual\r\n        override\r\n        ensure(deadline)\r\n    {\r\n        require(path[path.length - 1] == WBNB, 'IgniRouter: INVALID_PATH');\r\n        TransferHelper.safeTransferFrom(\r\n            path[0], msg.sender, IgniLibrary.pairFor(factory, path[0], path[1]), amountIn\r\n        );\r\n        _swapSupportingFeeOnTransferTokens(path, address(this));\r\n        uint amountOut = IERC20(WBNB).balanceOf(address(this));\r\n        require(amountOut >= amountOutMin, 'IgniRouter: INSUFFICIENT_OUTPUT_AMOUNT');\r\n        IWBNB(WBNB).withdraw(amountOut);\r\n        TransferHelper.safeTransferBNB(to, amountOut);\r\n    }\r\n\r\n    // **** LIBRARY FUNCTIONS ****\r\n    function quote(uint amountA, uint reserveA, uint reserveB) public pure virtual override returns (uint amountB) {\r\n        return IgniLibrary.quote(amountA, reserveA, reserveB);\r\n    }\r\n\r\n    function getAmountOut(uint amountIn, uint reserveIn, uint reserveOut)\r\n        public\r\n        pure\r\n        virtual\r\n        override\r\n        returns (uint amountOut)\r\n    {\r\n        return IgniLibrary.getAmountOut(amountIn, reserveIn, reserveOut);\r\n    }\r\n\r\n    function getAmountIn(uint amountOut, uint reserveIn, uint reserveOut)\r\n        public\r\n        pure\r\n        virtual\r\n        override\r\n        returns (uint amountIn)\r\n    {\r\n        return IgniLibrary.getAmountIn(amountOut, reserveIn, reserveOut);\r\n    }\r\n\r\n    function getAmountsOut(uint amountIn, address[] memory path)\r\n        public\r\n        view\r\n        virtual\r\n        override\r\n        returns (uint[] memory amounts)\r\n    {\r\n        return IgniLibrary.getAmountsOut(factory, amountIn, path);\r\n    }\r\n\r\n    function getAmountsIn(uint amountOut, address[] memory path)\r\n        public\r\n        view\r\n        virtual\r\n        override\r\n        returns (uint[] memory amounts)\r\n    {\r\n        return IgniLibrary.getAmountsIn(factory, amountOut, path);\r\n    }\r\n}\r\n",
  "sourcePath": "C:\\Users\\marcr\\OneDrive\\Escritorio\\Pancake\\igni-swap-periphery\\contracts\\IgniRouter.sol",
  "compiler": {
    "name": "solc",
    "version": "0.6.6+commit.6c089d02.Emscripten.clang"
  },
  "schemaVersion": "3.2.0",
  "updatedAt": "2021-03-06T05:10:13.847Z",
  "devdoc": {
    "methods": {}
  },
  "userdoc": {
    "methods": {}
  }
}